{"contracts/TriviaBattle.sol":{"TriviaBattle":{"abi":[{"inputs":[{"internalType":"address","name":"_usdcToken","type":"address"}],"stateMutability":"nonpayable","type":"constructor"},{"inputs":[{"internalType":"address","name":"owner","type":"address"}],"name":"OwnableInvalidOwner","type":"error"},{"inputs":[{"internalType":"address","name":"account","type":"address"}],"name":"OwnableUnauthorizedAccount","type":"error"},{"inputs":[],"name":"ReentrancyGuardReentrantCall","type":"error"},{"anonymous":false,"inputs":[{"indexed":true,"internalType":"address","name":"previousOwner","type":"address"},{"indexed":true,"internalType":"address","name":"newOwner","type":"address"}],"name":"OwnershipTransferred","type":"event"},{"anonymous":false,"inputs":[{"indexed":true,"internalType":"address","name":"player","type":"address"},{"indexed":false,"internalType":"uint256","name":"entryFee","type":"uint256"}],"name":"PlayerJoined","type":"event"},{"anonymous":false,"inputs":[{"indexed":false,"internalType":"uint256","name":"sessionId","type":"uint256"},{"indexed":false,"internalType":"address[]","name":"winners","type":"address[]"},{"indexed":false,"internalType":"uint256[]","name":"amounts","type":"uint256[]"}],"name":"PrizesDistributed","type":"event"},{"anonymous":false,"inputs":[{"indexed":true,"internalType":"address","name":"player","type":"address"},{"indexed":false,"internalType":"uint256","name":"score","type":"uint256"},{"indexed":false,"internalType":"uint256","name":"timestamp","type":"uint256"}],"name":"ScoreSubmitted","type":"event"},{"anonymous":false,"inputs":[{"indexed":false,"internalType":"uint256","name":"endTime","type":"uint256"}],"name":"SessionEnded","type":"event"},{"anonymous":false,"inputs":[{"indexed":false,"internalType":"uint256","name":"startTime","type":"uint256"},{"indexed":false,"internalType":"uint256","name":"duration","type":"uint256"}],"name":"SessionStarted","type":"event"},{"anonymous":false,"inputs":[{"indexed":true,"internalType":"string","name":"sessionId","type":"string"}],"name":"TrialPlayerJoined","type":"event"},{"anonymous":false,"inputs":[{"indexed":true,"internalType":"string","name":"sessionId","type":"string"},{"indexed":false,"internalType":"uint256","name":"score","type":"uint256"},{"indexed":false,"internalType":"uint256","name":"timestamp","type":"uint256"}],"name":"TrialScoreSubmitted","type":"event"},{"inputs":[],"name":"ENTRY_FEE","outputs":[{"internalType":"uint256","name":"","type":"uint256"}],"stateMutability":"view","type":"function"},{"inputs":[],"name":"currentSession","outputs":[{"internalType":"uint256","name":"startTime","type":"uint256"},{"internalType":"uint256","name":"endTime","type":"uint256"},{"internalType":"uint256","name":"prizePool","type":"uint256"},{"internalType":"uint256","name":"paidPlayerCount","type":"uint256"},{"internalType":"uint256","name":"trialPlayerCount","type":"uint256"},{"internalType":"bool","name":"isActive","type":"bool"},{"internalType":"bool","name":"prizesDistributed","type":"bool"}],"stateMutability":"view","type":"function"},{"inputs":[],"name":"distributePrizes","outputs":[],"stateMutability":"nonpayable","type":"function"},{"inputs":[],"name":"emergencyWithdraw","outputs":[],"stateMutability":"nonpayable","type":"function"},{"inputs":[{"internalType":"address","name":"player","type":"address"}],"name":"getPlayerScore","outputs":[{"internalType":"uint256","name":"score","type":"uint256"},{"internalType":"bool","name":"hasSubmitted","type":"bool"},{"internalType":"uint256","name":"submissionTime","type":"uint256"}],"stateMutability":"view","type":"function"},{"inputs":[],"name":"getSessionInfo","outputs":[{"internalType":"uint256","name":"startTime","type":"uint256"},{"internalType":"uint256","name":"endTime","type":"uint256"},{"internalType":"uint256","name":"prizePool","type":"uint256"},{"internalType":"uint256","name":"paidPlayerCount","type":"uint256"},{"internalType":"uint256","name":"trialPlayerCount","type":"uint256"},{"internalType":"bool","name":"isActive","type":"bool"},{"internalType":"bool","name":"prizesDistributed","type":"bool"}],"stateMutability":"view","type":"function"},{"inputs":[{"internalType":"string","name":"sessionId","type":"string"}],"name":"getTrialPlayerScore","outputs":[{"internalType":"uint256","name":"score","type":"uint256"},{"internalType":"bool","name":"hasSubmitted","type":"bool"},{"internalType":"uint256","name":"submissionTime","type":"uint256"}],"stateMutability":"view","type":"function"},{"inputs":[],"name":"joinBattle","outputs":[],"stateMutability":"nonpayable","type":"function"},{"inputs":[{"internalType":"string","name":"sessionId","type":"string"}],"name":"joinTrialBattle","outputs":[],"stateMutability":"nonpayable","type":"function"},{"inputs":[],"name":"owner","outputs":[{"internalType":"address","name":"","type":"address"}],"stateMutability":"view","type":"function"},{"inputs":[],"name":"renounceOwnership","outputs":[],"stateMutability":"nonpayable","type":"function"},{"inputs":[{"internalType":"uint256","name":"duration","type":"uint256"}],"name":"startSession","outputs":[],"stateMutability":"nonpayable","type":"function"},{"inputs":[{"internalType":"uint256","name":"score","type":"uint256"}],"name":"submitScore","outputs":[],"stateMutability":"nonpayable","type":"function"},{"inputs":[{"internalType":"string","name":"sessionId","type":"string"},{"internalType":"uint256","name":"score","type":"uint256"}],"name":"submitTrialScore","outputs":[],"stateMutability":"nonpayable","type":"function"},{"inputs":[{"internalType":"address","name":"newOwner","type":"address"}],"name":"transferOwnership","outputs":[],"stateMutability":"nonpayable","type":"function"},{"inputs":[],"name":"usdcToken","outputs":[{"internalType":"contract IERC20","name":"","type":"address"}],"stateMutability":"view","type":"function"}],"evm":{"bytecode":{"linkReferences":{},"object":"60a0346100e357601f611a4a38819003918201601f19168301916001600160401b038311848410176100e8578084926020946040528339810103126100e357516001600160a01b0390818116908190036100e357600160005533156100ca5760018054336001600160a01b03198216811790925560405193167f8be0079c531659141344cd1fd0a4f28419497f9722a3daafe3b4186f6b6457e0600080a360805261194b90816100ff823960805181818161022d015281816105e201528181610f4b01526114850152f35b604051631e4fbdf760e01b815260006004820152602490fd5b600080fd5b634e487b7160e01b600052604160045260246000fdfe608060408181526004918236101561001657600080fd5b600092833560e01c91826311eac85514610f3757508163264eab0e14610c36578163715018a614610bd957816377127612146109ce5781637ce52eb6146109435781638da5cb5b1461091a5781639463b1cd146103a057816395607a95146107a057816397794bf414610558578163aff0b2971461045d578163d082e23f1461040b578163d4166763146103a0578163db2e21bc146101f3578163e085c53914610191578163f2fde38b146100f5575063f6d361cc146100d557600080fd5b346100f157816003193601126100f15760209051620f42408152f35b5080fd5b9190503461018d57602036600319011261018d576001600160a01b03823581811693919290849003610189576101296118c6565b8315610173575050600154826bffffffffffffffffffffffff60a01b821617600155167f8be0079c531659141344cd1fd0a4f28419497f9722a3daafe3b4186f6b6457e08380a380f35b51631e4fbdf760e01b8152908101849052602490fd5b8480fd5b8280fd5b839150346100f15760203660031901126100f157356001600160a01b038116908190036100f1578183916101cb9352600860205220611899565b8051602080830151928401519351918252911515918101919091526040810191909152606090f35b9190503461018d578260031936011261018d5761020e6118c6565b80516370a0823160e01b81523083820152602091906001600160a01b037f00000000000000000000000000000000000000000000000000000000000000008116908483602481855afa928315610396578793610363575b50821561032a57600154845163a9059cbb60e01b815291166001600160a01b03168682019081526020810193909352918491839182908990829060400103925af19081156103205785916102f3575b50156102be578380f35b5162461bcd60e51b815291820152601160248201527015da5d1a191c985dd85b0819985a5b1959607a1b604482015260649150fd5b6103139150833d8511610319575b61030b818361117c565b8101906111ca565b386102b4565b503d610301565b82513d87823e3d90fd5b835162461bcd60e51b815280870186905260136024820152724e6f205553444320746f20776974686472617760681b6044820152606490fd5b9092508481813d831161038f575b61037b818361117c565b8101031261038b57519138610265565b8680fd5b503d610371565b84513d89823e3d90fd5b905082346104085780600319360112610408575060025460035491546005546006546007549551938452602084019490945260408301919091526060820152608081019190915260ff808316151560a083015260089290921c909116151560c082015260e090f35b80fd5b905082346104085760203660031901126104085781359067ffffffffffffffff821161040857506104446101cb92602092369101610f7a565b9190828551938492833781016009815203019020611899565b9190503461018d576020806003193601126105545782359261048360ff60075416610fad565b610491600254421015610fed565b61049f60035442111561102f565b33855260088252828520541561051f5750907fb7f20d0949b6a8bc59d005af4a52f7ff5d0cfcde9056fa556adb0e4b24dcb6d291338552600881526104ed60ff60018488200154161561184d565b3385526008815281852084815560018101600160ff19825416179055600242910155815193845242908401523392a280f35b915162461bcd60e51b8152918201526011602482015270141b185e595c881b9bdd081a9bda5b9959607a1b6044820152606490fd5b8380fd5b8383346100f157816003193601126100f1576105726118f2565b61058060ff60075416610fad565b61058e600254421015610fed565b61059c60035442111561102f565b3382526020600881528183205461076d5781516323b872dd60e01b81523385820152306024820152620f42406044820181905292906001600160a01b03908381606481897f000000000000000000000000000000000000000000000000000000000000000087165af1908115610763578691610746575b501561070c5785548481018091116106f957865561063260055461106b565b600555600a54600160401b8110156106e657906106788260017f3330a6773675f31f62070870f40379f8c6d42e3761410011a4dfc42b18043d2f96959401600a55611090565b819291549060031b9133831b921b19161790556106d881516106998161112e565b868152868482015286838201523387526008845282872090604060029180518455600184016020820151151560ff801983541691161790550151910155565b519283523392a26001815580f35b634e487b7160e01b865260418752602486fd5b634e487b7160e01b865260118752602486fd5b815162461bcd60e51b815280870184905260146024820152731554d110c81d1c985b9cd9995c8819985a5b195960621b6044820152606490fd5b61075d9150843d86116103195761030b818361117c565b87610613565b83513d88823e3d90fd5b8390606492519162461bcd60e51b8352820152600e60248201526d105b1c9958591e481a9bda5b995960921b6044820152fd5b839150346100f157826003193601126100f157803567ffffffffffffffff811161018d576107d19036908301610f7a565b602494919435906107e660ff60075416610fad565b6107f4600254421015610fed565b61080260035442111561102f565b82519381878637848281016009815260209687910301902054156108d757507fbd6ca4b35a8166766cbd9f87f743edb98a23e3033ee5995dbe8f750279db9aae93949561086860ff6001865185858237898187810160098152030190200154161561184d565b82845183838237878185810160098152030190205560018451838382378781858101600981520301902001600160ff198254161790558351828282376002838201916009835288814294030190200155818451928392833781018781520390209382519182524290820152a280f35b835162461bcd60e51b8152908101859052601760248201527f547269616c20706c61796572206e6f74206a6f696e65640000000000000000006044820152606490fd5b5050346100f157816003193601126100f15760015490516001600160a01b039091168152602090f35b9190503461018d578260031936011261018d5761095e6118c6565b60ff600754161580156109c3575b15610989578261097a6118f2565b6109826111e2565b6001815580f35b906020606492519162461bcd60e51b8352820152601460248201527353657373696f6e207374696c6c2061637469766560601b6044820152fd5b50600354421161096c565b8383346100f15760208060031936011261018d578335906109ed6118c6565b60ff60075416610b9d578115610b675783600255836003558385556005846005558460065584600755600a5485600a5580610b25575b50600b549185600b5582610a9a575b50505042600255804201804211610a87577fce6cbe3431d9ec9ac1a82a77a80bb9120b0250307afb3ed08873ea84c52b70c0939450600355600161ffff1960075416176007558151904282526020820152a180f35b634e487b7160e01b845260118552602484fd5b600b86527f0175b7a638427703f0dbe7bb9bbf987a2551717b34e79f33b5b1008d1fa01db9928301925b838110610ad15750610a32565b8087610adf600193546110dd565b80610aed575b505001610ac4565b601f8082118514610b0457505081555b878a610ae5565b610b1c908484528684209201871c8201858301611117565b81835555610afd565b600a86527fc65a7bb8d6351c1cf70c95a316cc6a92839c986682d98bc35f958f4883f9d2a8908101905b818110610b5c5750610a23565b868155600101610b4f565b825162461bcd60e51b8152602081870152601060248201526f24b73b30b634b210323ab930ba34b7b760811b6044820152606490fd5b825162461bcd60e51b8152602081870152601660248201527553657373696f6e20616c72656164792061637469766560501b6044820152606490fd5b8334610408578060031936011261040857610bf26118c6565b600180546001600160a01b0319811690915581906001600160a01b03167f8be0079c531659141344cd1fd0a4f28419497f9722a3daafe3b4186f6b6457e08280a380f35b8383346100f1576020908160031936011261018d5767ffffffffffffffff90843582811161018957610c6b9036908701610f7a565b939092610c7c60ff60075416610fad565b610c8a600254421015610fed565b610c9860035442111561102f565b8415610eff578251858582378281878101600981520301902054610ebc57610cc160065461106b565b600655600b54600160401b811015610e96576001906001810180600b55811015610ea957600b88527f0175b7a638427703f0dbe7bb9bbf987a2551717b34e79f33b5b1008d1fa01db901918611610e96579085939291610d2182546110dd565b601f8111610e5d575b508790601f8611600114610def57509084610daf93928991610de4575b508560011b906000198760031b1c19161790555b825190610d678261112e565b878252878183015287848301528351908587833781868101600981520301902090604060029180518455600184016020820151151560ff801983541691161790550151910155565b51928392833781018381520390207f93a1dfbf47c62f8886f8594f34973102da8b27ce9a0206226a3957bd9ee777d78280a280f35b905086013589610d47565b828952838920601f198716969594939290918a905b888210610e4357505085610daf95969710610e29575b5050600185811b019055610d5b565b870135600019600388901b60f8161c191690558880610e1a565b8983013584558a9750928301929185019190850190610e04565b610e8690838a52848a20601f880160051c810191868910610e8c575b601f0160051c0190611117565b88610d2a565b9091508190610e79565b634e487b7160e01b875260418852602487fd5b634e487b7160e01b885260328952602488fd5b825162461bcd60e51b8152808801839052601760248201527f53657373696f6e20494420616c726561647920757365640000000000000000006044820152606490fd5b825162461bcd60e51b81528088018390526012602482015271125b9d985b1a59081cd95cdcda5bdb88125160721b6044820152606490fd5b8490346100f157816003193601126100f1577f00000000000000000000000000000000000000000000000000000000000000006001600160a01b03168152602090f35b9181601f84011215610fa85782359167ffffffffffffffff8311610fa85760208381860195010111610fa857565b600080fd5b15610fb457565b60405162461bcd60e51b815260206004820152601160248201527027379030b1ba34bb329039b2b9b9b4b7b760791b6044820152606490fd5b15610ff457565b60405162461bcd60e51b815260206004820152601360248201527214d95cdcda5bdb881b9bdd081cdd185c9d1959606a1b6044820152606490fd5b1561103657565b60405162461bcd60e51b815260206004820152600d60248201526c14d95cdcda5bdb88195b991959609a1b6044820152606490fd5b600019811461107a5760010190565b634e487b7160e01b600052601160045260246000fd5b600a548110156110c757600a6000527fc65a7bb8d6351c1cf70c95a316cc6a92839c986682d98bc35f958f4883f9d2a80190600090565b634e487b7160e01b600052603260045260246000fd5b90600182811c9216801561110d575b60208310146110f757565b634e487b7160e01b600052602260045260246000fd5b91607f16916110ec565b818110611122575050565b60008155600101611117565b6060810190811067ffffffffffffffff82111761114a57604052565b634e487b7160e01b600052604160045260246000fd5b6040810190811067ffffffffffffffff82111761114a57604052565b90601f8019910116810190811067ffffffffffffffff82111761114a57604052565b67ffffffffffffffff811161114a5760051b60200190565b80518210156110c75760209160051b010190565b90816020910312610fa857518015158103610fa85790565b6007549060089060ff83831c81166118085760045480156117d357600a549461120a8661119e565b95611218604051978861117c565b808752601f1995866112298361119e565b0160005b8181106117ae575050600094855b83811061172c575050505082156116ed57506000939293925b6000199483860184811161107a578510156113185760005b85850385811161107a5787810190811161107a5781101561130a5760209081611295828b6111b6565b510151600182019081831161107a576001936112b1838d6111b6565b510151116112c1575b500161126c565b611303906112cf838c6111b6565b518b6112e6856112df85846111b6565b51926111b6565b526112f1848d6111b6565b506112fc828d6111b6565b528a6111b6565b50386112ba565b509450600190930192611254565b945092509390603285029480860460320361107a57606495601e8202828104601e0361107a57600f8302838104600f0361107a576005840293840460050361107a5761136885999897969561119e565b93611376604051958661117c565b898552866113838b61119e565b013660208701376113938a61119e565b966113a1604051988961117c565b8a88526113ad8b61119e565b0136602089013760009960005b818110806116e3575b156115ed576000816115315750868c808a8c9d9e9f60648b9e9d9e049c6114179561140b8f95611411955b6001600160a01b0390611402908c906111b6565b515116926111b6565b526111b6565b5261106b565b9780611433575b506114289061106b565b9a999897969a6113ba565b61147f906020906001600160a01b0361144c858e6111b6565b515160405163a9059cbb60e01b815291166001600160a01b03166004820152602481019190915291829081906044820190565b038160007f00000000000000000000000000000000000000000000000000000000000000006001600160a01b03165af190811561152557600091611506575b50156114ca573861141e565b60405162461bcd60e51b8152602060048201526015602482015274141c9a5e99481d1c985b9cd9995c8819985a5b1959605a1b60448201528c90fd5b61151f915060203d6020116103195761030b818361117c565b386114be565b6040513d6000823e3d90fd5b6001820361155c5750868c808a8c9d9e9f60648a9e9d9e049c6114179561140b8f95611411956113ee565b600282036115875750868c808a8c9d9e9f6064899e9d9e049c6114179561140b8f95611411956113ee565b826002198101116115d9576002198301156115c55750868c808a8c9d9e9f60029d9c9d19870160648904049c6114179561140b8f95611411956113ee565b634e487b7160e01b81526012600452602490fd5b634e487b7160e01b81526011600452602490fd5b50505050505093505090925061010061ffff19600754161760075560025491604051926060840190845260606020850152815180915260206080850192019060005b8181106116c45750505082810360408401526020808351928381520192019060005b8181106116ae5750505090807fec92dccf4a03653bc1a3d85019574bf62a659c47575779a889806684783b9e5c920390a17f6fec84c120bd2f6ca3672e03149381cb6bd1bf38d8442f598e8fa9820a53991e6020604051428152a1565b8251845260209384019390920191600101611651565b82516001600160a01b031684526020938401939092019160010161162f565b50600a81106113c3565b9294505050610100915061ffff1916176007557f6fec84c120bd2f6ca3672e03149381cb6bd1bf38d8442f598e8fa9820a53991e6020604051428152a1565b61173581611090565b60018060a01b0391549060031b1c16806000528a602085815260406000208560018201541661176b575b5050505060010161123b565b8a6001959b936117a495936117939354906040519561178987611160565b86528501526111b6565b5261179e818d6111b6565b5061106b565b96908a388061175f565b6020906040516117bd81611160565b6000815282600081830152828d0101520161122d565b60405162461bcd60e51b815260206004820152600d60248201526c139bc81c1c9a5e99481c1bdbdb609a1b6044820152606490fd5b60405162461bcd60e51b815260206004820152601a60248201527f5072697a657320616c72656164792064697374726962757465640000000000006044820152606490fd5b1561185457565b60405162461bcd60e51b815260206004820152601760248201527f53636f726520616c7265616479207375626d69747465640000000000000000006044820152606490fd5b906040516118a68161112e565b6040600282948054845260ff600182015416151560208501520154910152565b6001546001600160a01b031633036118da57565b60405163118cdaa760e01b8152336004820152602490fd5b600260005414611903576002600055565b604051633ee5aeb560e01b8152600490fdfea264697066735822122098edd6255de554f42820470a7c680d934c42f86ae85432ad0470a06534874c1264736f6c63430008190033","opcodes":"PUSH1 0xA0 CALLVALUE PUSH2 0xE3 JUMPI PUSH1 0x1F PUSH2 0x1A4A CODESIZE DUP2 SWAP1 SUB SWAP2 DUP3 ADD PUSH1 0x1F NOT AND DUP4 ADD SWAP2 PUSH1 0x1 PUSH1 0x1 PUSH1 0x40 SHL SUB DUP4 GT DUP5 DUP5 LT OR PUSH2 0xE8 JUMPI DUP1 DUP5 SWAP3 PUSH1 0x20 SWAP5 PUSH1 0x40 MSTORE DUP4 CODECOPY DUP2 ADD SUB SLT PUSH2 0xE3 JUMPI MLOAD PUSH1 0x1 PUSH1 0x1 PUSH1 0xA0 SHL SUB SWAP1 DUP2 DUP2 AND SWAP1 DUP2 SWAP1 SUB PUSH2 0xE3 JUMPI PUSH1 0x1 PUSH1 0x0 SSTORE CALLER ISZERO PUSH2 0xCA JUMPI PUSH1 0x1 DUP1 SLOAD CALLER PUSH1 0x1 PUSH1 0x1 PUSH1 0xA0 SHL SUB NOT DUP3 AND DUP2 OR SWAP1 SWAP3 SSTORE PUSH1 0x40 MLOAD SWAP4 AND PUSH32 0x8BE0079C531659141344CD1FD0A4F28419497F9722A3DAAFE3B4186F6B6457E0 PUSH1 0x0 DUP1 LOG3 PUSH1 0x80 MSTORE PUSH2 0x194B SWAP1 DUP2 PUSH2 0xFF DUP3 CODECOPY PUSH1 0x80 MLOAD DUP2 DUP2 DUP2 PUSH2 0x22D ADD MSTORE DUP2 DUP2 PUSH2 0x5E2 ADD MSTORE DUP2 DUP2 PUSH2 0xF4B ADD MSTORE PUSH2 0x1485 ADD MSTORE RETURN JUMPDEST PUSH1 0x40 MLOAD PUSH4 0x1E4FBDF7 PUSH1 0xE0 SHL DUP2 MSTORE PUSH1 0x0 PUSH1 0x4 DUP3 ADD MSTORE PUSH1 0x24 SWAP1 REVERT JUMPDEST PUSH1 0x0 DUP1 REVERT JUMPDEST PUSH4 0x4E487B71 PUSH1 0xE0 SHL PUSH1 0x0 MSTORE PUSH1 0x41 PUSH1 0x4 MSTORE PUSH1 0x24 PUSH1 0x0 REVERT INVALID PUSH1 0x80 PUSH1 0x40 DUP2 DUP2 MSTORE PUSH1 0x4 SWAP2 DUP3 CALLDATASIZE LT ISZERO PUSH2 0x16 JUMPI PUSH1 0x0 DUP1 REVERT JUMPDEST PUSH1 0x0 SWAP3 DUP4 CALLDATALOAD PUSH1 0xE0 SHR SWAP2 DUP3 PUSH4 0x11EAC855 EQ PUSH2 0xF37 JUMPI POP DUP2 PUSH4 0x264EAB0E EQ PUSH2 0xC36 JUMPI DUP2 PUSH4 0x715018A6 EQ PUSH2 0xBD9 JUMPI DUP2 PUSH4 0x77127612 EQ PUSH2 0x9CE JUMPI DUP2 PUSH4 0x7CE52EB6 EQ PUSH2 0x943 JUMPI DUP2 PUSH4 0x8DA5CB5B EQ PUSH2 0x91A JUMPI DUP2 PUSH4 0x9463B1CD EQ PUSH2 0x3A0 JUMPI DUP2 PUSH4 0x95607A95 EQ PUSH2 0x7A0 JUMPI DUP2 PUSH4 0x97794BF4 EQ PUSH2 0x558 JUMPI DUP2 PUSH4 0xAFF0B297 EQ PUSH2 0x45D JUMPI DUP2 PUSH4 0xD082E23F EQ PUSH2 0x40B JUMPI DUP2 PUSH4 0xD4166763 EQ PUSH2 0x3A0 JUMPI DUP2 PUSH4 0xDB2E21BC EQ PUSH2 0x1F3 JUMPI DUP2 PUSH4 0xE085C539 EQ PUSH2 0x191 JUMPI DUP2 PUSH4 0xF2FDE38B EQ PUSH2 0xF5 JUMPI POP PUSH4 0xF6D361CC EQ PUSH2 0xD5 JUMPI PUSH1 0x0 DUP1 REVERT JUMPDEST CALLVALUE PUSH2 0xF1 JUMPI DUP2 PUSH1 0x3 NOT CALLDATASIZE ADD SLT PUSH2 0xF1 JUMPI PUSH1 0x20 SWAP1 MLOAD PUSH3 0xF4240 DUP2 MSTORE RETURN JUMPDEST POP DUP1 REVERT JUMPDEST SWAP2 SWAP1 POP CALLVALUE PUSH2 0x18D JUMPI PUSH1 0x20 CALLDATASIZE PUSH1 0x3 NOT ADD SLT PUSH2 0x18D JUMPI PUSH1 0x1 PUSH1 0x1 PUSH1 0xA0 SHL SUB DUP3 CALLDATALOAD DUP2 DUP2 AND SWAP4 SWAP2 SWAP3 SWAP1 DUP5 SWAP1 SUB PUSH2 0x189 JUMPI PUSH2 0x129 PUSH2 0x18C6 JUMP JUMPDEST DUP4 ISZERO PUSH2 0x173 JUMPI POP POP PUSH1 0x1 SLOAD DUP3 PUSH12 0xFFFFFFFFFFFFFFFFFFFFFFFF PUSH1 0xA0 SHL DUP3 AND OR PUSH1 0x1 SSTORE AND PUSH32 0x8BE0079C531659141344CD1FD0A4F28419497F9722A3DAAFE3B4186F6B6457E0 DUP4 DUP1 LOG3 DUP1 RETURN JUMPDEST MLOAD PUSH4 0x1E4FBDF7 PUSH1 0xE0 SHL DUP2 MSTORE SWAP1 DUP2 ADD DUP5 SWAP1 MSTORE PUSH1 0x24 SWAP1 REVERT JUMPDEST DUP5 DUP1 REVERT JUMPDEST DUP3 DUP1 REVERT JUMPDEST DUP4 SWAP2 POP CALLVALUE PUSH2 0xF1 JUMPI PUSH1 0x20 CALLDATASIZE PUSH1 0x3 NOT ADD SLT PUSH2 0xF1 JUMPI CALLDATALOAD PUSH1 0x1 PUSH1 0x1 PUSH1 0xA0 SHL SUB DUP2 AND SWAP1 DUP2 SWAP1 SUB PUSH2 0xF1 JUMPI DUP2 DUP4 SWAP2 PUSH2 0x1CB SWAP4 MSTORE PUSH1 0x8 PUSH1 0x20 MSTORE KECCAK256 PUSH2 0x1899 JUMP JUMPDEST DUP1 MLOAD PUSH1 0x20 DUP1 DUP4 ADD MLOAD SWAP3 DUP5 ADD MLOAD SWAP4 MLOAD SWAP2 DUP3 MSTORE SWAP2 ISZERO ISZERO SWAP2 DUP2 ADD SWAP2 SWAP1 SWAP2 MSTORE PUSH1 0x40 DUP2 ADD SWAP2 SWAP1 SWAP2 MSTORE PUSH1 0x60 SWAP1 RETURN JUMPDEST SWAP2 SWAP1 POP CALLVALUE PUSH2 0x18D JUMPI DUP3 PUSH1 0x3 NOT CALLDATASIZE ADD SLT PUSH2 0x18D JUMPI PUSH2 0x20E PUSH2 0x18C6 JUMP JUMPDEST DUP1 MLOAD PUSH4 0x70A08231 PUSH1 0xE0 SHL DUP2 MSTORE ADDRESS DUP4 DUP3 ADD MSTORE PUSH1 0x20 SWAP2 SWAP1 PUSH1 0x1 PUSH1 0x1 PUSH1 0xA0 SHL SUB PUSH32 0x0 DUP2 AND SWAP1 DUP5 DUP4 PUSH1 0x24 DUP2 DUP6 GAS STATICCALL SWAP3 DUP4 ISZERO PUSH2 0x396 JUMPI DUP8 SWAP4 PUSH2 0x363 JUMPI JUMPDEST POP DUP3 ISZERO PUSH2 0x32A JUMPI PUSH1 0x1 SLOAD DUP5 MLOAD PUSH4 0xA9059CBB PUSH1 0xE0 SHL DUP2 MSTORE SWAP2 AND PUSH1 0x1 PUSH1 0x1 PUSH1 0xA0 SHL SUB AND DUP7 DUP3 ADD SWAP1 DUP2 MSTORE PUSH1 0x20 DUP2 ADD SWAP4 SWAP1 SWAP4 MSTORE SWAP2 DUP5 SWAP2 DUP4 SWAP2 DUP3 SWAP1 DUP10 SWAP1 DUP3 SWAP1 PUSH1 0x40 ADD SUB SWAP3 GAS CALL SWAP1 DUP2 ISZERO PUSH2 0x320 JUMPI DUP6 SWAP2 PUSH2 0x2F3 JUMPI JUMPDEST POP ISZERO PUSH2 0x2BE JUMPI DUP4 DUP1 RETURN JUMPDEST MLOAD PUSH3 0x461BCD PUSH1 0xE5 SHL DUP2 MSTORE SWAP2 DUP3 ADD MSTORE PUSH1 0x11 PUSH1 0x24 DUP3 ADD MSTORE PUSH17 0x15DA5D1A191C985DD85B0819985A5B1959 PUSH1 0x7A SHL PUSH1 0x44 DUP3 ADD MSTORE PUSH1 0x64 SWAP2 POP REVERT JUMPDEST PUSH2 0x313 SWAP2 POP DUP4 RETURNDATASIZE DUP6 GT PUSH2 0x319 JUMPI JUMPDEST PUSH2 0x30B DUP2 DUP4 PUSH2 0x117C JUMP JUMPDEST DUP2 ADD SWAP1 PUSH2 0x11CA JUMP JUMPDEST CODESIZE PUSH2 0x2B4 JUMP JUMPDEST POP RETURNDATASIZE PUSH2 0x301 JUMP JUMPDEST DUP3 MLOAD RETURNDATASIZE DUP8 DUP3 RETURNDATACOPY RETURNDATASIZE SWAP1 REVERT JUMPDEST DUP4 MLOAD PUSH3 0x461BCD PUSH1 0xE5 SHL DUP2 MSTORE DUP1 DUP8 ADD DUP7 SWAP1 MSTORE PUSH1 0x13 PUSH1 0x24 DUP3 ADD MSTORE PUSH19 0x4E6F205553444320746F207769746864726177 PUSH1 0x68 SHL PUSH1 0x44 DUP3 ADD MSTORE PUSH1 0x64 SWAP1 REVERT JUMPDEST SWAP1 SWAP3 POP DUP5 DUP2 DUP2 RETURNDATASIZE DUP4 GT PUSH2 0x38F JUMPI JUMPDEST PUSH2 0x37B DUP2 DUP4 PUSH2 0x117C JUMP JUMPDEST DUP2 ADD SUB SLT PUSH2 0x38B JUMPI MLOAD SWAP2 CODESIZE PUSH2 0x265 JUMP JUMPDEST DUP7 DUP1 REVERT JUMPDEST POP RETURNDATASIZE PUSH2 0x371 JUMP JUMPDEST DUP5 MLOAD RETURNDATASIZE DUP10 DUP3 RETURNDATACOPY RETURNDATASIZE SWAP1 REVERT JUMPDEST SWAP1 POP DUP3 CALLVALUE PUSH2 0x408 JUMPI DUP1 PUSH1 0x3 NOT CALLDATASIZE ADD SLT PUSH2 0x408 JUMPI POP PUSH1 0x2 SLOAD PUSH1 0x3 SLOAD SWAP2 SLOAD PUSH1 0x5 SLOAD PUSH1 0x6 SLOAD PUSH1 0x7 SLOAD SWAP6 MLOAD SWAP4 DUP5 MSTORE PUSH1 0x20 DUP5 ADD SWAP5 SWAP1 SWAP5 MSTORE PUSH1 0x40 DUP4 ADD SWAP2 SWAP1 SWAP2 MSTORE PUSH1 0x60 DUP3 ADD MSTORE PUSH1 0x80 DUP2 ADD SWAP2 SWAP1 SWAP2 MSTORE PUSH1 0xFF DUP1 DUP4 AND ISZERO ISZERO PUSH1 0xA0 DUP4 ADD MSTORE PUSH1 0x8 SWAP3 SWAP1 SWAP3 SHR SWAP1 SWAP2 AND ISZERO ISZERO PUSH1 0xC0 DUP3 ADD MSTORE PUSH1 0xE0 SWAP1 RETURN JUMPDEST DUP1 REVERT JUMPDEST SWAP1 POP DUP3 CALLVALUE PUSH2 0x408 JUMPI PUSH1 0x20 CALLDATASIZE PUSH1 0x3 NOT ADD SLT PUSH2 0x408 JUMPI DUP2 CALLDATALOAD SWAP1 PUSH8 0xFFFFFFFFFFFFFFFF DUP3 GT PUSH2 0x408 JUMPI POP PUSH2 0x444 PUSH2 0x1CB SWAP3 PUSH1 0x20 SWAP3 CALLDATASIZE SWAP2 ADD PUSH2 0xF7A JUMP JUMPDEST SWAP2 SWAP1 DUP3 DUP6 MLOAD SWAP4 DUP5 SWAP3 DUP4 CALLDATACOPY DUP2 ADD PUSH1 0x9 DUP2 MSTORE SUB ADD SWAP1 KECCAK256 PUSH2 0x1899 JUMP JUMPDEST SWAP2 SWAP1 POP CALLVALUE PUSH2 0x18D JUMPI PUSH1 0x20 DUP1 PUSH1 0x3 NOT CALLDATASIZE ADD SLT PUSH2 0x554 JUMPI DUP3 CALLDATALOAD SWAP3 PUSH2 0x483 PUSH1 0xFF PUSH1 0x7 SLOAD AND PUSH2 0xFAD JUMP JUMPDEST PUSH2 0x491 PUSH1 0x2 SLOAD TIMESTAMP LT ISZERO PUSH2 0xFED JUMP JUMPDEST PUSH2 0x49F PUSH1 0x3 SLOAD TIMESTAMP GT ISZERO PUSH2 0x102F JUMP JUMPDEST CALLER DUP6 MSTORE PUSH1 0x8 DUP3 MSTORE DUP3 DUP6 KECCAK256 SLOAD ISZERO PUSH2 0x51F JUMPI POP SWAP1 PUSH32 0xB7F20D0949B6A8BC59D005AF4A52F7FF5D0CFCDE9056FA556ADB0E4B24DCB6D2 SWAP2 CALLER DUP6 MSTORE PUSH1 0x8 DUP2 MSTORE PUSH2 0x4ED PUSH1 0xFF PUSH1 0x1 DUP5 DUP9 KECCAK256 ADD SLOAD AND ISZERO PUSH2 0x184D JUMP JUMPDEST CALLER DUP6 MSTORE PUSH1 0x8 DUP2 MSTORE DUP2 DUP6 KECCAK256 DUP5 DUP2 SSTORE PUSH1 0x1 DUP2 ADD PUSH1 0x1 PUSH1 0xFF NOT DUP3 SLOAD AND OR SWAP1 SSTORE PUSH1 0x2 TIMESTAMP SWAP2 ADD SSTORE DUP2 MLOAD SWAP4 DUP5 MSTORE TIMESTAMP SWAP1 DUP5 ADD MSTORE CALLER SWAP3 LOG2 DUP1 RETURN JUMPDEST SWAP2 MLOAD PUSH3 0x461BCD PUSH1 0xE5 SHL DUP2 MSTORE SWAP2 DUP3 ADD MSTORE PUSH1 0x11 PUSH1 0x24 DUP3 ADD MSTORE PUSH17 0x141B185E595C881B9BDD081A9BDA5B9959 PUSH1 0x7A SHL PUSH1 0x44 DUP3 ADD MSTORE PUSH1 0x64 SWAP1 REVERT JUMPDEST DUP4 DUP1 REVERT JUMPDEST DUP4 DUP4 CALLVALUE PUSH2 0xF1 JUMPI DUP2 PUSH1 0x3 NOT CALLDATASIZE ADD SLT PUSH2 0xF1 JUMPI PUSH2 0x572 PUSH2 0x18F2 JUMP JUMPDEST PUSH2 0x580 PUSH1 0xFF PUSH1 0x7 SLOAD AND PUSH2 0xFAD JUMP JUMPDEST PUSH2 0x58E PUSH1 0x2 SLOAD TIMESTAMP LT ISZERO PUSH2 0xFED JUMP JUMPDEST PUSH2 0x59C PUSH1 0x3 SLOAD TIMESTAMP GT ISZERO PUSH2 0x102F JUMP JUMPDEST CALLER DUP3 MSTORE PUSH1 0x20 PUSH1 0x8 DUP2 MSTORE DUP2 DUP4 KECCAK256 SLOAD PUSH2 0x76D JUMPI DUP2 MLOAD PUSH4 0x23B872DD PUSH1 0xE0 SHL DUP2 MSTORE CALLER DUP6 DUP3 ADD MSTORE ADDRESS PUSH1 0x24 DUP3 ADD MSTORE PUSH3 0xF4240 PUSH1 0x44 DUP3 ADD DUP2 SWAP1 MSTORE SWAP3 SWAP1 PUSH1 0x1 PUSH1 0x1 PUSH1 0xA0 SHL SUB SWAP1 DUP4 DUP2 PUSH1 0x64 DUP2 DUP10 PUSH32 0x0 DUP8 AND GAS CALL SWAP1 DUP2 ISZERO PUSH2 0x763 JUMPI DUP7 SWAP2 PUSH2 0x746 JUMPI JUMPDEST POP ISZERO PUSH2 0x70C JUMPI DUP6 SLOAD DUP5 DUP2 ADD DUP1 SWAP2 GT PUSH2 0x6F9 JUMPI DUP7 SSTORE PUSH2 0x632 PUSH1 0x5 SLOAD PUSH2 0x106B JUMP JUMPDEST PUSH1 0x5 SSTORE PUSH1 0xA SLOAD PUSH1 0x1 PUSH1 0x40 SHL DUP2 LT ISZERO PUSH2 0x6E6 JUMPI SWAP1 PUSH2 0x678 DUP3 PUSH1 0x1 PUSH32 0x3330A6773675F31F62070870F40379F8C6D42E3761410011A4DFC42B18043D2F SWAP7 SWAP6 SWAP5 ADD PUSH1 0xA SSTORE PUSH2 0x1090 JUMP JUMPDEST DUP2 SWAP3 SWAP2 SLOAD SWAP1 PUSH1 0x3 SHL SWAP2 CALLER DUP4 SHL SWAP3 SHL NOT AND OR SWAP1 SSTORE PUSH2 0x6D8 DUP2 MLOAD PUSH2 0x699 DUP2 PUSH2 0x112E JUMP JUMPDEST DUP7 DUP2 MSTORE DUP7 DUP5 DUP3 ADD MSTORE DUP7 DUP4 DUP3 ADD MSTORE CALLER DUP8 MSTORE PUSH1 0x8 DUP5 MSTORE DUP3 DUP8 KECCAK256 SWAP1 PUSH1 0x40 PUSH1 0x2 SWAP2 DUP1 MLOAD DUP5 SSTORE PUSH1 0x1 DUP5 ADD PUSH1 0x20 DUP3 ADD MLOAD ISZERO ISZERO PUSH1 0xFF DUP1 NOT DUP4 SLOAD AND SWAP2 AND OR SWAP1 SSTORE ADD MLOAD SWAP2 ADD SSTORE JUMP JUMPDEST MLOAD SWAP3 DUP4 MSTORE CALLER SWAP3 LOG2 PUSH1 0x1 DUP2 SSTORE DUP1 RETURN JUMPDEST PUSH4 0x4E487B71 PUSH1 0xE0 SHL DUP7 MSTORE PUSH1 0x41 DUP8 MSTORE PUSH1 0x24 DUP7 REVERT JUMPDEST PUSH4 0x4E487B71 PUSH1 0xE0 SHL DUP7 MSTORE PUSH1 0x11 DUP8 MSTORE PUSH1 0x24 DUP7 REVERT JUMPDEST DUP2 MLOAD PUSH3 0x461BCD PUSH1 0xE5 SHL DUP2 MSTORE DUP1 DUP8 ADD DUP5 SWAP1 MSTORE PUSH1 0x14 PUSH1 0x24 DUP3 ADD MSTORE PUSH20 0x1554D110C81D1C985B9CD9995C8819985A5B1959 PUSH1 0x62 SHL PUSH1 0x44 DUP3 ADD MSTORE PUSH1 0x64 SWAP1 REVERT JUMPDEST PUSH2 0x75D SWAP2 POP DUP5 RETURNDATASIZE DUP7 GT PUSH2 0x319 JUMPI PUSH2 0x30B DUP2 DUP4 PUSH2 0x117C JUMP JUMPDEST DUP8 PUSH2 0x613 JUMP JUMPDEST DUP4 MLOAD RETURNDATASIZE DUP9 DUP3 RETURNDATACOPY RETURNDATASIZE SWAP1 REVERT JUMPDEST DUP4 SWAP1 PUSH1 0x64 SWAP3 MLOAD SWAP2 PUSH3 0x461BCD PUSH1 0xE5 SHL DUP4 MSTORE DUP3 ADD MSTORE PUSH1 0xE PUSH1 0x24 DUP3 ADD MSTORE PUSH14 0x105B1C9958591E481A9BDA5B9959 PUSH1 0x92 SHL PUSH1 0x44 DUP3 ADD MSTORE REVERT JUMPDEST DUP4 SWAP2 POP CALLVALUE PUSH2 0xF1 JUMPI DUP3 PUSH1 0x3 NOT CALLDATASIZE ADD SLT PUSH2 0xF1 JUMPI DUP1 CALLDATALOAD PUSH8 0xFFFFFFFFFFFFFFFF DUP2 GT PUSH2 0x18D JUMPI PUSH2 0x7D1 SWAP1 CALLDATASIZE SWAP1 DUP4 ADD PUSH2 0xF7A JUMP JUMPDEST PUSH1 0x24 SWAP5 SWAP2 SWAP5 CALLDATALOAD SWAP1 PUSH2 0x7E6 PUSH1 0xFF PUSH1 0x7 SLOAD AND PUSH2 0xFAD JUMP JUMPDEST PUSH2 0x7F4 PUSH1 0x2 SLOAD TIMESTAMP LT ISZERO PUSH2 0xFED JUMP JUMPDEST PUSH2 0x802 PUSH1 0x3 SLOAD TIMESTAMP GT ISZERO PUSH2 0x102F JUMP JUMPDEST DUP3 MLOAD SWAP4 DUP2 DUP8 DUP7 CALLDATACOPY DUP5 DUP3 DUP2 ADD PUSH1 0x9 DUP2 MSTORE PUSH1 0x20 SWAP7 DUP8 SWAP2 SUB ADD SWAP1 KECCAK256 SLOAD ISZERO PUSH2 0x8D7 JUMPI POP PUSH32 0xBD6CA4B35A8166766CBD9F87F743EDB98A23E3033EE5995DBE8F750279DB9AAE SWAP4 SWAP5 SWAP6 PUSH2 0x868 PUSH1 0xFF PUSH1 0x1 DUP7 MLOAD DUP6 DUP6 DUP3 CALLDATACOPY DUP10 DUP2 DUP8 DUP2 ADD PUSH1 0x9 DUP2 MSTORE SUB ADD SWAP1 KECCAK256 ADD SLOAD AND ISZERO PUSH2 0x184D JUMP JUMPDEST DUP3 DUP5 MLOAD DUP4 DUP4 DUP3 CALLDATACOPY DUP8 DUP2 DUP6 DUP2 ADD PUSH1 0x9 DUP2 MSTORE SUB ADD SWAP1 KECCAK256 SSTORE PUSH1 0x1 DUP5 MLOAD DUP4 DUP4 DUP3 CALLDATACOPY DUP8 DUP2 DUP6 DUP2 ADD PUSH1 0x9 DUP2 MSTORE SUB ADD SWAP1 KECCAK256 ADD PUSH1 0x1 PUSH1 0xFF NOT DUP3 SLOAD AND OR SWAP1 SSTORE DUP4 MLOAD DUP3 DUP3 DUP3 CALLDATACOPY PUSH1 0x2 DUP4 DUP3 ADD SWAP2 PUSH1 0x9 DUP4 MSTORE DUP9 DUP2 TIMESTAMP SWAP5 SUB ADD SWAP1 KECCAK256 ADD SSTORE DUP2 DUP5 MLOAD SWAP3 DUP4 SWAP3 DUP4 CALLDATACOPY DUP2 ADD DUP8 DUP2 MSTORE SUB SWAP1 KECCAK256 SWAP4 DUP3 MLOAD SWAP2 DUP3 MSTORE TIMESTAMP SWAP1 DUP3 ADD MSTORE LOG2 DUP1 RETURN JUMPDEST DUP4 MLOAD PUSH3 0x461BCD PUSH1 0xE5 SHL DUP2 MSTORE SWAP1 DUP2 ADD DUP6 SWAP1 MSTORE PUSH1 0x17 PUSH1 0x24 DUP3 ADD MSTORE PUSH32 0x547269616C20706C61796572206E6F74206A6F696E6564000000000000000000 PUSH1 0x44 DUP3 ADD MSTORE PUSH1 0x64 SWAP1 REVERT JUMPDEST POP POP CALLVALUE PUSH2 0xF1 JUMPI DUP2 PUSH1 0x3 NOT CALLDATASIZE ADD SLT PUSH2 0xF1 JUMPI PUSH1 0x1 SLOAD SWAP1 MLOAD PUSH1 0x1 PUSH1 0x1 PUSH1 0xA0 SHL SUB SWAP1 SWAP2 AND DUP2 MSTORE PUSH1 0x20 SWAP1 RETURN JUMPDEST SWAP2 SWAP1 POP CALLVALUE PUSH2 0x18D JUMPI DUP3 PUSH1 0x3 NOT CALLDATASIZE ADD SLT PUSH2 0x18D JUMPI PUSH2 0x95E PUSH2 0x18C6 JUMP JUMPDEST PUSH1 0xFF PUSH1 0x7 SLOAD AND ISZERO DUP1 ISZERO PUSH2 0x9C3 JUMPI JUMPDEST ISZERO PUSH2 0x989 JUMPI DUP3 PUSH2 0x97A PUSH2 0x18F2 JUMP JUMPDEST PUSH2 0x982 PUSH2 0x11E2 JUMP JUMPDEST PUSH1 0x1 DUP2 SSTORE DUP1 RETURN JUMPDEST SWAP1 PUSH1 0x20 PUSH1 0x64 SWAP3 MLOAD SWAP2 PUSH3 0x461BCD PUSH1 0xE5 SHL DUP4 MSTORE DUP3 ADD MSTORE PUSH1 0x14 PUSH1 0x24 DUP3 ADD MSTORE PUSH20 0x53657373696F6E207374696C6C20616374697665 PUSH1 0x60 SHL PUSH1 0x44 DUP3 ADD MSTORE REVERT JUMPDEST POP PUSH1 0x3 SLOAD TIMESTAMP GT PUSH2 0x96C JUMP JUMPDEST DUP4 DUP4 CALLVALUE PUSH2 0xF1 JUMPI PUSH1 0x20 DUP1 PUSH1 0x3 NOT CALLDATASIZE ADD SLT PUSH2 0x18D JUMPI DUP4 CALLDATALOAD SWAP1 PUSH2 0x9ED PUSH2 0x18C6 JUMP JUMPDEST PUSH1 0xFF PUSH1 0x7 SLOAD AND PUSH2 0xB9D JUMPI DUP2 ISZERO PUSH2 0xB67 JUMPI DUP4 PUSH1 0x2 SSTORE DUP4 PUSH1 0x3 SSTORE DUP4 DUP6 SSTORE PUSH1 0x5 DUP5 PUSH1 0x5 SSTORE DUP5 PUSH1 0x6 SSTORE DUP5 PUSH1 0x7 SSTORE PUSH1 0xA SLOAD DUP6 PUSH1 0xA SSTORE DUP1 PUSH2 0xB25 JUMPI JUMPDEST POP PUSH1 0xB SLOAD SWAP2 DUP6 PUSH1 0xB SSTORE DUP3 PUSH2 0xA9A JUMPI JUMPDEST POP POP POP TIMESTAMP PUSH1 0x2 SSTORE DUP1 TIMESTAMP ADD DUP1 TIMESTAMP GT PUSH2 0xA87 JUMPI PUSH32 0xCE6CBE3431D9EC9AC1A82A77A80BB9120B0250307AFB3ED08873EA84C52B70C0 SWAP4 SWAP5 POP PUSH1 0x3 SSTORE PUSH1 0x1 PUSH2 0xFFFF NOT PUSH1 0x7 SLOAD AND OR PUSH1 0x7 SSTORE DUP2 MLOAD SWAP1 TIMESTAMP DUP3 MSTORE PUSH1 0x20 DUP3 ADD MSTORE LOG1 DUP1 RETURN JUMPDEST PUSH4 0x4E487B71 PUSH1 0xE0 SHL DUP5 MSTORE PUSH1 0x11 DUP6 MSTORE PUSH1 0x24 DUP5 REVERT JUMPDEST PUSH1 0xB DUP7 MSTORE PUSH32 0x175B7A638427703F0DBE7BB9BBF987A2551717B34E79F33B5B1008D1FA01DB9 SWAP3 DUP4 ADD SWAP3 JUMPDEST DUP4 DUP2 LT PUSH2 0xAD1 JUMPI POP PUSH2 0xA32 JUMP JUMPDEST DUP1 DUP8 PUSH2 0xADF PUSH1 0x1 SWAP4 SLOAD PUSH2 0x10DD JUMP JUMPDEST DUP1 PUSH2 0xAED JUMPI JUMPDEST POP POP ADD PUSH2 0xAC4 JUMP JUMPDEST PUSH1 0x1F DUP1 DUP3 GT DUP6 EQ PUSH2 0xB04 JUMPI POP POP DUP2 SSTORE JUMPDEST DUP8 DUP11 PUSH2 0xAE5 JUMP JUMPDEST PUSH2 0xB1C SWAP1 DUP5 DUP5 MSTORE DUP7 DUP5 KECCAK256 SWAP3 ADD DUP8 SHR DUP3 ADD DUP6 DUP4 ADD PUSH2 0x1117 JUMP JUMPDEST DUP2 DUP4 SSTORE SSTORE PUSH2 0xAFD JUMP JUMPDEST PUSH1 0xA DUP7 MSTORE PUSH32 0xC65A7BB8D6351C1CF70C95A316CC6A92839C986682D98BC35F958F4883F9D2A8 SWAP1 DUP2 ADD SWAP1 JUMPDEST DUP2 DUP2 LT PUSH2 0xB5C JUMPI POP PUSH2 0xA23 JUMP JUMPDEST DUP7 DUP2 SSTORE PUSH1 0x1 ADD PUSH2 0xB4F JUMP JUMPDEST DUP3 MLOAD PUSH3 0x461BCD PUSH1 0xE5 SHL DUP2 MSTORE PUSH1 0x20 DUP2 DUP8 ADD MSTORE PUSH1 0x10 PUSH1 0x24 DUP3 ADD MSTORE PUSH16 0x24B73B30B634B210323AB930BA34B7B7 PUSH1 0x81 SHL PUSH1 0x44 DUP3 ADD MSTORE PUSH1 0x64 SWAP1 REVERT JUMPDEST DUP3 MLOAD PUSH3 0x461BCD PUSH1 0xE5 SHL DUP2 MSTORE PUSH1 0x20 DUP2 DUP8 ADD MSTORE PUSH1 0x16 PUSH1 0x24 DUP3 ADD MSTORE PUSH22 0x53657373696F6E20616C726561647920616374697665 PUSH1 0x50 SHL PUSH1 0x44 DUP3 ADD MSTORE PUSH1 0x64 SWAP1 REVERT JUMPDEST DUP4 CALLVALUE PUSH2 0x408 JUMPI DUP1 PUSH1 0x3 NOT CALLDATASIZE ADD SLT PUSH2 0x408 JUMPI PUSH2 0xBF2 PUSH2 0x18C6 JUMP JUMPDEST PUSH1 0x1 DUP1 SLOAD PUSH1 0x1 PUSH1 0x1 PUSH1 0xA0 SHL SUB NOT DUP2 AND SWAP1 SWAP2 SSTORE DUP2 SWAP1 PUSH1 0x1 PUSH1 0x1 PUSH1 0xA0 SHL SUB AND PUSH32 0x8BE0079C531659141344CD1FD0A4F28419497F9722A3DAAFE3B4186F6B6457E0 DUP3 DUP1 LOG3 DUP1 RETURN JUMPDEST DUP4 DUP4 CALLVALUE PUSH2 0xF1 JUMPI PUSH1 0x20 SWAP1 DUP2 PUSH1 0x3 NOT CALLDATASIZE ADD SLT PUSH2 0x18D JUMPI PUSH8 0xFFFFFFFFFFFFFFFF SWAP1 DUP5 CALLDATALOAD DUP3 DUP2 GT PUSH2 0x189 JUMPI PUSH2 0xC6B SWAP1 CALLDATASIZE SWAP1 DUP8 ADD PUSH2 0xF7A JUMP JUMPDEST SWAP4 SWAP1 SWAP3 PUSH2 0xC7C PUSH1 0xFF PUSH1 0x7 SLOAD AND PUSH2 0xFAD JUMP JUMPDEST PUSH2 0xC8A PUSH1 0x2 SLOAD TIMESTAMP LT ISZERO PUSH2 0xFED JUMP JUMPDEST PUSH2 0xC98 PUSH1 0x3 SLOAD TIMESTAMP GT ISZERO PUSH2 0x102F JUMP JUMPDEST DUP5 ISZERO PUSH2 0xEFF JUMPI DUP3 MLOAD DUP6 DUP6 DUP3 CALLDATACOPY DUP3 DUP2 DUP8 DUP2 ADD PUSH1 0x9 DUP2 MSTORE SUB ADD SWAP1 KECCAK256 SLOAD PUSH2 0xEBC JUMPI PUSH2 0xCC1 PUSH1 0x6 SLOAD PUSH2 0x106B JUMP JUMPDEST PUSH1 0x6 SSTORE PUSH1 0xB SLOAD PUSH1 0x1 PUSH1 0x40 SHL DUP2 LT ISZERO PUSH2 0xE96 JUMPI PUSH1 0x1 SWAP1 PUSH1 0x1 DUP2 ADD DUP1 PUSH1 0xB SSTORE DUP2 LT ISZERO PUSH2 0xEA9 JUMPI PUSH1 0xB DUP9 MSTORE PUSH32 0x175B7A638427703F0DBE7BB9BBF987A2551717B34E79F33B5B1008D1FA01DB9 ADD SWAP2 DUP7 GT PUSH2 0xE96 JUMPI SWAP1 DUP6 SWAP4 SWAP3 SWAP2 PUSH2 0xD21 DUP3 SLOAD PUSH2 0x10DD JUMP JUMPDEST PUSH1 0x1F DUP2 GT PUSH2 0xE5D JUMPI JUMPDEST POP DUP8 SWAP1 PUSH1 0x1F DUP7 GT PUSH1 0x1 EQ PUSH2 0xDEF JUMPI POP SWAP1 DUP5 PUSH2 0xDAF SWAP4 SWAP3 DUP10 SWAP2 PUSH2 0xDE4 JUMPI JUMPDEST POP DUP6 PUSH1 0x1 SHL SWAP1 PUSH1 0x0 NOT DUP8 PUSH1 0x3 SHL SHR NOT AND OR SWAP1 SSTORE JUMPDEST DUP3 MLOAD SWAP1 PUSH2 0xD67 DUP3 PUSH2 0x112E JUMP JUMPDEST DUP8 DUP3 MSTORE DUP8 DUP2 DUP4 ADD MSTORE DUP8 DUP5 DUP4 ADD MSTORE DUP4 MLOAD SWAP1 DUP6 DUP8 DUP4 CALLDATACOPY DUP2 DUP7 DUP2 ADD PUSH1 0x9 DUP2 MSTORE SUB ADD SWAP1 KECCAK256 SWAP1 PUSH1 0x40 PUSH1 0x2 SWAP2 DUP1 MLOAD DUP5 SSTORE PUSH1 0x1 DUP5 ADD PUSH1 0x20 DUP3 ADD MLOAD ISZERO ISZERO PUSH1 0xFF DUP1 NOT DUP4 SLOAD AND SWAP2 AND OR SWAP1 SSTORE ADD MLOAD SWAP2 ADD SSTORE JUMP JUMPDEST MLOAD SWAP3 DUP4 SWAP3 DUP4 CALLDATACOPY DUP2 ADD DUP4 DUP2 MSTORE SUB SWAP1 KECCAK256 PUSH32 0x93A1DFBF47C62F8886F8594F34973102DA8B27CE9A0206226A3957BD9EE777D7 DUP3 DUP1 LOG2 DUP1 RETURN JUMPDEST SWAP1 POP DUP7 ADD CALLDATALOAD DUP10 PUSH2 0xD47 JUMP JUMPDEST DUP3 DUP10 MSTORE DUP4 DUP10 KECCAK256 PUSH1 0x1F NOT DUP8 AND SWAP7 SWAP6 SWAP5 SWAP4 SWAP3 SWAP1 SWAP2 DUP11 SWAP1 JUMPDEST DUP9 DUP3 LT PUSH2 0xE43 JUMPI POP POP DUP6 PUSH2 0xDAF SWAP6 SWAP7 SWAP8 LT PUSH2 0xE29 JUMPI JUMPDEST POP POP PUSH1 0x1 DUP6 DUP2 SHL ADD SWAP1 SSTORE PUSH2 0xD5B JUMP JUMPDEST DUP8 ADD CALLDATALOAD PUSH1 0x0 NOT PUSH1 0x3 DUP9 SWAP1 SHL PUSH1 0xF8 AND SHR NOT AND SWAP1 SSTORE DUP9 DUP1 PUSH2 0xE1A JUMP JUMPDEST DUP10 DUP4 ADD CALLDATALOAD DUP5 SSTORE DUP11 SWAP8 POP SWAP3 DUP4 ADD SWAP3 SWAP2 DUP6 ADD SWAP2 SWAP1 DUP6 ADD SWAP1 PUSH2 0xE04 JUMP JUMPDEST PUSH2 0xE86 SWAP1 DUP4 DUP11 MSTORE DUP5 DUP11 KECCAK256 PUSH1 0x1F DUP9 ADD PUSH1 0x5 SHR DUP2 ADD SWAP2 DUP7 DUP10 LT PUSH2 0xE8C JUMPI JUMPDEST PUSH1 0x1F ADD PUSH1 0x5 SHR ADD SWAP1 PUSH2 0x1117 JUMP JUMPDEST DUP9 PUSH2 0xD2A JUMP JUMPDEST SWAP1 SWAP2 POP DUP2 SWAP1 PUSH2 0xE79 JUMP JUMPDEST PUSH4 0x4E487B71 PUSH1 0xE0 SHL DUP8 MSTORE PUSH1 0x41 DUP9 MSTORE PUSH1 0x24 DUP8 REVERT JUMPDEST PUSH4 0x4E487B71 PUSH1 0xE0 SHL DUP9 MSTORE PUSH1 0x32 DUP10 MSTORE PUSH1 0x24 DUP9 REVERT JUMPDEST DUP3 MLOAD PUSH3 0x461BCD PUSH1 0xE5 SHL DUP2 MSTORE DUP1 DUP9 ADD DUP4 SWAP1 MSTORE PUSH1 0x17 PUSH1 0x24 DUP3 ADD MSTORE PUSH32 0x53657373696F6E20494420616C72656164792075736564000000000000000000 PUSH1 0x44 DUP3 ADD MSTORE PUSH1 0x64 SWAP1 REVERT JUMPDEST DUP3 MLOAD PUSH3 0x461BCD PUSH1 0xE5 SHL DUP2 MSTORE DUP1 DUP9 ADD DUP4 SWAP1 MSTORE PUSH1 0x12 PUSH1 0x24 DUP3 ADD MSTORE PUSH18 0x125B9D985B1A59081CD95CDCDA5BDB881251 PUSH1 0x72 SHL PUSH1 0x44 DUP3 ADD MSTORE PUSH1 0x64 SWAP1 REVERT JUMPDEST DUP5 SWAP1 CALLVALUE PUSH2 0xF1 JUMPI DUP2 PUSH1 0x3 NOT CALLDATASIZE ADD SLT PUSH2 0xF1 JUMPI PUSH32 0x0 PUSH1 0x1 PUSH1 0x1 PUSH1 0xA0 SHL SUB AND DUP2 MSTORE PUSH1 0x20 SWAP1 RETURN JUMPDEST SWAP2 DUP2 PUSH1 0x1F DUP5 ADD SLT ISZERO PUSH2 0xFA8 JUMPI DUP3 CALLDATALOAD SWAP2 PUSH8 0xFFFFFFFFFFFFFFFF DUP4 GT PUSH2 0xFA8 JUMPI PUSH1 0x20 DUP4 DUP2 DUP7 ADD SWAP6 ADD ADD GT PUSH2 0xFA8 JUMPI JUMP JUMPDEST PUSH1 0x0 DUP1 REVERT JUMPDEST ISZERO PUSH2 0xFB4 JUMPI JUMP JUMPDEST PUSH1 0x40 MLOAD PUSH3 0x461BCD PUSH1 0xE5 SHL DUP2 MSTORE PUSH1 0x20 PUSH1 0x4 DUP3 ADD MSTORE PUSH1 0x11 PUSH1 0x24 DUP3 ADD MSTORE PUSH17 0x27379030B1BA34BB329039B2B9B9B4B7B7 PUSH1 0x79 SHL PUSH1 0x44 DUP3 ADD MSTORE PUSH1 0x64 SWAP1 REVERT JUMPDEST ISZERO PUSH2 0xFF4 JUMPI JUMP JUMPDEST PUSH1 0x40 MLOAD PUSH3 0x461BCD PUSH1 0xE5 SHL DUP2 MSTORE PUSH1 0x20 PUSH1 0x4 DUP3 ADD MSTORE PUSH1 0x13 PUSH1 0x24 DUP3 ADD MSTORE PUSH19 0x14D95CDCDA5BDB881B9BDD081CDD185C9D1959 PUSH1 0x6A SHL PUSH1 0x44 DUP3 ADD MSTORE PUSH1 0x64 SWAP1 REVERT JUMPDEST ISZERO PUSH2 0x1036 JUMPI JUMP JUMPDEST PUSH1 0x40 MLOAD PUSH3 0x461BCD PUSH1 0xE5 SHL DUP2 MSTORE PUSH1 0x20 PUSH1 0x4 DUP3 ADD MSTORE PUSH1 0xD PUSH1 0x24 DUP3 ADD MSTORE PUSH13 0x14D95CDCDA5BDB88195B991959 PUSH1 0x9A SHL PUSH1 0x44 DUP3 ADD MSTORE PUSH1 0x64 SWAP1 REVERT JUMPDEST PUSH1 0x0 NOT DUP2 EQ PUSH2 0x107A JUMPI PUSH1 0x1 ADD SWAP1 JUMP JUMPDEST PUSH4 0x4E487B71 PUSH1 0xE0 SHL PUSH1 0x0 MSTORE PUSH1 0x11 PUSH1 0x4 MSTORE PUSH1 0x24 PUSH1 0x0 REVERT JUMPDEST PUSH1 0xA SLOAD DUP2 LT ISZERO PUSH2 0x10C7 JUMPI PUSH1 0xA PUSH1 0x0 MSTORE PUSH32 0xC65A7BB8D6351C1CF70C95A316CC6A92839C986682D98BC35F958F4883F9D2A8 ADD SWAP1 PUSH1 0x0 SWAP1 JUMP JUMPDEST PUSH4 0x4E487B71 PUSH1 0xE0 SHL PUSH1 0x0 MSTORE PUSH1 0x32 PUSH1 0x4 MSTORE PUSH1 0x24 PUSH1 0x0 REVERT JUMPDEST SWAP1 PUSH1 0x1 DUP3 DUP2 SHR SWAP3 AND DUP1 ISZERO PUSH2 0x110D JUMPI JUMPDEST PUSH1 0x20 DUP4 LT EQ PUSH2 0x10F7 JUMPI JUMP JUMPDEST PUSH4 0x4E487B71 PUSH1 0xE0 SHL PUSH1 0x0 MSTORE PUSH1 0x22 PUSH1 0x4 MSTORE PUSH1 0x24 PUSH1 0x0 REVERT JUMPDEST SWAP2 PUSH1 0x7F AND SWAP2 PUSH2 0x10EC JUMP JUMPDEST DUP2 DUP2 LT PUSH2 0x1122 JUMPI POP POP JUMP JUMPDEST PUSH1 0x0 DUP2 SSTORE PUSH1 0x1 ADD PUSH2 0x1117 JUMP JUMPDEST PUSH1 0x60 DUP2 ADD SWAP1 DUP2 LT PUSH8 0xFFFFFFFFFFFFFFFF DUP3 GT OR PUSH2 0x114A JUMPI PUSH1 0x40 MSTORE JUMP JUMPDEST PUSH4 0x4E487B71 PUSH1 0xE0 SHL PUSH1 0x0 MSTORE PUSH1 0x41 PUSH1 0x4 MSTORE PUSH1 0x24 PUSH1 0x0 REVERT JUMPDEST PUSH1 0x40 DUP2 ADD SWAP1 DUP2 LT PUSH8 0xFFFFFFFFFFFFFFFF DUP3 GT OR PUSH2 0x114A JUMPI PUSH1 0x40 MSTORE JUMP JUMPDEST SWAP1 PUSH1 0x1F DUP1 NOT SWAP2 ADD AND DUP2 ADD SWAP1 DUP2 LT PUSH8 0xFFFFFFFFFFFFFFFF DUP3 GT OR PUSH2 0x114A JUMPI PUSH1 0x40 MSTORE JUMP JUMPDEST PUSH8 0xFFFFFFFFFFFFFFFF DUP2 GT PUSH2 0x114A JUMPI PUSH1 0x5 SHL PUSH1 0x20 ADD SWAP1 JUMP JUMPDEST DUP1 MLOAD DUP3 LT ISZERO PUSH2 0x10C7 JUMPI PUSH1 0x20 SWAP2 PUSH1 0x5 SHL ADD ADD SWAP1 JUMP JUMPDEST SWAP1 DUP2 PUSH1 0x20 SWAP2 SUB SLT PUSH2 0xFA8 JUMPI MLOAD DUP1 ISZERO ISZERO DUP2 SUB PUSH2 0xFA8 JUMPI SWAP1 JUMP JUMPDEST PUSH1 0x7 SLOAD SWAP1 PUSH1 0x8 SWAP1 PUSH1 0xFF DUP4 DUP4 SHR DUP2 AND PUSH2 0x1808 JUMPI PUSH1 0x4 SLOAD DUP1 ISZERO PUSH2 0x17D3 JUMPI PUSH1 0xA SLOAD SWAP5 PUSH2 0x120A DUP7 PUSH2 0x119E JUMP JUMPDEST SWAP6 PUSH2 0x1218 PUSH1 0x40 MLOAD SWAP8 DUP9 PUSH2 0x117C JUMP JUMPDEST DUP1 DUP8 MSTORE PUSH1 0x1F NOT SWAP6 DUP7 PUSH2 0x1229 DUP4 PUSH2 0x119E JUMP JUMPDEST ADD PUSH1 0x0 JUMPDEST DUP2 DUP2 LT PUSH2 0x17AE JUMPI POP POP PUSH1 0x0 SWAP5 DUP6 JUMPDEST DUP4 DUP2 LT PUSH2 0x172C JUMPI POP POP POP POP DUP3 ISZERO PUSH2 0x16ED JUMPI POP PUSH1 0x0 SWAP4 SWAP3 SWAP4 SWAP3 JUMPDEST PUSH1 0x0 NOT SWAP5 DUP4 DUP7 ADD DUP5 DUP2 GT PUSH2 0x107A JUMPI DUP6 LT ISZERO PUSH2 0x1318 JUMPI PUSH1 0x0 JUMPDEST DUP6 DUP6 SUB DUP6 DUP2 GT PUSH2 0x107A JUMPI DUP8 DUP2 ADD SWAP1 DUP2 GT PUSH2 0x107A JUMPI DUP2 LT ISZERO PUSH2 0x130A JUMPI PUSH1 0x20 SWAP1 DUP2 PUSH2 0x1295 DUP3 DUP12 PUSH2 0x11B6 JUMP JUMPDEST MLOAD ADD MLOAD PUSH1 0x1 DUP3 ADD SWAP1 DUP2 DUP4 GT PUSH2 0x107A JUMPI PUSH1 0x1 SWAP4 PUSH2 0x12B1 DUP4 DUP14 PUSH2 0x11B6 JUMP JUMPDEST MLOAD ADD MLOAD GT PUSH2 0x12C1 JUMPI JUMPDEST POP ADD PUSH2 0x126C JUMP JUMPDEST PUSH2 0x1303 SWAP1 PUSH2 0x12CF DUP4 DUP13 PUSH2 0x11B6 JUMP JUMPDEST MLOAD DUP12 PUSH2 0x12E6 DUP6 PUSH2 0x12DF DUP6 DUP5 PUSH2 0x11B6 JUMP JUMPDEST MLOAD SWAP3 PUSH2 0x11B6 JUMP JUMPDEST MSTORE PUSH2 0x12F1 DUP5 DUP14 PUSH2 0x11B6 JUMP JUMPDEST POP PUSH2 0x12FC DUP3 DUP14 PUSH2 0x11B6 JUMP JUMPDEST MSTORE DUP11 PUSH2 0x11B6 JUMP JUMPDEST POP CODESIZE PUSH2 0x12BA JUMP JUMPDEST POP SWAP5 POP PUSH1 0x1 SWAP1 SWAP4 ADD SWAP3 PUSH2 0x1254 JUMP JUMPDEST SWAP5 POP SWAP3 POP SWAP4 SWAP1 PUSH1 0x32 DUP6 MUL SWAP5 DUP1 DUP7 DIV PUSH1 0x32 SUB PUSH2 0x107A JUMPI PUSH1 0x64 SWAP6 PUSH1 0x1E DUP3 MUL DUP3 DUP2 DIV PUSH1 0x1E SUB PUSH2 0x107A JUMPI PUSH1 0xF DUP4 MUL DUP4 DUP2 DIV PUSH1 0xF SUB PUSH2 0x107A JUMPI PUSH1 0x5 DUP5 MUL SWAP4 DUP5 DIV PUSH1 0x5 SUB PUSH2 0x107A JUMPI PUSH2 0x1368 DUP6 SWAP10 SWAP9 SWAP8 SWAP7 SWAP6 PUSH2 0x119E JUMP JUMPDEST SWAP4 PUSH2 0x1376 PUSH1 0x40 MLOAD SWAP6 DUP7 PUSH2 0x117C JUMP JUMPDEST DUP10 DUP6 MSTORE DUP7 PUSH2 0x1383 DUP12 PUSH2 0x119E JUMP JUMPDEST ADD CALLDATASIZE PUSH1 0x20 DUP8 ADD CALLDATACOPY PUSH2 0x1393 DUP11 PUSH2 0x119E JUMP JUMPDEST SWAP7 PUSH2 0x13A1 PUSH1 0x40 MLOAD SWAP9 DUP10 PUSH2 0x117C JUMP JUMPDEST DUP11 DUP9 MSTORE PUSH2 0x13AD DUP12 PUSH2 0x119E JUMP JUMPDEST ADD CALLDATASIZE PUSH1 0x20 DUP10 ADD CALLDATACOPY PUSH1 0x0 SWAP10 PUSH1 0x0 JUMPDEST DUP2 DUP2 LT DUP1 PUSH2 0x16E3 JUMPI JUMPDEST ISZERO PUSH2 0x15ED JUMPI PUSH1 0x0 DUP2 PUSH2 0x1531 JUMPI POP DUP7 DUP13 DUP1 DUP11 DUP13 SWAP14 SWAP15 SWAP16 PUSH1 0x64 DUP12 SWAP15 SWAP14 SWAP15 DIV SWAP13 PUSH2 0x1417 SWAP6 PUSH2 0x140B DUP16 SWAP6 PUSH2 0x1411 SWAP6 JUMPDEST PUSH1 0x1 PUSH1 0x1 PUSH1 0xA0 SHL SUB SWAP1 PUSH2 0x1402 SWAP1 DUP13 SWAP1 PUSH2 0x11B6 JUMP JUMPDEST MLOAD MLOAD AND SWAP3 PUSH2 0x11B6 JUMP JUMPDEST MSTORE PUSH2 0x11B6 JUMP JUMPDEST MSTORE PUSH2 0x106B JUMP JUMPDEST SWAP8 DUP1 PUSH2 0x1433 JUMPI JUMPDEST POP PUSH2 0x1428 SWAP1 PUSH2 0x106B JUMP JUMPDEST SWAP11 SWAP10 SWAP9 SWAP8 SWAP7 SWAP11 PUSH2 0x13BA JUMP JUMPDEST PUSH2 0x147F SWAP1 PUSH1 0x20 SWAP1 PUSH1 0x1 PUSH1 0x1 PUSH1 0xA0 SHL SUB PUSH2 0x144C DUP6 DUP15 PUSH2 0x11B6 JUMP JUMPDEST MLOAD MLOAD PUSH1 0x40 MLOAD PUSH4 0xA9059CBB PUSH1 0xE0 SHL DUP2 MSTORE SWAP2 AND PUSH1 0x1 PUSH1 0x1 PUSH1 0xA0 SHL SUB AND PUSH1 0x4 DUP3 ADD MSTORE PUSH1 0x24 DUP2 ADD SWAP2 SWAP1 SWAP2 MSTORE SWAP2 DUP3 SWAP1 DUP2 SWAP1 PUSH1 0x44 DUP3 ADD SWAP1 JUMP JUMPDEST SUB DUP2 PUSH1 0x0 PUSH32 0x0 PUSH1 0x1 PUSH1 0x1 PUSH1 0xA0 SHL SUB AND GAS CALL SWAP1 DUP2 ISZERO PUSH2 0x1525 JUMPI PUSH1 0x0 SWAP2 PUSH2 0x1506 JUMPI JUMPDEST POP ISZERO PUSH2 0x14CA JUMPI CODESIZE PUSH2 0x141E JUMP JUMPDEST PUSH1 0x40 MLOAD PUSH3 0x461BCD PUSH1 0xE5 SHL DUP2 MSTORE PUSH1 0x20 PUSH1 0x4 DUP3 ADD MSTORE PUSH1 0x15 PUSH1 0x24 DUP3 ADD MSTORE PUSH21 0x141C9A5E99481D1C985B9CD9995C8819985A5B1959 PUSH1 0x5A SHL PUSH1 0x44 DUP3 ADD MSTORE DUP13 SWAP1 REVERT JUMPDEST PUSH2 0x151F SWAP2 POP PUSH1 0x20 RETURNDATASIZE PUSH1 0x20 GT PUSH2 0x319 JUMPI PUSH2 0x30B DUP2 DUP4 PUSH2 0x117C JUMP JUMPDEST CODESIZE PUSH2 0x14BE JUMP JUMPDEST PUSH1 0x40 MLOAD RETURNDATASIZE PUSH1 0x0 DUP3 RETURNDATACOPY RETURNDATASIZE SWAP1 REVERT JUMPDEST PUSH1 0x1 DUP3 SUB PUSH2 0x155C JUMPI POP DUP7 DUP13 DUP1 DUP11 DUP13 SWAP14 SWAP15 SWAP16 PUSH1 0x64 DUP11 SWAP15 SWAP14 SWAP15 DIV SWAP13 PUSH2 0x1417 SWAP6 PUSH2 0x140B DUP16 SWAP6 PUSH2 0x1411 SWAP6 PUSH2 0x13EE JUMP JUMPDEST PUSH1 0x2 DUP3 SUB PUSH2 0x1587 JUMPI POP DUP7 DUP13 DUP1 DUP11 DUP13 SWAP14 SWAP15 SWAP16 PUSH1 0x64 DUP10 SWAP15 SWAP14 SWAP15 DIV SWAP13 PUSH2 0x1417 SWAP6 PUSH2 0x140B DUP16 SWAP6 PUSH2 0x1411 SWAP6 PUSH2 0x13EE JUMP JUMPDEST DUP3 PUSH1 0x2 NOT DUP2 ADD GT PUSH2 0x15D9 JUMPI PUSH1 0x2 NOT DUP4 ADD ISZERO PUSH2 0x15C5 JUMPI POP DUP7 DUP13 DUP1 DUP11 DUP13 SWAP14 SWAP15 SWAP16 PUSH1 0x2 SWAP14 SWAP13 SWAP14 NOT DUP8 ADD PUSH1 0x64 DUP10 DIV DIV SWAP13 PUSH2 0x1417 SWAP6 PUSH2 0x140B DUP16 SWAP6 PUSH2 0x1411 SWAP6 PUSH2 0x13EE JUMP JUMPDEST PUSH4 0x4E487B71 PUSH1 0xE0 SHL DUP2 MSTORE PUSH1 0x12 PUSH1 0x4 MSTORE PUSH1 0x24 SWAP1 REVERT JUMPDEST PUSH4 0x4E487B71 PUSH1 0xE0 SHL DUP2 MSTORE PUSH1 0x11 PUSH1 0x4 MSTORE PUSH1 0x24 SWAP1 REVERT JUMPDEST POP POP POP POP POP POP SWAP4 POP POP SWAP1 SWAP3 POP PUSH2 0x100 PUSH2 0xFFFF NOT PUSH1 0x7 SLOAD AND OR PUSH1 0x7 SSTORE PUSH1 0x2 SLOAD SWAP2 PUSH1 0x40 MLOAD SWAP3 PUSH1 0x60 DUP5 ADD SWAP1 DUP5 MSTORE PUSH1 0x60 PUSH1 0x20 DUP6 ADD MSTORE DUP2 MLOAD DUP1 SWAP2 MSTORE PUSH1 0x20 PUSH1 0x80 DUP6 ADD SWAP3 ADD SWAP1 PUSH1 0x0 JUMPDEST DUP2 DUP2 LT PUSH2 0x16C4 JUMPI POP POP POP DUP3 DUP2 SUB PUSH1 0x40 DUP5 ADD MSTORE PUSH1 0x20 DUP1 DUP4 MLOAD SWAP3 DUP4 DUP2 MSTORE ADD SWAP3 ADD SWAP1 PUSH1 0x0 JUMPDEST DUP2 DUP2 LT PUSH2 0x16AE JUMPI POP POP POP SWAP1 DUP1 PUSH32 0xEC92DCCF4A03653BC1A3D85019574BF62A659C47575779A889806684783B9E5C SWAP3 SUB SWAP1 LOG1 PUSH32 0x6FEC84C120BD2F6CA3672E03149381CB6BD1BF38D8442F598E8FA9820A53991E PUSH1 0x20 PUSH1 0x40 MLOAD TIMESTAMP DUP2 MSTORE LOG1 JUMP JUMPDEST DUP3 MLOAD DUP5 MSTORE PUSH1 0x20 SWAP4 DUP5 ADD SWAP4 SWAP1 SWAP3 ADD SWAP2 PUSH1 0x1 ADD PUSH2 0x1651 JUMP JUMPDEST DUP3 MLOAD PUSH1 0x1 PUSH1 0x1 PUSH1 0xA0 SHL SUB AND DUP5 MSTORE PUSH1 0x20 SWAP4 DUP5 ADD SWAP4 SWAP1 SWAP3 ADD SWAP2 PUSH1 0x1 ADD PUSH2 0x162F JUMP JUMPDEST POP PUSH1 0xA DUP2 LT PUSH2 0x13C3 JUMP JUMPDEST SWAP3 SWAP5 POP POP POP PUSH2 0x100 SWAP2 POP PUSH2 0xFFFF NOT AND OR PUSH1 0x7 SSTORE PUSH32 0x6FEC84C120BD2F6CA3672E03149381CB6BD1BF38D8442F598E8FA9820A53991E PUSH1 0x20 PUSH1 0x40 MLOAD TIMESTAMP DUP2 MSTORE LOG1 JUMP JUMPDEST PUSH2 0x1735 DUP2 PUSH2 0x1090 JUMP JUMPDEST PUSH1 0x1 DUP1 PUSH1 0xA0 SHL SUB SWAP2 SLOAD SWAP1 PUSH1 0x3 SHL SHR AND DUP1 PUSH1 0x0 MSTORE DUP11 PUSH1 0x20 DUP6 DUP2 MSTORE PUSH1 0x40 PUSH1 0x0 KECCAK256 DUP6 PUSH1 0x1 DUP3 ADD SLOAD AND PUSH2 0x176B JUMPI JUMPDEST POP POP POP POP PUSH1 0x1 ADD PUSH2 0x123B JUMP JUMPDEST DUP11 PUSH1 0x1 SWAP6 SWAP12 SWAP4 PUSH2 0x17A4 SWAP6 SWAP4 PUSH2 0x1793 SWAP4 SLOAD SWAP1 PUSH1 0x40 MLOAD SWAP6 PUSH2 0x1789 DUP8 PUSH2 0x1160 JUMP JUMPDEST DUP7 MSTORE DUP6 ADD MSTORE PUSH2 0x11B6 JUMP JUMPDEST MSTORE PUSH2 0x179E DUP2 DUP14 PUSH2 0x11B6 JUMP JUMPDEST POP PUSH2 0x106B JUMP JUMPDEST SWAP7 SWAP1 DUP11 CODESIZE DUP1 PUSH2 0x175F JUMP JUMPDEST PUSH1 0x20 SWAP1 PUSH1 0x40 MLOAD PUSH2 0x17BD DUP2 PUSH2 0x1160 JUMP JUMPDEST PUSH1 0x0 DUP2 MSTORE DUP3 PUSH1 0x0 DUP2 DUP4 ADD MSTORE DUP3 DUP14 ADD ADD MSTORE ADD PUSH2 0x122D JUMP JUMPDEST PUSH1 0x40 MLOAD PUSH3 0x461BCD PUSH1 0xE5 SHL DUP2 MSTORE PUSH1 0x20 PUSH1 0x4 DUP3 ADD MSTORE PUSH1 0xD PUSH1 0x24 DUP3 ADD MSTORE PUSH13 0x139BC81C1C9A5E99481C1BDBDB PUSH1 0x9A SHL PUSH1 0x44 DUP3 ADD MSTORE PUSH1 0x64 SWAP1 REVERT JUMPDEST PUSH1 0x40 MLOAD PUSH3 0x461BCD PUSH1 0xE5 SHL DUP2 MSTORE PUSH1 0x20 PUSH1 0x4 DUP3 ADD MSTORE PUSH1 0x1A PUSH1 0x24 DUP3 ADD MSTORE PUSH32 0x5072697A657320616C7265616479206469737472696275746564000000000000 PUSH1 0x44 DUP3 ADD MSTORE PUSH1 0x64 SWAP1 REVERT JUMPDEST ISZERO PUSH2 0x1854 JUMPI JUMP JUMPDEST PUSH1 0x40 MLOAD PUSH3 0x461BCD PUSH1 0xE5 SHL DUP2 MSTORE PUSH1 0x20 PUSH1 0x4 DUP3 ADD MSTORE PUSH1 0x17 PUSH1 0x24 DUP3 ADD MSTORE PUSH32 0x53636F726520616C7265616479207375626D6974746564000000000000000000 PUSH1 0x44 DUP3 ADD MSTORE PUSH1 0x64 SWAP1 REVERT JUMPDEST SWAP1 PUSH1 0x40 MLOAD PUSH2 0x18A6 DUP2 PUSH2 0x112E JUMP JUMPDEST PUSH1 0x40 PUSH1 0x2 DUP3 SWAP5 DUP1 SLOAD DUP5 MSTORE PUSH1 0xFF PUSH1 0x1 DUP3 ADD SLOAD AND ISZERO ISZERO PUSH1 0x20 DUP6 ADD MSTORE ADD SLOAD SWAP2 ADD MSTORE JUMP JUMPDEST PUSH1 0x1 SLOAD PUSH1 0x1 PUSH1 0x1 PUSH1 0xA0 SHL SUB AND CALLER SUB PUSH2 0x18DA JUMPI JUMP JUMPDEST PUSH1 0x40 MLOAD PUSH4 0x118CDAA7 PUSH1 0xE0 SHL DUP2 MSTORE CALLER PUSH1 0x4 DUP3 ADD MSTORE PUSH1 0x24 SWAP1 REVERT JUMPDEST PUSH1 0x2 PUSH1 0x0 SLOAD EQ PUSH2 0x1903 JUMPI PUSH1 0x2 PUSH1 0x0 SSTORE JUMP JUMPDEST PUSH1 0x40 MLOAD PUSH4 0x3EE5AEB5 PUSH1 0xE0 SHL DUP2 MSTORE PUSH1 0x4 SWAP1 REVERT INVALID LOG2 PUSH5 0x6970667358 0x22 SLT KECCAK256 SWAP9 0xED 0xD6 0x25 TSTORE 0xE5 SLOAD DELEGATECALL 0x28 KECCAK256 SELFBALANCE EXP PUSH29 0x680D934C42F86AE85432AD0470A06534874C1264736F6C634300081900 CALLER "},"methodIdentifiers":{"ENTRY_FEE()":"f6d361cc","currentSession()":"d4166763","distributePrizes()":"7ce52eb6","emergencyWithdraw()":"db2e21bc","getPlayerScore(address)":"e085c539","getSessionInfo()":"9463b1cd","getTrialPlayerScore(string)":"d082e23f","joinBattle()":"97794bf4","joinTrialBattle(string)":"264eab0e","owner()":"8da5cb5b","renounceOwnership()":"715018a6","startSession(uint256)":"77127612","submitScore(uint256)":"aff0b297","submitTrialScore(string,uint256)":"95607a95","transferOwnership(address)":"f2fde38b","usdcToken()":"11eac855"}}}}}