{"contracts/TriviaBattle.sol":{"TriviaBattle":{"abi":[{"inputs":[{"internalType":"address","name":"_usdcToken","type":"address"},{"internalType":"address","name":"_platformFeeRecipient","type":"address"}],"stateMutability":"nonpayable","type":"constructor"},{"inputs":[{"internalType":"address","name":"owner","type":"address"}],"name":"OwnableInvalidOwner","type":"error"},{"inputs":[{"internalType":"address","name":"account","type":"address"}],"name":"OwnableUnauthorizedAccount","type":"error"},{"inputs":[],"name":"ReentrancyGuardReentrantCall","type":"error"},{"anonymous":false,"inputs":[{"indexed":true,"internalType":"address","name":"previousOwner","type":"address"},{"indexed":true,"internalType":"address","name":"newOwner","type":"address"}],"name":"OwnershipTransferred","type":"event"},{"anonymous":false,"inputs":[{"indexed":false,"internalType":"uint256","name":"amount","type":"uint256"},{"indexed":true,"internalType":"address","name":"recipient","type":"address"}],"name":"PlatformFeeCollected","type":"event"},{"anonymous":false,"inputs":[{"indexed":true,"internalType":"address","name":"oldRecipient","type":"address"},{"indexed":true,"internalType":"address","name":"newRecipient","type":"address"}],"name":"PlatformFeeRecipientUpdated","type":"event"},{"anonymous":false,"inputs":[{"indexed":true,"internalType":"address","name":"player","type":"address"},{"indexed":false,"internalType":"uint256","name":"entryFee","type":"uint256"},{"indexed":false,"internalType":"uint256","name":"platformFee","type":"uint256"}],"name":"PlayerJoined","type":"event"},{"anonymous":false,"inputs":[{"indexed":false,"internalType":"uint256","name":"sessionId","type":"uint256"},{"indexed":false,"internalType":"address[]","name":"winners","type":"address[]"},{"indexed":false,"internalType":"uint256[]","name":"amounts","type":"uint256[]"}],"name":"PrizesDistributed","type":"event"},{"anonymous":false,"inputs":[{"indexed":true,"internalType":"address","name":"player","type":"address"},{"indexed":false,"internalType":"uint256","name":"score","type":"uint256"},{"indexed":false,"internalType":"uint256","name":"timestamp","type":"uint256"}],"name":"ScoreSubmitted","type":"event"},{"anonymous":false,"inputs":[{"indexed":false,"internalType":"uint256","name":"endTime","type":"uint256"}],"name":"SessionEnded","type":"event"},{"anonymous":false,"inputs":[{"indexed":false,"internalType":"uint256","name":"startTime","type":"uint256"},{"indexed":false,"internalType":"uint256","name":"duration","type":"uint256"}],"name":"SessionStarted","type":"event"},{"anonymous":false,"inputs":[{"indexed":true,"internalType":"string","name":"sessionId","type":"string"}],"name":"TrialPlayerJoined","type":"event"},{"anonymous":false,"inputs":[{"indexed":true,"internalType":"string","name":"sessionId","type":"string"},{"indexed":false,"internalType":"uint256","name":"score","type":"uint256"},{"indexed":false,"internalType":"uint256","name":"timestamp","type":"uint256"}],"name":"TrialScoreSubmitted","type":"event"},{"anonymous":false,"inputs":[{"indexed":true,"internalType":"address","name":"player","type":"address"},{"indexed":false,"internalType":"uint256","name":"amount","type":"uint256"}],"name":"WinningsClaimed","type":"event"},{"inputs":[],"name":"ENTRY_FEE","outputs":[{"internalType":"uint256","name":"","type":"uint256"}],"stateMutability":"view","type":"function"},{"inputs":[],"name":"PLATFORM_FEE_BPS","outputs":[{"internalType":"uint256","name":"","type":"uint256"}],"stateMutability":"view","type":"function"},{"inputs":[],"name":"claimWinnings","outputs":[],"stateMutability":"nonpayable","type":"function"},{"inputs":[],"name":"currentSession","outputs":[{"internalType":"uint256","name":"startTime","type":"uint256"},{"internalType":"uint256","name":"endTime","type":"uint256"},{"internalType":"uint256","name":"prizePool","type":"uint256"},{"internalType":"uint256","name":"paidPlayerCount","type":"uint256"},{"internalType":"uint256","name":"trialPlayerCount","type":"uint256"},{"internalType":"bool","name":"isActive","type":"bool"},{"internalType":"bool","name":"prizesDistributed","type":"bool"}],"stateMutability":"view","type":"function"},{"inputs":[],"name":"distributePrizes","outputs":[],"stateMutability":"nonpayable","type":"function"},{"inputs":[],"name":"emergencyWithdraw","outputs":[],"stateMutability":"nonpayable","type":"function"},{"inputs":[{"internalType":"address","name":"player","type":"address"}],"name":"getPlayerScore","outputs":[{"internalType":"uint256","name":"score","type":"uint256"},{"internalType":"bool","name":"hasSubmitted","type":"bool"},{"internalType":"uint256","name":"submissionTime","type":"uint256"}],"stateMutability":"view","type":"function"},{"inputs":[],"name":"getSessionInfo","outputs":[{"internalType":"uint256","name":"startTime","type":"uint256"},{"internalType":"uint256","name":"endTime","type":"uint256"},{"internalType":"uint256","name":"prizePool","type":"uint256"},{"internalType":"uint256","name":"paidPlayerCount","type":"uint256"},{"internalType":"uint256","name":"trialPlayerCount","type":"uint256"},{"internalType":"bool","name":"isActive","type":"bool"},{"internalType":"bool","name":"prizesDistributed","type":"bool"}],"stateMutability":"view","type":"function"},{"inputs":[{"internalType":"string","name":"sessionId","type":"string"}],"name":"getTrialPlayerScore","outputs":[{"internalType":"uint256","name":"score","type":"uint256"},{"internalType":"bool","name":"hasSubmitted","type":"bool"},{"internalType":"uint256","name":"submissionTime","type":"uint256"}],"stateMutability":"view","type":"function"},{"inputs":[{"internalType":"address","name":"","type":"address"}],"name":"hasClaimed","outputs":[{"internalType":"bool","name":"","type":"bool"}],"stateMutability":"view","type":"function"},{"inputs":[],"name":"joinBattle","outputs":[],"stateMutability":"nonpayable","type":"function"},{"inputs":[{"internalType":"string","name":"sessionId","type":"string"}],"name":"joinTrialBattle","outputs":[],"stateMutability":"nonpayable","type":"function"},{"inputs":[],"name":"owner","outputs":[{"internalType":"address","name":"","type":"address"}],"stateMutability":"view","type":"function"},{"inputs":[],"name":"platformFeeRecipient","outputs":[{"internalType":"address","name":"","type":"address"}],"stateMutability":"view","type":"function"},{"inputs":[{"internalType":"address","name":"","type":"address"}],"name":"playerWinnings","outputs":[{"internalType":"uint256","name":"","type":"uint256"}],"stateMutability":"view","type":"function"},{"inputs":[],"name":"renounceOwnership","outputs":[],"stateMutability":"nonpayable","type":"function"},{"inputs":[{"internalType":"uint256","name":"duration","type":"uint256"}],"name":"startSession","outputs":[],"stateMutability":"nonpayable","type":"function"},{"inputs":[{"internalType":"uint256","name":"score","type":"uint256"}],"name":"submitScore","outputs":[],"stateMutability":"nonpayable","type":"function"},{"inputs":[{"internalType":"string","name":"sessionId","type":"string"},{"internalType":"uint256","name":"score","type":"uint256"}],"name":"submitTrialScore","outputs":[],"stateMutability":"nonpayable","type":"function"},{"inputs":[{"internalType":"address","name":"newOwner","type":"address"}],"name":"transferOwnership","outputs":[],"stateMutability":"nonpayable","type":"function"},{"inputs":[{"internalType":"address","name":"_newRecipient","type":"address"}],"name":"updatePlatformFeeRecipient","outputs":[],"stateMutability":"nonpayable","type":"function"},{"inputs":[],"name":"usdcToken","outputs":[{"internalType":"contract IERC20","name":"","type":"address"}],"stateMutability":"view","type":"function"}],"evm":{"bytecode":{"linkReferences":{},"object":"60a0346100ff57601f611fdd38819003918201601f19168301916001600160401b038311848410176101045780849260409485528339810103126100ff57610052602061004b8361011a565b920161011a565b90600160005533156100e65760018054336001600160a01b031980831682179093556040519492936001600160a01b03939284929083167f8be0079c531659141344cd1fd0a4f28419497f9722a3daafe3b4186f6b6457e0600080a31660805216906002541617600255611eae908161012f823960805181818161035901528181610615015281816108b701526113d60152f35b604051631e4fbdf760e01b815260006004820152602490fd5b600080fd5b634e487b7160e01b600052604160045260246000fd5b51906001600160a01b03821682036100ff5756fe60e060408181526004918236101561001657600080fd5b600092833560e01c91826311eac855146113c257508163252f4d8114611388578163264eab0e1461106e578163539aa77f14611052578163715018a614610ff557816373b2e80e14610fb65781637712761214610dbd5781637ce52eb614610d325781638da5cb5b14610d095781639463b1cd146104cc57816395607a9514610b8f57816397794bf41461084b578163aff0b29714610750578163b401faf11461058a578163d082e23f14610538578163d4166763146104cc578163db2e21bc1461031f578163e085c539146102bd578163eb13554f14610294578163f2fde38b14610200578163f5fe7f7114610137575063f6d361cc1461011757600080fd5b3461013357816003193601126101335760209051620f42408152f35b5080fd5b919050346101fc5760203660031901126101fc576001600160a01b038235818116939192908490036101f85761016b611e29565b83156101b5575050600254826bffffffffffffffffffffffff60a01b821617600255167faf04973bb8004e313cfd09017b963bee1e6f6ffb9be88c07a0c5ce5fafe934038380a380f35b906020606492519162461bcd60e51b8352820152601960248201527f496e76616c696420726563697069656e742061646472657373000000000000006044820152fd5b8480fd5b8280fd5b919050346101fc5760203660031901126101fc576001600160a01b038235818116939192908490036101f857610234611e29565b831561027e575050600154826bffffffffffffffffffffffff60a01b821617600155167f8be0079c531659141344cd1fd0a4f28419497f9722a3daafe3b4186f6b6457e08380a380f35b51631e4fbdf760e01b8152908101849052602490fd5b50503461013357816003193601126101335760025490516001600160a01b039091168152602090f35b8391503461013357602036600319011261013357356001600160a01b03811690819003610133578183916102f79352600b60205220611dfc565b8051602080830151928401519351918252911515918101919091526040810191909152606090f35b919050346101fc57826003193601126101fc5761033a611e29565b80516370a0823160e01b81523083820152602091906001600160a01b037f00000000000000000000000000000000000000000000000000000000000000008116908483602481855afa9283156104c257879361048f575b50821561045657600154845163a9059cbb60e01b815291166001600160a01b03168682019081526020810193909352918491839182908990829060400103925af190811561044c57859161041f575b50156103ea578380f35b5162461bcd60e51b815291820152601160248201527015da5d1a191c985dd85b0819985a5b1959607a1b604482015260649150fd5b61043f9150833d8511610445575b6104378183611607565b810190611de4565b386103e0565b503d61042d565b82513d87823e3d90fd5b835162461bcd60e51b815280870186905260136024820152724e6f205553444320746f20776974686472617760681b6044820152606490fd5b9092508481813d83116104bb575b6104a78183611607565b810103126104b757519138610391565b8680fd5b503d61049d565b84513d89823e3d90fd5b8284346105355780600319360112610535575060055460065460075460088054600954600a549651958652602086019490945260408501929092526060840191909152608083019190915260ff808416151560a084015292901c909116151560c082015260e090f35b80fd5b905082346105355760203660031901126105355781359067ffffffffffffffff821161053557506105716102f792602092369101611405565b919082855193849283378101600c815203019020611dfc565b919050346101fc57826003193601126101fc576105a5611e55565b3383526020906003825280842054156107185733845282825260ff81852054166106e5573380855260038352818520805490869055848452828620805460ff19166001179055825163a9059cbb60e01b8152808601928352602083018290529094918490829081906040010381897f00000000000000000000000000000000000000000000000000000000000000006001600160a01b03165af19081156106db5786916106be575b50156106855750907f1a31e733a172afcf46074b3106c17f0c298e226442682a03c1e99ce256139ec291519283523392a26001815580f35b82606492519162461bcd60e51b8352820152601560248201527410db185a5b481d1c985b9cd9995c8819985a5b1959605a1b6044820152fd5b6106d59150843d8611610445576104378183611607565b3861064d565b83513d88823e3d90fd5b5162461bcd60e51b815291820152600f60248201526e105b1c9958591e4818db185a5b5959608a1b604482015260649150fd5b5162461bcd60e51b81529182015260146024820152734e6f2077696e6e696e677320746f20636c61696d60601b604482015260649150fd5b919050346101fc576020806003193601126108475782359261077660ff600a5416611438565b610784600554421015611478565b6107926006544211156114ba565b338552600b825282852054156108125750907fb7f20d0949b6a8bc59d005af4a52f7ff5d0cfcde9056fa556adb0e4b24dcb6d291338552600b81526107e060ff600184882001541615611d98565b338552600b815281852084815560018101600160ff19825416179055600242910155815193845242908401523392a280f35b915162461bcd60e51b8152918201526011602482015270141b185e595c881b9bdd081a9bda5b9959607a1b6044820152606490fd5b8380fd5b919050346101fc57826003193601126101fc57610866611e55565b3383526020600b815281842054610b5d5760ff600a541615610b50575b61089160ff600a5416611438565b61089f600554421015611478565b6108ad6006544211156114ba565b60018060a01b03807f000000000000000000000000000000000000000000000000000000000000000016938351946323b872dd60e01b865233828701526024903082880152620f42409687604482015285816064818c865af1908115610af0578991610b33575b5015610afa57836002541680610a26575b5050600754620ee0988101809111610a14576007556109456008546114f6565b600855600d5491600160401b831015610a03575050916161a8916109918460017fc9b3932fab18f6ac6d50cac9682ed0c164ce31d2505f3571323a0cf5902dd68c979601600d5561151b565b819291549060031b9133831b921b19161790556109f183516109b2816115b9565b87815287838201528785820152338852600b835284882090604060029180518455600184016020820151151560ff801983541691161790550151910155565b82519485528401523392a26001815580f35b634e487b7160e01b88526041905286fd5b50634e487b7160e01b87526011825286fd5b86519063a9059cbb60e01b82528482015285816044818c6161a89687898401525af1908115610af0578991610ad3575b5015610a91577fcf1bd34e586f4e12ef1c4c84c337b05dd3f7fc5409e16c5fea9063524eb77022858560025416928851908152a23880610925565b855162461bcd60e51b8152808401869052601c818401527f506c6174666f726d20666565207472616e73666572206661696c6564000000006044820152606490fd5b610aea9150863d8811610445576104378183611607565b38610a56565b87513d8b823e3d90fd5b855162461bcd60e51b8152808401869052601481840152731554d110c81d1c985b9cd9995c8819985a5b195960621b6044820152606490fd5b610b4a9150863d8811610445576104378183611607565b38610914565b610b58611636565b610883565b905162461bcd60e51b815291820152600e60248201526d105b1c9958591e481a9bda5b995960921b6044820152606490fd5b83915034610133578260031936011261013357803567ffffffffffffffff81116101fc57610bc09036908301611405565b60249491943590610bd560ff600a5416611438565b610be3600554421015611478565b610bf16006544211156114ba565b8251938187863784828101600c81526020968791030190205415610cc657507fbd6ca4b35a8166766cbd9f87f743edb98a23e3033ee5995dbe8f750279db9aae939495610c5760ff60018651858582378981878101600c81520301902001541615611d98565b828451838382378781858101600c8152030190205560018451838382378781858101600c81520301902001600160ff19825416179055835182828237600283820191600c835288814294030190200155818451928392833781018781520390209382519182524290820152a280f35b835162461bcd60e51b8152908101859052601760248201527f547269616c20706c61796572206e6f74206a6f696e65640000000000000000006044820152606490fd5b50503461013357816003193601126101335760015490516001600160a01b039091168152602090f35b919050346101fc57826003193601126101fc57610d4d611e29565b60ff600a5416158015610db2575b15610d785782610d69611e55565b610d7161181e565b6001815580f35b906020606492519162461bcd60e51b8352820152601460248201527353657373696f6e207374696c6c2061637469766560601b6044820152fd5b506006544211610d5b565b8383346101335760209260206003193601126101fc57803590610dde611e29565b60ff600a5416610f7a578115610f4457506005836005558360065583600755836008558360095583600a55600d5484600d5580610f02575b50600e549084600e5581610e77575b847fce6cbe3431d9ec9ac1a82a77a80bb9120b0250307afb3ed08873ea84c52b70c0858542600555610e578142611629565b600655600161ffff19600a541617600a558151904282526020820152a180f35b600e85527fbb7b4a454dc3493923482f07822329ed19e8244eff582cc204f8554c3620c3fd918201915b828110610eae5750610e25565b8086610ebc60019354611568565b80610eca575b505001610ea1565b601f8082118514610ee157505081555b8689610ec2565b610ef9908484528b84209201861c82018583016115a2565b81835555610eda565b600d85527fd7b6990105719101dabeb77144f2a3385c8033acd3af97e9423a695e81ad1eb5908101905b818110610f395750610e16565b858155600101610f2c565b606490602084519162461bcd60e51b8352820152601060248201526f24b73b30b634b210323ab930ba34b7b760811b6044820152fd5b606490602084519162461bcd60e51b8352820152601660248201527553657373696f6e20616c72656164792061637469766560501b6044820152fd5b9050346101fc5760203660031901126101fc5780356001600160a01b03811690819003610847578360ff92849260209652855220541690519015158152f35b833461053557806003193601126105355761100e611e29565b600180546001600160a01b0319811690915581906001600160a01b03167f8be0079c531659141344cd1fd0a4f28419497f9722a3daafe3b4186f6b6457e08280a380f35b5050346101335781600319360112610133576020905160fa8152f35b83833461013357602090816003193601126101fc5767ffffffffffffffff9084358281116101f8576110a39036908701611405565b9390928415611350578251858582378281878101600c8152030190205461130d5760ff600a541615611300575b6110de60ff600a5416611438565b6110ec600554421015611478565b6110fa6006544211156114ba565b6111056009546114f6565b600955600e54600160401b8110156112da576001906001810180600e558110156112ed57600e88527fbb7b4a454dc3493923482f07822329ed19e8244eff582cc204f8554c3620c3fd019186116112da5790859392916111658254611568565b601f81116112a1575b508790601f8611600114611233575090846111f393928991611228575b508560011b906000198760031b1c19161790555b8251906111ab826115b9565b878252878183015287848301528351908587833781868101600c81520301902090604060029180518455600184016020820151151560ff801983541691161790550151910155565b51928392833781018381520390207f93a1dfbf47c62f8886f8594f34973102da8b27ce9a0206226a3957bd9ee777d78280a280f35b90508601358961118b565b828952838920601f198716969594939290918a905b888210611287575050856111f39596971061126d575b5050600185811b01905561119f565b870135600019600388901b60f8161c19169055888061125e565b8983013584558a9750928301929185019190850190611248565b6112ca90838a52848a20601f880160051c8101918689106112d0575b601f0160051c01906115a2565b8861116e565b90915081906112bd565b634e487b7160e01b875260418852602487fd5b634e487b7160e01b885260328952602488fd5b611308611636565b6110d0565b825162461bcd60e51b8152808801839052601760248201527f53657373696f6e20494420616c726561647920757365640000000000000000006044820152606490fd5b825162461bcd60e51b81528088018390526012602482015271125b9d985b1a59081cd95cdcda5bdb88125160721b6044820152606490fd5b9050346101fc5760203660031901126101fc57356001600160a01b038116908190036101fc57828291602094526003845220549051908152f35b8490346101335781600319360112610133577f00000000000000000000000000000000000000000000000000000000000000006001600160a01b03168152602090f35b9181601f840112156114335782359167ffffffffffffffff8311611433576020838186019501011161143357565b600080fd5b1561143f57565b60405162461bcd60e51b815260206004820152601160248201527027379030b1ba34bb329039b2b9b9b4b7b760791b6044820152606490fd5b1561147f57565b60405162461bcd60e51b815260206004820152601360248201527214d95cdcda5bdb881b9bdd081cdd185c9d1959606a1b6044820152606490fd5b156114c157565b60405162461bcd60e51b815260206004820152600d60248201526c14d95cdcda5bdb88195b991959609a1b6044820152606490fd5b60001981146115055760010190565b634e487b7160e01b600052601160045260246000fd5b600d5481101561155257600d6000527fd7b6990105719101dabeb77144f2a3385c8033acd3af97e9423a695e81ad1eb50190600090565b634e487b7160e01b600052603260045260246000fd5b90600182811c92168015611598575b602083101461158257565b634e487b7160e01b600052602260045260246000fd5b91607f1691611577565b8181106115ad575050565b600081556001016115a2565b6060810190811067ffffffffffffffff8211176115d557604052565b634e487b7160e01b600052604160045260246000fd5b6040810190811067ffffffffffffffff8211176115d557604052565b90601f8019910116810190811067ffffffffffffffff8211176115d557604052565b9190820180921161150557565b60ff600a54166117b45760006005816005558160065581600755816008558160095581600a55600d5482600d5580611772575b50600e549082600e55816116e6575b50504260055561012c90814201908142116116d257507fce6cbe3431d9ec9ac1a82a77a80bb9120b0250307afb3ed08873ea84c52b70c091604091600655600161ffff19600a541617600a558151904282526020820152a1565b634e487b7160e01b81526011600452602490fd5b600e83527fbb7b4a454dc3493923482f07822329ed19e8244eff582cc204f8554c3620c3fd918201915b82811061171d5750611678565b808461172b60019354611568565b80611739575b505001611710565b601f808211851461175057505081555b8438611731565b61176990848452602084209201861c82018583016115a2565b81835555611749565b600d83527fd7b6990105719101dabeb77144f2a3385c8033acd3af97e9423a695e81ad1eb5908101905b8181106117a95750611669565b83815560010161179c565b60405162461bcd60e51b815260206004820152601660248201527553657373696f6e20616c72656164792061637469766560501b6044820152606490fd5b67ffffffffffffffff81116115d55760051b60200190565b80518210156115525760209160051b010190565b600a549060ff808360081c16611d5357600754928315611d1e57600d5490611856611848836117f2565b60405160c05260c051611607565b8160c05152601f199182611869826117f2565b0160005b818110611cf7575050600093845b828110611c79575050508215611c3b57506000939293925b60001994838601848111611505578510156119665760005b858503858111611505578781019081116115055781101561195857602090816118d68260c05161180a565b5101516001820190818311611505576001936118f48360c05161180a565b51015111611904575b50016118ab565b611951906119148360c05161180a565b516119218260c05161180a565b5161192e8560c05161180a565b5261193b8460c05161180a565b506119488260c05161180a565b5260c05161180a565b50386118fd565b509450600190930192611893565b935090935060328102818104603203611505576064900490601e8102818104601e03611505576064900490600f8102818104600f036115055760649004906005810290810460050361150557606490046119d06119c2866117f2565b604051608052608051611607565b8460805152866119df866117f2565b0136602060805101376119f1856117f2565b966119ff6040519889611607565b858852611a0b866117f2565b0136602089013760009460005b81811080611c31575b15611b3a57600081611ab95750611a8290611a75888b611a6f8a9b8c925b6001600160a01b0360a081905260c051611a5a90899061180a565b515116611a698360805161180a565b5261180a565b526114f6565b9780611a87575b506114f6565b611a18565b60a051611a968360c05161180a565b5151166000526003602052611ab16040600020918254611629565b905538611a7c565b60018203611ad75750611a8290611a75888b611a6f899b8c92611a3f565b60028203611af55750611a8290611a75888b611a6f889b8c92611a3f565b826002198101116116d257600219830115611b265750611a8290611a75888b611a6f600219870188049b8c92611a3f565b634e487b7160e01b81526012600452602490fd5b505050505050509061010061ffff19600a541617600a55600554906040519160608301908352606060208401526080515180915260808301906020608051019060005b818110611c125750505082810360408401526020808351928381520192019060005b818110611bfc5750505090807fec92dccf4a03653bc1a3d85019574bf62a659c47575779a889806684783b9e5c920390a17f6fec84c120bd2f6ca3672e03149381cb6bd1bf38d8442f598e8fa9820a53991e6020604051428152a1565b8251845260209384019390920191600101611b9f565b82516001600160a01b0316845260209384019390920191600101611b7d565b50600a8110611a21565b91505061010091925061ffff191617600a557f6fec84c120bd2f6ca3672e03149381cb6bd1bf38d8442f598e8fa9820a53991e6020604051428152a1565b611c828161151b565b60018060a01b0391549060031b1c16806000526020600b8152604060002084600182015416611cb7575b50505060010161187b565b916001939891611cee93549060405192611cd0846115eb565b8352820152611ce18260c05161180a565b52611a7c8160c05161180a565b95903880611cac565b602090604051611d06816115eb565b60008152826000818301528260c0510101520161186d565b60405162461bcd60e51b815260206004820152600d60248201526c139bc81c1c9a5e99481c1bdbdb609a1b6044820152606490fd5b60405162461bcd60e51b815260206004820152601a60248201527f5072697a657320616c72656164792064697374726962757465640000000000006044820152606490fd5b15611d9f57565b60405162461bcd60e51b815260206004820152601760248201527f53636f726520616c7265616479207375626d69747465640000000000000000006044820152606490fd5b90816020910312611433575180151581036114335790565b90604051611e09816115b9565b6040600282948054845260ff600182015416151560208501520154910152565b6001546001600160a01b03163303611e3d57565b60405163118cdaa760e01b8152336004820152602490fd5b600260005414611e66576002600055565b604051633ee5aeb560e01b8152600490fdfea264697066735822122046729a66ea7fe18441c7cd6adaee22d06d11ab9886365ae021a6b239407d1c1364736f6c63430008190033","opcodes":"PUSH1 0xA0 CALLVALUE PUSH2 0xFF JUMPI PUSH1 0x1F PUSH2 0x1FDD CODESIZE DUP2 SWAP1 SUB SWAP2 DUP3 ADD PUSH1 0x1F NOT AND DUP4 ADD SWAP2 PUSH1 0x1 PUSH1 0x1 PUSH1 0x40 SHL SUB DUP4 GT DUP5 DUP5 LT OR PUSH2 0x104 JUMPI DUP1 DUP5 SWAP3 PUSH1 0x40 SWAP5 DUP6 MSTORE DUP4 CODECOPY DUP2 ADD SUB SLT PUSH2 0xFF JUMPI PUSH2 0x52 PUSH1 0x20 PUSH2 0x4B DUP4 PUSH2 0x11A JUMP JUMPDEST SWAP3 ADD PUSH2 0x11A JUMP JUMPDEST SWAP1 PUSH1 0x1 PUSH1 0x0 SSTORE CALLER ISZERO PUSH2 0xE6 JUMPI PUSH1 0x1 DUP1 SLOAD CALLER PUSH1 0x1 PUSH1 0x1 PUSH1 0xA0 SHL SUB NOT DUP1 DUP4 AND DUP3 OR SWAP1 SWAP4 SSTORE PUSH1 0x40 MLOAD SWAP5 SWAP3 SWAP4 PUSH1 0x1 PUSH1 0x1 PUSH1 0xA0 SHL SUB SWAP4 SWAP3 DUP5 SWAP3 SWAP1 DUP4 AND PUSH32 0x8BE0079C531659141344CD1FD0A4F28419497F9722A3DAAFE3B4186F6B6457E0 PUSH1 0x0 DUP1 LOG3 AND PUSH1 0x80 MSTORE AND SWAP1 PUSH1 0x2 SLOAD AND OR PUSH1 0x2 SSTORE PUSH2 0x1EAE SWAP1 DUP2 PUSH2 0x12F DUP3 CODECOPY PUSH1 0x80 MLOAD DUP2 DUP2 DUP2 PUSH2 0x359 ADD MSTORE DUP2 DUP2 PUSH2 0x615 ADD MSTORE DUP2 DUP2 PUSH2 0x8B7 ADD MSTORE PUSH2 0x13D6 ADD MSTORE RETURN JUMPDEST PUSH1 0x40 MLOAD PUSH4 0x1E4FBDF7 PUSH1 0xE0 SHL DUP2 MSTORE PUSH1 0x0 PUSH1 0x4 DUP3 ADD MSTORE PUSH1 0x24 SWAP1 REVERT JUMPDEST PUSH1 0x0 DUP1 REVERT JUMPDEST PUSH4 0x4E487B71 PUSH1 0xE0 SHL PUSH1 0x0 MSTORE PUSH1 0x41 PUSH1 0x4 MSTORE PUSH1 0x24 PUSH1 0x0 REVERT JUMPDEST MLOAD SWAP1 PUSH1 0x1 PUSH1 0x1 PUSH1 0xA0 SHL SUB DUP3 AND DUP3 SUB PUSH2 0xFF JUMPI JUMP INVALID PUSH1 0xE0 PUSH1 0x40 DUP2 DUP2 MSTORE PUSH1 0x4 SWAP2 DUP3 CALLDATASIZE LT ISZERO PUSH2 0x16 JUMPI PUSH1 0x0 DUP1 REVERT JUMPDEST PUSH1 0x0 SWAP3 DUP4 CALLDATALOAD PUSH1 0xE0 SHR SWAP2 DUP3 PUSH4 0x11EAC855 EQ PUSH2 0x13C2 JUMPI POP DUP2 PUSH4 0x252F4D81 EQ PUSH2 0x1388 JUMPI DUP2 PUSH4 0x264EAB0E EQ PUSH2 0x106E JUMPI DUP2 PUSH4 0x539AA77F EQ PUSH2 0x1052 JUMPI DUP2 PUSH4 0x715018A6 EQ PUSH2 0xFF5 JUMPI DUP2 PUSH4 0x73B2E80E EQ PUSH2 0xFB6 JUMPI DUP2 PUSH4 0x77127612 EQ PUSH2 0xDBD JUMPI DUP2 PUSH4 0x7CE52EB6 EQ PUSH2 0xD32 JUMPI DUP2 PUSH4 0x8DA5CB5B EQ PUSH2 0xD09 JUMPI DUP2 PUSH4 0x9463B1CD EQ PUSH2 0x4CC JUMPI DUP2 PUSH4 0x95607A95 EQ PUSH2 0xB8F JUMPI DUP2 PUSH4 0x97794BF4 EQ PUSH2 0x84B JUMPI DUP2 PUSH4 0xAFF0B297 EQ PUSH2 0x750 JUMPI DUP2 PUSH4 0xB401FAF1 EQ PUSH2 0x58A JUMPI DUP2 PUSH4 0xD082E23F EQ PUSH2 0x538 JUMPI DUP2 PUSH4 0xD4166763 EQ PUSH2 0x4CC JUMPI DUP2 PUSH4 0xDB2E21BC EQ PUSH2 0x31F JUMPI DUP2 PUSH4 0xE085C539 EQ PUSH2 0x2BD JUMPI DUP2 PUSH4 0xEB13554F EQ PUSH2 0x294 JUMPI DUP2 PUSH4 0xF2FDE38B EQ PUSH2 0x200 JUMPI DUP2 PUSH4 0xF5FE7F71 EQ PUSH2 0x137 JUMPI POP PUSH4 0xF6D361CC EQ PUSH2 0x117 JUMPI PUSH1 0x0 DUP1 REVERT JUMPDEST CALLVALUE PUSH2 0x133 JUMPI DUP2 PUSH1 0x3 NOT CALLDATASIZE ADD SLT PUSH2 0x133 JUMPI PUSH1 0x20 SWAP1 MLOAD PUSH3 0xF4240 DUP2 MSTORE RETURN JUMPDEST POP DUP1 REVERT JUMPDEST SWAP2 SWAP1 POP CALLVALUE PUSH2 0x1FC JUMPI PUSH1 0x20 CALLDATASIZE PUSH1 0x3 NOT ADD SLT PUSH2 0x1FC JUMPI PUSH1 0x1 PUSH1 0x1 PUSH1 0xA0 SHL SUB DUP3 CALLDATALOAD DUP2 DUP2 AND SWAP4 SWAP2 SWAP3 SWAP1 DUP5 SWAP1 SUB PUSH2 0x1F8 JUMPI PUSH2 0x16B PUSH2 0x1E29 JUMP JUMPDEST DUP4 ISZERO PUSH2 0x1B5 JUMPI POP POP PUSH1 0x2 SLOAD DUP3 PUSH12 0xFFFFFFFFFFFFFFFFFFFFFFFF PUSH1 0xA0 SHL DUP3 AND OR PUSH1 0x2 SSTORE AND PUSH32 0xAF04973BB8004E313CFD09017B963BEE1E6F6FFB9BE88C07A0C5CE5FAFE93403 DUP4 DUP1 LOG3 DUP1 RETURN JUMPDEST SWAP1 PUSH1 0x20 PUSH1 0x64 SWAP3 MLOAD SWAP2 PUSH3 0x461BCD PUSH1 0xE5 SHL DUP4 MSTORE DUP3 ADD MSTORE PUSH1 0x19 PUSH1 0x24 DUP3 ADD MSTORE PUSH32 0x496E76616C696420726563697069656E74206164647265737300000000000000 PUSH1 0x44 DUP3 ADD MSTORE REVERT JUMPDEST DUP5 DUP1 REVERT JUMPDEST DUP3 DUP1 REVERT JUMPDEST SWAP2 SWAP1 POP CALLVALUE PUSH2 0x1FC JUMPI PUSH1 0x20 CALLDATASIZE PUSH1 0x3 NOT ADD SLT PUSH2 0x1FC JUMPI PUSH1 0x1 PUSH1 0x1 PUSH1 0xA0 SHL SUB DUP3 CALLDATALOAD DUP2 DUP2 AND SWAP4 SWAP2 SWAP3 SWAP1 DUP5 SWAP1 SUB PUSH2 0x1F8 JUMPI PUSH2 0x234 PUSH2 0x1E29 JUMP JUMPDEST DUP4 ISZERO PUSH2 0x27E JUMPI POP POP PUSH1 0x1 SLOAD DUP3 PUSH12 0xFFFFFFFFFFFFFFFFFFFFFFFF PUSH1 0xA0 SHL DUP3 AND OR PUSH1 0x1 SSTORE AND PUSH32 0x8BE0079C531659141344CD1FD0A4F28419497F9722A3DAAFE3B4186F6B6457E0 DUP4 DUP1 LOG3 DUP1 RETURN JUMPDEST MLOAD PUSH4 0x1E4FBDF7 PUSH1 0xE0 SHL DUP2 MSTORE SWAP1 DUP2 ADD DUP5 SWAP1 MSTORE PUSH1 0x24 SWAP1 REVERT JUMPDEST POP POP CALLVALUE PUSH2 0x133 JUMPI DUP2 PUSH1 0x3 NOT CALLDATASIZE ADD SLT PUSH2 0x133 JUMPI PUSH1 0x2 SLOAD SWAP1 MLOAD PUSH1 0x1 PUSH1 0x1 PUSH1 0xA0 SHL SUB SWAP1 SWAP2 AND DUP2 MSTORE PUSH1 0x20 SWAP1 RETURN JUMPDEST DUP4 SWAP2 POP CALLVALUE PUSH2 0x133 JUMPI PUSH1 0x20 CALLDATASIZE PUSH1 0x3 NOT ADD SLT PUSH2 0x133 JUMPI CALLDATALOAD PUSH1 0x1 PUSH1 0x1 PUSH1 0xA0 SHL SUB DUP2 AND SWAP1 DUP2 SWAP1 SUB PUSH2 0x133 JUMPI DUP2 DUP4 SWAP2 PUSH2 0x2F7 SWAP4 MSTORE PUSH1 0xB PUSH1 0x20 MSTORE KECCAK256 PUSH2 0x1DFC JUMP JUMPDEST DUP1 MLOAD PUSH1 0x20 DUP1 DUP4 ADD MLOAD SWAP3 DUP5 ADD MLOAD SWAP4 MLOAD SWAP2 DUP3 MSTORE SWAP2 ISZERO ISZERO SWAP2 DUP2 ADD SWAP2 SWAP1 SWAP2 MSTORE PUSH1 0x40 DUP2 ADD SWAP2 SWAP1 SWAP2 MSTORE PUSH1 0x60 SWAP1 RETURN JUMPDEST SWAP2 SWAP1 POP CALLVALUE PUSH2 0x1FC JUMPI DUP3 PUSH1 0x3 NOT CALLDATASIZE ADD SLT PUSH2 0x1FC JUMPI PUSH2 0x33A PUSH2 0x1E29 JUMP JUMPDEST DUP1 MLOAD PUSH4 0x70A08231 PUSH1 0xE0 SHL DUP2 MSTORE ADDRESS DUP4 DUP3 ADD MSTORE PUSH1 0x20 SWAP2 SWAP1 PUSH1 0x1 PUSH1 0x1 PUSH1 0xA0 SHL SUB PUSH32 0x0 DUP2 AND SWAP1 DUP5 DUP4 PUSH1 0x24 DUP2 DUP6 GAS STATICCALL SWAP3 DUP4 ISZERO PUSH2 0x4C2 JUMPI DUP8 SWAP4 PUSH2 0x48F JUMPI JUMPDEST POP DUP3 ISZERO PUSH2 0x456 JUMPI PUSH1 0x1 SLOAD DUP5 MLOAD PUSH4 0xA9059CBB PUSH1 0xE0 SHL DUP2 MSTORE SWAP2 AND PUSH1 0x1 PUSH1 0x1 PUSH1 0xA0 SHL SUB AND DUP7 DUP3 ADD SWAP1 DUP2 MSTORE PUSH1 0x20 DUP2 ADD SWAP4 SWAP1 SWAP4 MSTORE SWAP2 DUP5 SWAP2 DUP4 SWAP2 DUP3 SWAP1 DUP10 SWAP1 DUP3 SWAP1 PUSH1 0x40 ADD SUB SWAP3 GAS CALL SWAP1 DUP2 ISZERO PUSH2 0x44C JUMPI DUP6 SWAP2 PUSH2 0x41F JUMPI JUMPDEST POP ISZERO PUSH2 0x3EA JUMPI DUP4 DUP1 RETURN JUMPDEST MLOAD PUSH3 0x461BCD PUSH1 0xE5 SHL DUP2 MSTORE SWAP2 DUP3 ADD MSTORE PUSH1 0x11 PUSH1 0x24 DUP3 ADD MSTORE PUSH17 0x15DA5D1A191C985DD85B0819985A5B1959 PUSH1 0x7A SHL PUSH1 0x44 DUP3 ADD MSTORE PUSH1 0x64 SWAP2 POP REVERT JUMPDEST PUSH2 0x43F SWAP2 POP DUP4 RETURNDATASIZE DUP6 GT PUSH2 0x445 JUMPI JUMPDEST PUSH2 0x437 DUP2 DUP4 PUSH2 0x1607 JUMP JUMPDEST DUP2 ADD SWAP1 PUSH2 0x1DE4 JUMP JUMPDEST CODESIZE PUSH2 0x3E0 JUMP JUMPDEST POP RETURNDATASIZE PUSH2 0x42D JUMP JUMPDEST DUP3 MLOAD RETURNDATASIZE DUP8 DUP3 RETURNDATACOPY RETURNDATASIZE SWAP1 REVERT JUMPDEST DUP4 MLOAD PUSH3 0x461BCD PUSH1 0xE5 SHL DUP2 MSTORE DUP1 DUP8 ADD DUP7 SWAP1 MSTORE PUSH1 0x13 PUSH1 0x24 DUP3 ADD MSTORE PUSH19 0x4E6F205553444320746F207769746864726177 PUSH1 0x68 SHL PUSH1 0x44 DUP3 ADD MSTORE PUSH1 0x64 SWAP1 REVERT JUMPDEST SWAP1 SWAP3 POP DUP5 DUP2 DUP2 RETURNDATASIZE DUP4 GT PUSH2 0x4BB JUMPI JUMPDEST PUSH2 0x4A7 DUP2 DUP4 PUSH2 0x1607 JUMP JUMPDEST DUP2 ADD SUB SLT PUSH2 0x4B7 JUMPI MLOAD SWAP2 CODESIZE PUSH2 0x391 JUMP JUMPDEST DUP7 DUP1 REVERT JUMPDEST POP RETURNDATASIZE PUSH2 0x49D JUMP JUMPDEST DUP5 MLOAD RETURNDATASIZE DUP10 DUP3 RETURNDATACOPY RETURNDATASIZE SWAP1 REVERT JUMPDEST DUP3 DUP5 CALLVALUE PUSH2 0x535 JUMPI DUP1 PUSH1 0x3 NOT CALLDATASIZE ADD SLT PUSH2 0x535 JUMPI POP PUSH1 0x5 SLOAD PUSH1 0x6 SLOAD PUSH1 0x7 SLOAD PUSH1 0x8 DUP1 SLOAD PUSH1 0x9 SLOAD PUSH1 0xA SLOAD SWAP7 MLOAD SWAP6 DUP7 MSTORE PUSH1 0x20 DUP7 ADD SWAP5 SWAP1 SWAP5 MSTORE PUSH1 0x40 DUP6 ADD SWAP3 SWAP1 SWAP3 MSTORE PUSH1 0x60 DUP5 ADD SWAP2 SWAP1 SWAP2 MSTORE PUSH1 0x80 DUP4 ADD SWAP2 SWAP1 SWAP2 MSTORE PUSH1 0xFF DUP1 DUP5 AND ISZERO ISZERO PUSH1 0xA0 DUP5 ADD MSTORE SWAP3 SWAP1 SHR SWAP1 SWAP2 AND ISZERO ISZERO PUSH1 0xC0 DUP3 ADD MSTORE PUSH1 0xE0 SWAP1 RETURN JUMPDEST DUP1 REVERT JUMPDEST SWAP1 POP DUP3 CALLVALUE PUSH2 0x535 JUMPI PUSH1 0x20 CALLDATASIZE PUSH1 0x3 NOT ADD SLT PUSH2 0x535 JUMPI DUP2 CALLDATALOAD SWAP1 PUSH8 0xFFFFFFFFFFFFFFFF DUP3 GT PUSH2 0x535 JUMPI POP PUSH2 0x571 PUSH2 0x2F7 SWAP3 PUSH1 0x20 SWAP3 CALLDATASIZE SWAP2 ADD PUSH2 0x1405 JUMP JUMPDEST SWAP2 SWAP1 DUP3 DUP6 MLOAD SWAP4 DUP5 SWAP3 DUP4 CALLDATACOPY DUP2 ADD PUSH1 0xC DUP2 MSTORE SUB ADD SWAP1 KECCAK256 PUSH2 0x1DFC JUMP JUMPDEST SWAP2 SWAP1 POP CALLVALUE PUSH2 0x1FC JUMPI DUP3 PUSH1 0x3 NOT CALLDATASIZE ADD SLT PUSH2 0x1FC JUMPI PUSH2 0x5A5 PUSH2 0x1E55 JUMP JUMPDEST CALLER DUP4 MSTORE PUSH1 0x20 SWAP1 PUSH1 0x3 DUP3 MSTORE DUP1 DUP5 KECCAK256 SLOAD ISZERO PUSH2 0x718 JUMPI CALLER DUP5 MSTORE DUP3 DUP3 MSTORE PUSH1 0xFF DUP2 DUP6 KECCAK256 SLOAD AND PUSH2 0x6E5 JUMPI CALLER DUP1 DUP6 MSTORE PUSH1 0x3 DUP4 MSTORE DUP2 DUP6 KECCAK256 DUP1 SLOAD SWAP1 DUP7 SWAP1 SSTORE DUP5 DUP5 MSTORE DUP3 DUP7 KECCAK256 DUP1 SLOAD PUSH1 0xFF NOT AND PUSH1 0x1 OR SWAP1 SSTORE DUP3 MLOAD PUSH4 0xA9059CBB PUSH1 0xE0 SHL DUP2 MSTORE DUP1 DUP7 ADD SWAP3 DUP4 MSTORE PUSH1 0x20 DUP4 ADD DUP3 SWAP1 MSTORE SWAP1 SWAP5 SWAP2 DUP5 SWAP1 DUP3 SWAP1 DUP2 SWAP1 PUSH1 0x40 ADD SUB DUP2 DUP10 PUSH32 0x0 PUSH1 0x1 PUSH1 0x1 PUSH1 0xA0 SHL SUB AND GAS CALL SWAP1 DUP2 ISZERO PUSH2 0x6DB JUMPI DUP7 SWAP2 PUSH2 0x6BE JUMPI JUMPDEST POP ISZERO PUSH2 0x685 JUMPI POP SWAP1 PUSH32 0x1A31E733A172AFCF46074B3106C17F0C298E226442682A03C1E99CE256139EC2 SWAP2 MLOAD SWAP3 DUP4 MSTORE CALLER SWAP3 LOG2 PUSH1 0x1 DUP2 SSTORE DUP1 RETURN JUMPDEST DUP3 PUSH1 0x64 SWAP3 MLOAD SWAP2 PUSH3 0x461BCD PUSH1 0xE5 SHL DUP4 MSTORE DUP3 ADD MSTORE PUSH1 0x15 PUSH1 0x24 DUP3 ADD MSTORE PUSH21 0x10DB185A5B481D1C985B9CD9995C8819985A5B1959 PUSH1 0x5A SHL PUSH1 0x44 DUP3 ADD MSTORE REVERT JUMPDEST PUSH2 0x6D5 SWAP2 POP DUP5 RETURNDATASIZE DUP7 GT PUSH2 0x445 JUMPI PUSH2 0x437 DUP2 DUP4 PUSH2 0x1607 JUMP JUMPDEST CODESIZE PUSH2 0x64D JUMP JUMPDEST DUP4 MLOAD RETURNDATASIZE DUP9 DUP3 RETURNDATACOPY RETURNDATASIZE SWAP1 REVERT JUMPDEST MLOAD PUSH3 0x461BCD PUSH1 0xE5 SHL DUP2 MSTORE SWAP2 DUP3 ADD MSTORE PUSH1 0xF PUSH1 0x24 DUP3 ADD MSTORE PUSH15 0x105B1C9958591E4818DB185A5B5959 PUSH1 0x8A SHL PUSH1 0x44 DUP3 ADD MSTORE PUSH1 0x64 SWAP2 POP REVERT JUMPDEST MLOAD PUSH3 0x461BCD PUSH1 0xE5 SHL DUP2 MSTORE SWAP2 DUP3 ADD MSTORE PUSH1 0x14 PUSH1 0x24 DUP3 ADD MSTORE PUSH20 0x4E6F2077696E6E696E677320746F20636C61696D PUSH1 0x60 SHL PUSH1 0x44 DUP3 ADD MSTORE PUSH1 0x64 SWAP2 POP REVERT JUMPDEST SWAP2 SWAP1 POP CALLVALUE PUSH2 0x1FC JUMPI PUSH1 0x20 DUP1 PUSH1 0x3 NOT CALLDATASIZE ADD SLT PUSH2 0x847 JUMPI DUP3 CALLDATALOAD SWAP3 PUSH2 0x776 PUSH1 0xFF PUSH1 0xA SLOAD AND PUSH2 0x1438 JUMP JUMPDEST PUSH2 0x784 PUSH1 0x5 SLOAD TIMESTAMP LT ISZERO PUSH2 0x1478 JUMP JUMPDEST PUSH2 0x792 PUSH1 0x6 SLOAD TIMESTAMP GT ISZERO PUSH2 0x14BA JUMP JUMPDEST CALLER DUP6 MSTORE PUSH1 0xB DUP3 MSTORE DUP3 DUP6 KECCAK256 SLOAD ISZERO PUSH2 0x812 JUMPI POP SWAP1 PUSH32 0xB7F20D0949B6A8BC59D005AF4A52F7FF5D0CFCDE9056FA556ADB0E4B24DCB6D2 SWAP2 CALLER DUP6 MSTORE PUSH1 0xB DUP2 MSTORE PUSH2 0x7E0 PUSH1 0xFF PUSH1 0x1 DUP5 DUP9 KECCAK256 ADD SLOAD AND ISZERO PUSH2 0x1D98 JUMP JUMPDEST CALLER DUP6 MSTORE PUSH1 0xB DUP2 MSTORE DUP2 DUP6 KECCAK256 DUP5 DUP2 SSTORE PUSH1 0x1 DUP2 ADD PUSH1 0x1 PUSH1 0xFF NOT DUP3 SLOAD AND OR SWAP1 SSTORE PUSH1 0x2 TIMESTAMP SWAP2 ADD SSTORE DUP2 MLOAD SWAP4 DUP5 MSTORE TIMESTAMP SWAP1 DUP5 ADD MSTORE CALLER SWAP3 LOG2 DUP1 RETURN JUMPDEST SWAP2 MLOAD PUSH3 0x461BCD PUSH1 0xE5 SHL DUP2 MSTORE SWAP2 DUP3 ADD MSTORE PUSH1 0x11 PUSH1 0x24 DUP3 ADD MSTORE PUSH17 0x141B185E595C881B9BDD081A9BDA5B9959 PUSH1 0x7A SHL PUSH1 0x44 DUP3 ADD MSTORE PUSH1 0x64 SWAP1 REVERT JUMPDEST DUP4 DUP1 REVERT JUMPDEST SWAP2 SWAP1 POP CALLVALUE PUSH2 0x1FC JUMPI DUP3 PUSH1 0x3 NOT CALLDATASIZE ADD SLT PUSH2 0x1FC JUMPI PUSH2 0x866 PUSH2 0x1E55 JUMP JUMPDEST CALLER DUP4 MSTORE PUSH1 0x20 PUSH1 0xB DUP2 MSTORE DUP2 DUP5 KECCAK256 SLOAD PUSH2 0xB5D JUMPI PUSH1 0xFF PUSH1 0xA SLOAD AND ISZERO PUSH2 0xB50 JUMPI JUMPDEST PUSH2 0x891 PUSH1 0xFF PUSH1 0xA SLOAD AND PUSH2 0x1438 JUMP JUMPDEST PUSH2 0x89F PUSH1 0x5 SLOAD TIMESTAMP LT ISZERO PUSH2 0x1478 JUMP JUMPDEST PUSH2 0x8AD PUSH1 0x6 SLOAD TIMESTAMP GT ISZERO PUSH2 0x14BA JUMP JUMPDEST PUSH1 0x1 DUP1 PUSH1 0xA0 SHL SUB DUP1 PUSH32 0x0 AND SWAP4 DUP4 MLOAD SWAP5 PUSH4 0x23B872DD PUSH1 0xE0 SHL DUP7 MSTORE CALLER DUP3 DUP8 ADD MSTORE PUSH1 0x24 SWAP1 ADDRESS DUP3 DUP9 ADD MSTORE PUSH3 0xF4240 SWAP7 DUP8 PUSH1 0x44 DUP3 ADD MSTORE DUP6 DUP2 PUSH1 0x64 DUP2 DUP13 DUP7 GAS CALL SWAP1 DUP2 ISZERO PUSH2 0xAF0 JUMPI DUP10 SWAP2 PUSH2 0xB33 JUMPI JUMPDEST POP ISZERO PUSH2 0xAFA JUMPI DUP4 PUSH1 0x2 SLOAD AND DUP1 PUSH2 0xA26 JUMPI JUMPDEST POP POP PUSH1 0x7 SLOAD PUSH3 0xEE098 DUP2 ADD DUP1 SWAP2 GT PUSH2 0xA14 JUMPI PUSH1 0x7 SSTORE PUSH2 0x945 PUSH1 0x8 SLOAD PUSH2 0x14F6 JUMP JUMPDEST PUSH1 0x8 SSTORE PUSH1 0xD SLOAD SWAP2 PUSH1 0x1 PUSH1 0x40 SHL DUP4 LT ISZERO PUSH2 0xA03 JUMPI POP POP SWAP2 PUSH2 0x61A8 SWAP2 PUSH2 0x991 DUP5 PUSH1 0x1 PUSH32 0xC9B3932FAB18F6AC6D50CAC9682ED0C164CE31D2505F3571323A0CF5902DD68C SWAP8 SWAP7 ADD PUSH1 0xD SSTORE PUSH2 0x151B JUMP JUMPDEST DUP2 SWAP3 SWAP2 SLOAD SWAP1 PUSH1 0x3 SHL SWAP2 CALLER DUP4 SHL SWAP3 SHL NOT AND OR SWAP1 SSTORE PUSH2 0x9F1 DUP4 MLOAD PUSH2 0x9B2 DUP2 PUSH2 0x15B9 JUMP JUMPDEST DUP8 DUP2 MSTORE DUP8 DUP4 DUP3 ADD MSTORE DUP8 DUP6 DUP3 ADD MSTORE CALLER DUP9 MSTORE PUSH1 0xB DUP4 MSTORE DUP5 DUP9 KECCAK256 SWAP1 PUSH1 0x40 PUSH1 0x2 SWAP2 DUP1 MLOAD DUP5 SSTORE PUSH1 0x1 DUP5 ADD PUSH1 0x20 DUP3 ADD MLOAD ISZERO ISZERO PUSH1 0xFF DUP1 NOT DUP4 SLOAD AND SWAP2 AND OR SWAP1 SSTORE ADD MLOAD SWAP2 ADD SSTORE JUMP JUMPDEST DUP3 MLOAD SWAP5 DUP6 MSTORE DUP5 ADD MSTORE CALLER SWAP3 LOG2 PUSH1 0x1 DUP2 SSTORE DUP1 RETURN JUMPDEST PUSH4 0x4E487B71 PUSH1 0xE0 SHL DUP9 MSTORE PUSH1 0x41 SWAP1 MSTORE DUP7 REVERT JUMPDEST POP PUSH4 0x4E487B71 PUSH1 0xE0 SHL DUP8 MSTORE PUSH1 0x11 DUP3 MSTORE DUP7 REVERT JUMPDEST DUP7 MLOAD SWAP1 PUSH4 0xA9059CBB PUSH1 0xE0 SHL DUP3 MSTORE DUP5 DUP3 ADD MSTORE DUP6 DUP2 PUSH1 0x44 DUP2 DUP13 PUSH2 0x61A8 SWAP7 DUP8 DUP10 DUP5 ADD MSTORE GAS CALL SWAP1 DUP2 ISZERO PUSH2 0xAF0 JUMPI DUP10 SWAP2 PUSH2 0xAD3 JUMPI JUMPDEST POP ISZERO PUSH2 0xA91 JUMPI PUSH32 0xCF1BD34E586F4E12EF1C4C84C337B05DD3F7FC5409E16C5FEA9063524EB77022 DUP6 DUP6 PUSH1 0x2 SLOAD AND SWAP3 DUP9 MLOAD SWAP1 DUP2 MSTORE LOG2 CODESIZE DUP1 PUSH2 0x925 JUMP JUMPDEST DUP6 MLOAD PUSH3 0x461BCD PUSH1 0xE5 SHL DUP2 MSTORE DUP1 DUP5 ADD DUP7 SWAP1 MSTORE PUSH1 0x1C DUP2 DUP5 ADD MSTORE PUSH32 0x506C6174666F726D20666565207472616E73666572206661696C656400000000 PUSH1 0x44 DUP3 ADD MSTORE PUSH1 0x64 SWAP1 REVERT JUMPDEST PUSH2 0xAEA SWAP2 POP DUP7 RETURNDATASIZE DUP9 GT PUSH2 0x445 JUMPI PUSH2 0x437 DUP2 DUP4 PUSH2 0x1607 JUMP JUMPDEST CODESIZE PUSH2 0xA56 JUMP JUMPDEST DUP8 MLOAD RETURNDATASIZE DUP12 DUP3 RETURNDATACOPY RETURNDATASIZE SWAP1 REVERT JUMPDEST DUP6 MLOAD PUSH3 0x461BCD PUSH1 0xE5 SHL DUP2 MSTORE DUP1 DUP5 ADD DUP7 SWAP1 MSTORE PUSH1 0x14 DUP2 DUP5 ADD MSTORE PUSH20 0x1554D110C81D1C985B9CD9995C8819985A5B1959 PUSH1 0x62 SHL PUSH1 0x44 DUP3 ADD MSTORE PUSH1 0x64 SWAP1 REVERT JUMPDEST PUSH2 0xB4A SWAP2 POP DUP7 RETURNDATASIZE DUP9 GT PUSH2 0x445 JUMPI PUSH2 0x437 DUP2 DUP4 PUSH2 0x1607 JUMP JUMPDEST CODESIZE PUSH2 0x914 JUMP JUMPDEST PUSH2 0xB58 PUSH2 0x1636 JUMP JUMPDEST PUSH2 0x883 JUMP JUMPDEST SWAP1 MLOAD PUSH3 0x461BCD PUSH1 0xE5 SHL DUP2 MSTORE SWAP2 DUP3 ADD MSTORE PUSH1 0xE PUSH1 0x24 DUP3 ADD MSTORE PUSH14 0x105B1C9958591E481A9BDA5B9959 PUSH1 0x92 SHL PUSH1 0x44 DUP3 ADD MSTORE PUSH1 0x64 SWAP1 REVERT JUMPDEST DUP4 SWAP2 POP CALLVALUE PUSH2 0x133 JUMPI DUP3 PUSH1 0x3 NOT CALLDATASIZE ADD SLT PUSH2 0x133 JUMPI DUP1 CALLDATALOAD PUSH8 0xFFFFFFFFFFFFFFFF DUP2 GT PUSH2 0x1FC JUMPI PUSH2 0xBC0 SWAP1 CALLDATASIZE SWAP1 DUP4 ADD PUSH2 0x1405 JUMP JUMPDEST PUSH1 0x24 SWAP5 SWAP2 SWAP5 CALLDATALOAD SWAP1 PUSH2 0xBD5 PUSH1 0xFF PUSH1 0xA SLOAD AND PUSH2 0x1438 JUMP JUMPDEST PUSH2 0xBE3 PUSH1 0x5 SLOAD TIMESTAMP LT ISZERO PUSH2 0x1478 JUMP JUMPDEST PUSH2 0xBF1 PUSH1 0x6 SLOAD TIMESTAMP GT ISZERO PUSH2 0x14BA JUMP JUMPDEST DUP3 MLOAD SWAP4 DUP2 DUP8 DUP7 CALLDATACOPY DUP5 DUP3 DUP2 ADD PUSH1 0xC DUP2 MSTORE PUSH1 0x20 SWAP7 DUP8 SWAP2 SUB ADD SWAP1 KECCAK256 SLOAD ISZERO PUSH2 0xCC6 JUMPI POP PUSH32 0xBD6CA4B35A8166766CBD9F87F743EDB98A23E3033EE5995DBE8F750279DB9AAE SWAP4 SWAP5 SWAP6 PUSH2 0xC57 PUSH1 0xFF PUSH1 0x1 DUP7 MLOAD DUP6 DUP6 DUP3 CALLDATACOPY DUP10 DUP2 DUP8 DUP2 ADD PUSH1 0xC DUP2 MSTORE SUB ADD SWAP1 KECCAK256 ADD SLOAD AND ISZERO PUSH2 0x1D98 JUMP JUMPDEST DUP3 DUP5 MLOAD DUP4 DUP4 DUP3 CALLDATACOPY DUP8 DUP2 DUP6 DUP2 ADD PUSH1 0xC DUP2 MSTORE SUB ADD SWAP1 KECCAK256 SSTORE PUSH1 0x1 DUP5 MLOAD DUP4 DUP4 DUP3 CALLDATACOPY DUP8 DUP2 DUP6 DUP2 ADD PUSH1 0xC DUP2 MSTORE SUB ADD SWAP1 KECCAK256 ADD PUSH1 0x1 PUSH1 0xFF NOT DUP3 SLOAD AND OR SWAP1 SSTORE DUP4 MLOAD DUP3 DUP3 DUP3 CALLDATACOPY PUSH1 0x2 DUP4 DUP3 ADD SWAP2 PUSH1 0xC DUP4 MSTORE DUP9 DUP2 TIMESTAMP SWAP5 SUB ADD SWAP1 KECCAK256 ADD SSTORE DUP2 DUP5 MLOAD SWAP3 DUP4 SWAP3 DUP4 CALLDATACOPY DUP2 ADD DUP8 DUP2 MSTORE SUB SWAP1 KECCAK256 SWAP4 DUP3 MLOAD SWAP2 DUP3 MSTORE TIMESTAMP SWAP1 DUP3 ADD MSTORE LOG2 DUP1 RETURN JUMPDEST DUP4 MLOAD PUSH3 0x461BCD PUSH1 0xE5 SHL DUP2 MSTORE SWAP1 DUP2 ADD DUP6 SWAP1 MSTORE PUSH1 0x17 PUSH1 0x24 DUP3 ADD MSTORE PUSH32 0x547269616C20706C61796572206E6F74206A6F696E6564000000000000000000 PUSH1 0x44 DUP3 ADD MSTORE PUSH1 0x64 SWAP1 REVERT JUMPDEST POP POP CALLVALUE PUSH2 0x133 JUMPI DUP2 PUSH1 0x3 NOT CALLDATASIZE ADD SLT PUSH2 0x133 JUMPI PUSH1 0x1 SLOAD SWAP1 MLOAD PUSH1 0x1 PUSH1 0x1 PUSH1 0xA0 SHL SUB SWAP1 SWAP2 AND DUP2 MSTORE PUSH1 0x20 SWAP1 RETURN JUMPDEST SWAP2 SWAP1 POP CALLVALUE PUSH2 0x1FC JUMPI DUP3 PUSH1 0x3 NOT CALLDATASIZE ADD SLT PUSH2 0x1FC JUMPI PUSH2 0xD4D PUSH2 0x1E29 JUMP JUMPDEST PUSH1 0xFF PUSH1 0xA SLOAD AND ISZERO DUP1 ISZERO PUSH2 0xDB2 JUMPI JUMPDEST ISZERO PUSH2 0xD78 JUMPI DUP3 PUSH2 0xD69 PUSH2 0x1E55 JUMP JUMPDEST PUSH2 0xD71 PUSH2 0x181E JUMP JUMPDEST PUSH1 0x1 DUP2 SSTORE DUP1 RETURN JUMPDEST SWAP1 PUSH1 0x20 PUSH1 0x64 SWAP3 MLOAD SWAP2 PUSH3 0x461BCD PUSH1 0xE5 SHL DUP4 MSTORE DUP3 ADD MSTORE PUSH1 0x14 PUSH1 0x24 DUP3 ADD MSTORE PUSH20 0x53657373696F6E207374696C6C20616374697665 PUSH1 0x60 SHL PUSH1 0x44 DUP3 ADD MSTORE REVERT JUMPDEST POP PUSH1 0x6 SLOAD TIMESTAMP GT PUSH2 0xD5B JUMP JUMPDEST DUP4 DUP4 CALLVALUE PUSH2 0x133 JUMPI PUSH1 0x20 SWAP3 PUSH1 0x20 PUSH1 0x3 NOT CALLDATASIZE ADD SLT PUSH2 0x1FC JUMPI DUP1 CALLDATALOAD SWAP1 PUSH2 0xDDE PUSH2 0x1E29 JUMP JUMPDEST PUSH1 0xFF PUSH1 0xA SLOAD AND PUSH2 0xF7A JUMPI DUP2 ISZERO PUSH2 0xF44 JUMPI POP PUSH1 0x5 DUP4 PUSH1 0x5 SSTORE DUP4 PUSH1 0x6 SSTORE DUP4 PUSH1 0x7 SSTORE DUP4 PUSH1 0x8 SSTORE DUP4 PUSH1 0x9 SSTORE DUP4 PUSH1 0xA SSTORE PUSH1 0xD SLOAD DUP5 PUSH1 0xD SSTORE DUP1 PUSH2 0xF02 JUMPI JUMPDEST POP PUSH1 0xE SLOAD SWAP1 DUP5 PUSH1 0xE SSTORE DUP2 PUSH2 0xE77 JUMPI JUMPDEST DUP5 PUSH32 0xCE6CBE3431D9EC9AC1A82A77A80BB9120B0250307AFB3ED08873EA84C52B70C0 DUP6 DUP6 TIMESTAMP PUSH1 0x5 SSTORE PUSH2 0xE57 DUP2 TIMESTAMP PUSH2 0x1629 JUMP JUMPDEST PUSH1 0x6 SSTORE PUSH1 0x1 PUSH2 0xFFFF NOT PUSH1 0xA SLOAD AND OR PUSH1 0xA SSTORE DUP2 MLOAD SWAP1 TIMESTAMP DUP3 MSTORE PUSH1 0x20 DUP3 ADD MSTORE LOG1 DUP1 RETURN JUMPDEST PUSH1 0xE DUP6 MSTORE PUSH32 0xBB7B4A454DC3493923482F07822329ED19E8244EFF582CC204F8554C3620C3FD SWAP2 DUP3 ADD SWAP2 JUMPDEST DUP3 DUP2 LT PUSH2 0xEAE JUMPI POP PUSH2 0xE25 JUMP JUMPDEST DUP1 DUP7 PUSH2 0xEBC PUSH1 0x1 SWAP4 SLOAD PUSH2 0x1568 JUMP JUMPDEST DUP1 PUSH2 0xECA JUMPI JUMPDEST POP POP ADD PUSH2 0xEA1 JUMP JUMPDEST PUSH1 0x1F DUP1 DUP3 GT DUP6 EQ PUSH2 0xEE1 JUMPI POP POP DUP2 SSTORE JUMPDEST DUP7 DUP10 PUSH2 0xEC2 JUMP JUMPDEST PUSH2 0xEF9 SWAP1 DUP5 DUP5 MSTORE DUP12 DUP5 KECCAK256 SWAP3 ADD DUP7 SHR DUP3 ADD DUP6 DUP4 ADD PUSH2 0x15A2 JUMP JUMPDEST DUP2 DUP4 SSTORE SSTORE PUSH2 0xEDA JUMP JUMPDEST PUSH1 0xD DUP6 MSTORE PUSH32 0xD7B6990105719101DABEB77144F2A3385C8033ACD3AF97E9423A695E81AD1EB5 SWAP1 DUP2 ADD SWAP1 JUMPDEST DUP2 DUP2 LT PUSH2 0xF39 JUMPI POP PUSH2 0xE16 JUMP JUMPDEST DUP6 DUP2 SSTORE PUSH1 0x1 ADD PUSH2 0xF2C JUMP JUMPDEST PUSH1 0x64 SWAP1 PUSH1 0x20 DUP5 MLOAD SWAP2 PUSH3 0x461BCD PUSH1 0xE5 SHL DUP4 MSTORE DUP3 ADD MSTORE PUSH1 0x10 PUSH1 0x24 DUP3 ADD MSTORE PUSH16 0x24B73B30B634B210323AB930BA34B7B7 PUSH1 0x81 SHL PUSH1 0x44 DUP3 ADD MSTORE REVERT JUMPDEST PUSH1 0x64 SWAP1 PUSH1 0x20 DUP5 MLOAD SWAP2 PUSH3 0x461BCD PUSH1 0xE5 SHL DUP4 MSTORE DUP3 ADD MSTORE PUSH1 0x16 PUSH1 0x24 DUP3 ADD MSTORE PUSH22 0x53657373696F6E20616C726561647920616374697665 PUSH1 0x50 SHL PUSH1 0x44 DUP3 ADD MSTORE REVERT JUMPDEST SWAP1 POP CALLVALUE PUSH2 0x1FC JUMPI PUSH1 0x20 CALLDATASIZE PUSH1 0x3 NOT ADD SLT PUSH2 0x1FC JUMPI DUP1 CALLDATALOAD PUSH1 0x1 PUSH1 0x1 PUSH1 0xA0 SHL SUB DUP2 AND SWAP1 DUP2 SWAP1 SUB PUSH2 0x847 JUMPI DUP4 PUSH1 0xFF SWAP3 DUP5 SWAP3 PUSH1 0x20 SWAP7 MSTORE DUP6 MSTORE KECCAK256 SLOAD AND SWAP1 MLOAD SWAP1 ISZERO ISZERO DUP2 MSTORE RETURN JUMPDEST DUP4 CALLVALUE PUSH2 0x535 JUMPI DUP1 PUSH1 0x3 NOT CALLDATASIZE ADD SLT PUSH2 0x535 JUMPI PUSH2 0x100E PUSH2 0x1E29 JUMP JUMPDEST PUSH1 0x1 DUP1 SLOAD PUSH1 0x1 PUSH1 0x1 PUSH1 0xA0 SHL SUB NOT DUP2 AND SWAP1 SWAP2 SSTORE DUP2 SWAP1 PUSH1 0x1 PUSH1 0x1 PUSH1 0xA0 SHL SUB AND PUSH32 0x8BE0079C531659141344CD1FD0A4F28419497F9722A3DAAFE3B4186F6B6457E0 DUP3 DUP1 LOG3 DUP1 RETURN JUMPDEST POP POP CALLVALUE PUSH2 0x133 JUMPI DUP2 PUSH1 0x3 NOT CALLDATASIZE ADD SLT PUSH2 0x133 JUMPI PUSH1 0x20 SWAP1 MLOAD PUSH1 0xFA DUP2 MSTORE RETURN JUMPDEST DUP4 DUP4 CALLVALUE PUSH2 0x133 JUMPI PUSH1 0x20 SWAP1 DUP2 PUSH1 0x3 NOT CALLDATASIZE ADD SLT PUSH2 0x1FC JUMPI PUSH8 0xFFFFFFFFFFFFFFFF SWAP1 DUP5 CALLDATALOAD DUP3 DUP2 GT PUSH2 0x1F8 JUMPI PUSH2 0x10A3 SWAP1 CALLDATASIZE SWAP1 DUP8 ADD PUSH2 0x1405 JUMP JUMPDEST SWAP4 SWAP1 SWAP3 DUP5 ISZERO PUSH2 0x1350 JUMPI DUP3 MLOAD DUP6 DUP6 DUP3 CALLDATACOPY DUP3 DUP2 DUP8 DUP2 ADD PUSH1 0xC DUP2 MSTORE SUB ADD SWAP1 KECCAK256 SLOAD PUSH2 0x130D JUMPI PUSH1 0xFF PUSH1 0xA SLOAD AND ISZERO PUSH2 0x1300 JUMPI JUMPDEST PUSH2 0x10DE PUSH1 0xFF PUSH1 0xA SLOAD AND PUSH2 0x1438 JUMP JUMPDEST PUSH2 0x10EC PUSH1 0x5 SLOAD TIMESTAMP LT ISZERO PUSH2 0x1478 JUMP JUMPDEST PUSH2 0x10FA PUSH1 0x6 SLOAD TIMESTAMP GT ISZERO PUSH2 0x14BA JUMP JUMPDEST PUSH2 0x1105 PUSH1 0x9 SLOAD PUSH2 0x14F6 JUMP JUMPDEST PUSH1 0x9 SSTORE PUSH1 0xE SLOAD PUSH1 0x1 PUSH1 0x40 SHL DUP2 LT ISZERO PUSH2 0x12DA JUMPI PUSH1 0x1 SWAP1 PUSH1 0x1 DUP2 ADD DUP1 PUSH1 0xE SSTORE DUP2 LT ISZERO PUSH2 0x12ED JUMPI PUSH1 0xE DUP9 MSTORE PUSH32 0xBB7B4A454DC3493923482F07822329ED19E8244EFF582CC204F8554C3620C3FD ADD SWAP2 DUP7 GT PUSH2 0x12DA JUMPI SWAP1 DUP6 SWAP4 SWAP3 SWAP2 PUSH2 0x1165 DUP3 SLOAD PUSH2 0x1568 JUMP JUMPDEST PUSH1 0x1F DUP2 GT PUSH2 0x12A1 JUMPI JUMPDEST POP DUP8 SWAP1 PUSH1 0x1F DUP7 GT PUSH1 0x1 EQ PUSH2 0x1233 JUMPI POP SWAP1 DUP5 PUSH2 0x11F3 SWAP4 SWAP3 DUP10 SWAP2 PUSH2 0x1228 JUMPI JUMPDEST POP DUP6 PUSH1 0x1 SHL SWAP1 PUSH1 0x0 NOT DUP8 PUSH1 0x3 SHL SHR NOT AND OR SWAP1 SSTORE JUMPDEST DUP3 MLOAD SWAP1 PUSH2 0x11AB DUP3 PUSH2 0x15B9 JUMP JUMPDEST DUP8 DUP3 MSTORE DUP8 DUP2 DUP4 ADD MSTORE DUP8 DUP5 DUP4 ADD MSTORE DUP4 MLOAD SWAP1 DUP6 DUP8 DUP4 CALLDATACOPY DUP2 DUP7 DUP2 ADD PUSH1 0xC DUP2 MSTORE SUB ADD SWAP1 KECCAK256 SWAP1 PUSH1 0x40 PUSH1 0x2 SWAP2 DUP1 MLOAD DUP5 SSTORE PUSH1 0x1 DUP5 ADD PUSH1 0x20 DUP3 ADD MLOAD ISZERO ISZERO PUSH1 0xFF DUP1 NOT DUP4 SLOAD AND SWAP2 AND OR SWAP1 SSTORE ADD MLOAD SWAP2 ADD SSTORE JUMP JUMPDEST MLOAD SWAP3 DUP4 SWAP3 DUP4 CALLDATACOPY DUP2 ADD DUP4 DUP2 MSTORE SUB SWAP1 KECCAK256 PUSH32 0x93A1DFBF47C62F8886F8594F34973102DA8B27CE9A0206226A3957BD9EE777D7 DUP3 DUP1 LOG2 DUP1 RETURN JUMPDEST SWAP1 POP DUP7 ADD CALLDATALOAD DUP10 PUSH2 0x118B JUMP JUMPDEST DUP3 DUP10 MSTORE DUP4 DUP10 KECCAK256 PUSH1 0x1F NOT DUP8 AND SWAP7 SWAP6 SWAP5 SWAP4 SWAP3 SWAP1 SWAP2 DUP11 SWAP1 JUMPDEST DUP9 DUP3 LT PUSH2 0x1287 JUMPI POP POP DUP6 PUSH2 0x11F3 SWAP6 SWAP7 SWAP8 LT PUSH2 0x126D JUMPI JUMPDEST POP POP PUSH1 0x1 DUP6 DUP2 SHL ADD SWAP1 SSTORE PUSH2 0x119F JUMP JUMPDEST DUP8 ADD CALLDATALOAD PUSH1 0x0 NOT PUSH1 0x3 DUP9 SWAP1 SHL PUSH1 0xF8 AND SHR NOT AND SWAP1 SSTORE DUP9 DUP1 PUSH2 0x125E JUMP JUMPDEST DUP10 DUP4 ADD CALLDATALOAD DUP5 SSTORE DUP11 SWAP8 POP SWAP3 DUP4 ADD SWAP3 SWAP2 DUP6 ADD SWAP2 SWAP1 DUP6 ADD SWAP1 PUSH2 0x1248 JUMP JUMPDEST PUSH2 0x12CA SWAP1 DUP4 DUP11 MSTORE DUP5 DUP11 KECCAK256 PUSH1 0x1F DUP9 ADD PUSH1 0x5 SHR DUP2 ADD SWAP2 DUP7 DUP10 LT PUSH2 0x12D0 JUMPI JUMPDEST PUSH1 0x1F ADD PUSH1 0x5 SHR ADD SWAP1 PUSH2 0x15A2 JUMP JUMPDEST DUP9 PUSH2 0x116E JUMP JUMPDEST SWAP1 SWAP2 POP DUP2 SWAP1 PUSH2 0x12BD JUMP JUMPDEST PUSH4 0x4E487B71 PUSH1 0xE0 SHL DUP8 MSTORE PUSH1 0x41 DUP9 MSTORE PUSH1 0x24 DUP8 REVERT JUMPDEST PUSH4 0x4E487B71 PUSH1 0xE0 SHL DUP9 MSTORE PUSH1 0x32 DUP10 MSTORE PUSH1 0x24 DUP9 REVERT JUMPDEST PUSH2 0x1308 PUSH2 0x1636 JUMP JUMPDEST PUSH2 0x10D0 JUMP JUMPDEST DUP3 MLOAD PUSH3 0x461BCD PUSH1 0xE5 SHL DUP2 MSTORE DUP1 DUP9 ADD DUP4 SWAP1 MSTORE PUSH1 0x17 PUSH1 0x24 DUP3 ADD MSTORE PUSH32 0x53657373696F6E20494420616C72656164792075736564000000000000000000 PUSH1 0x44 DUP3 ADD MSTORE PUSH1 0x64 SWAP1 REVERT JUMPDEST DUP3 MLOAD PUSH3 0x461BCD PUSH1 0xE5 SHL DUP2 MSTORE DUP1 DUP9 ADD DUP4 SWAP1 MSTORE PUSH1 0x12 PUSH1 0x24 DUP3 ADD MSTORE PUSH18 0x125B9D985B1A59081CD95CDCDA5BDB881251 PUSH1 0x72 SHL PUSH1 0x44 DUP3 ADD MSTORE PUSH1 0x64 SWAP1 REVERT JUMPDEST SWAP1 POP CALLVALUE PUSH2 0x1FC JUMPI PUSH1 0x20 CALLDATASIZE PUSH1 0x3 NOT ADD SLT PUSH2 0x1FC JUMPI CALLDATALOAD PUSH1 0x1 PUSH1 0x1 PUSH1 0xA0 SHL SUB DUP2 AND SWAP1 DUP2 SWAP1 SUB PUSH2 0x1FC JUMPI DUP3 DUP3 SWAP2 PUSH1 0x20 SWAP5 MSTORE PUSH1 0x3 DUP5 MSTORE KECCAK256 SLOAD SWAP1 MLOAD SWAP1 DUP2 MSTORE RETURN JUMPDEST DUP5 SWAP1 CALLVALUE PUSH2 0x133 JUMPI DUP2 PUSH1 0x3 NOT CALLDATASIZE ADD SLT PUSH2 0x133 JUMPI PUSH32 0x0 PUSH1 0x1 PUSH1 0x1 PUSH1 0xA0 SHL SUB AND DUP2 MSTORE PUSH1 0x20 SWAP1 RETURN JUMPDEST SWAP2 DUP2 PUSH1 0x1F DUP5 ADD SLT ISZERO PUSH2 0x1433 JUMPI DUP3 CALLDATALOAD SWAP2 PUSH8 0xFFFFFFFFFFFFFFFF DUP4 GT PUSH2 0x1433 JUMPI PUSH1 0x20 DUP4 DUP2 DUP7 ADD SWAP6 ADD ADD GT PUSH2 0x1433 JUMPI JUMP JUMPDEST PUSH1 0x0 DUP1 REVERT JUMPDEST ISZERO PUSH2 0x143F JUMPI JUMP JUMPDEST PUSH1 0x40 MLOAD PUSH3 0x461BCD PUSH1 0xE5 SHL DUP2 MSTORE PUSH1 0x20 PUSH1 0x4 DUP3 ADD MSTORE PUSH1 0x11 PUSH1 0x24 DUP3 ADD MSTORE PUSH17 0x27379030B1BA34BB329039B2B9B9B4B7B7 PUSH1 0x79 SHL PUSH1 0x44 DUP3 ADD MSTORE PUSH1 0x64 SWAP1 REVERT JUMPDEST ISZERO PUSH2 0x147F JUMPI JUMP JUMPDEST PUSH1 0x40 MLOAD PUSH3 0x461BCD PUSH1 0xE5 SHL DUP2 MSTORE PUSH1 0x20 PUSH1 0x4 DUP3 ADD MSTORE PUSH1 0x13 PUSH1 0x24 DUP3 ADD MSTORE PUSH19 0x14D95CDCDA5BDB881B9BDD081CDD185C9D1959 PUSH1 0x6A SHL PUSH1 0x44 DUP3 ADD MSTORE PUSH1 0x64 SWAP1 REVERT JUMPDEST ISZERO PUSH2 0x14C1 JUMPI JUMP JUMPDEST PUSH1 0x40 MLOAD PUSH3 0x461BCD PUSH1 0xE5 SHL DUP2 MSTORE PUSH1 0x20 PUSH1 0x4 DUP3 ADD MSTORE PUSH1 0xD PUSH1 0x24 DUP3 ADD MSTORE PUSH13 0x14D95CDCDA5BDB88195B991959 PUSH1 0x9A SHL PUSH1 0x44 DUP3 ADD MSTORE PUSH1 0x64 SWAP1 REVERT JUMPDEST PUSH1 0x0 NOT DUP2 EQ PUSH2 0x1505 JUMPI PUSH1 0x1 ADD SWAP1 JUMP JUMPDEST PUSH4 0x4E487B71 PUSH1 0xE0 SHL PUSH1 0x0 MSTORE PUSH1 0x11 PUSH1 0x4 MSTORE PUSH1 0x24 PUSH1 0x0 REVERT JUMPDEST PUSH1 0xD SLOAD DUP2 LT ISZERO PUSH2 0x1552 JUMPI PUSH1 0xD PUSH1 0x0 MSTORE PUSH32 0xD7B6990105719101DABEB77144F2A3385C8033ACD3AF97E9423A695E81AD1EB5 ADD SWAP1 PUSH1 0x0 SWAP1 JUMP JUMPDEST PUSH4 0x4E487B71 PUSH1 0xE0 SHL PUSH1 0x0 MSTORE PUSH1 0x32 PUSH1 0x4 MSTORE PUSH1 0x24 PUSH1 0x0 REVERT JUMPDEST SWAP1 PUSH1 0x1 DUP3 DUP2 SHR SWAP3 AND DUP1 ISZERO PUSH2 0x1598 JUMPI JUMPDEST PUSH1 0x20 DUP4 LT EQ PUSH2 0x1582 JUMPI JUMP JUMPDEST PUSH4 0x4E487B71 PUSH1 0xE0 SHL PUSH1 0x0 MSTORE PUSH1 0x22 PUSH1 0x4 MSTORE PUSH1 0x24 PUSH1 0x0 REVERT JUMPDEST SWAP2 PUSH1 0x7F AND SWAP2 PUSH2 0x1577 JUMP JUMPDEST DUP2 DUP2 LT PUSH2 0x15AD JUMPI POP POP JUMP JUMPDEST PUSH1 0x0 DUP2 SSTORE PUSH1 0x1 ADD PUSH2 0x15A2 JUMP JUMPDEST PUSH1 0x60 DUP2 ADD SWAP1 DUP2 LT PUSH8 0xFFFFFFFFFFFFFFFF DUP3 GT OR PUSH2 0x15D5 JUMPI PUSH1 0x40 MSTORE JUMP JUMPDEST PUSH4 0x4E487B71 PUSH1 0xE0 SHL PUSH1 0x0 MSTORE PUSH1 0x41 PUSH1 0x4 MSTORE PUSH1 0x24 PUSH1 0x0 REVERT JUMPDEST PUSH1 0x40 DUP2 ADD SWAP1 DUP2 LT PUSH8 0xFFFFFFFFFFFFFFFF DUP3 GT OR PUSH2 0x15D5 JUMPI PUSH1 0x40 MSTORE JUMP JUMPDEST SWAP1 PUSH1 0x1F DUP1 NOT SWAP2 ADD AND DUP2 ADD SWAP1 DUP2 LT PUSH8 0xFFFFFFFFFFFFFFFF DUP3 GT OR PUSH2 0x15D5 JUMPI PUSH1 0x40 MSTORE JUMP JUMPDEST SWAP2 SWAP1 DUP3 ADD DUP1 SWAP3 GT PUSH2 0x1505 JUMPI JUMP JUMPDEST PUSH1 0xFF PUSH1 0xA SLOAD AND PUSH2 0x17B4 JUMPI PUSH1 0x0 PUSH1 0x5 DUP2 PUSH1 0x5 SSTORE DUP2 PUSH1 0x6 SSTORE DUP2 PUSH1 0x7 SSTORE DUP2 PUSH1 0x8 SSTORE DUP2 PUSH1 0x9 SSTORE DUP2 PUSH1 0xA SSTORE PUSH1 0xD SLOAD DUP3 PUSH1 0xD SSTORE DUP1 PUSH2 0x1772 JUMPI JUMPDEST POP PUSH1 0xE SLOAD SWAP1 DUP3 PUSH1 0xE SSTORE DUP2 PUSH2 0x16E6 JUMPI JUMPDEST POP POP TIMESTAMP PUSH1 0x5 SSTORE PUSH2 0x12C SWAP1 DUP2 TIMESTAMP ADD SWAP1 DUP2 TIMESTAMP GT PUSH2 0x16D2 JUMPI POP PUSH32 0xCE6CBE3431D9EC9AC1A82A77A80BB9120B0250307AFB3ED08873EA84C52B70C0 SWAP2 PUSH1 0x40 SWAP2 PUSH1 0x6 SSTORE PUSH1 0x1 PUSH2 0xFFFF NOT PUSH1 0xA SLOAD AND OR PUSH1 0xA SSTORE DUP2 MLOAD SWAP1 TIMESTAMP DUP3 MSTORE PUSH1 0x20 DUP3 ADD MSTORE LOG1 JUMP JUMPDEST PUSH4 0x4E487B71 PUSH1 0xE0 SHL DUP2 MSTORE PUSH1 0x11 PUSH1 0x4 MSTORE PUSH1 0x24 SWAP1 REVERT JUMPDEST PUSH1 0xE DUP4 MSTORE PUSH32 0xBB7B4A454DC3493923482F07822329ED19E8244EFF582CC204F8554C3620C3FD SWAP2 DUP3 ADD SWAP2 JUMPDEST DUP3 DUP2 LT PUSH2 0x171D JUMPI POP PUSH2 0x1678 JUMP JUMPDEST DUP1 DUP5 PUSH2 0x172B PUSH1 0x1 SWAP4 SLOAD PUSH2 0x1568 JUMP JUMPDEST DUP1 PUSH2 0x1739 JUMPI JUMPDEST POP POP ADD PUSH2 0x1710 JUMP JUMPDEST PUSH1 0x1F DUP1 DUP3 GT DUP6 EQ PUSH2 0x1750 JUMPI POP POP DUP2 SSTORE JUMPDEST DUP5 CODESIZE PUSH2 0x1731 JUMP JUMPDEST PUSH2 0x1769 SWAP1 DUP5 DUP5 MSTORE PUSH1 0x20 DUP5 KECCAK256 SWAP3 ADD DUP7 SHR DUP3 ADD DUP6 DUP4 ADD PUSH2 0x15A2 JUMP JUMPDEST DUP2 DUP4 SSTORE SSTORE PUSH2 0x1749 JUMP JUMPDEST PUSH1 0xD DUP4 MSTORE PUSH32 0xD7B6990105719101DABEB77144F2A3385C8033ACD3AF97E9423A695E81AD1EB5 SWAP1 DUP2 ADD SWAP1 JUMPDEST DUP2 DUP2 LT PUSH2 0x17A9 JUMPI POP PUSH2 0x1669 JUMP JUMPDEST DUP4 DUP2 SSTORE PUSH1 0x1 ADD PUSH2 0x179C JUMP JUMPDEST PUSH1 0x40 MLOAD PUSH3 0x461BCD PUSH1 0xE5 SHL DUP2 MSTORE PUSH1 0x20 PUSH1 0x4 DUP3 ADD MSTORE PUSH1 0x16 PUSH1 0x24 DUP3 ADD MSTORE PUSH22 0x53657373696F6E20616C726561647920616374697665 PUSH1 0x50 SHL PUSH1 0x44 DUP3 ADD MSTORE PUSH1 0x64 SWAP1 REVERT JUMPDEST PUSH8 0xFFFFFFFFFFFFFFFF DUP2 GT PUSH2 0x15D5 JUMPI PUSH1 0x5 SHL PUSH1 0x20 ADD SWAP1 JUMP JUMPDEST DUP1 MLOAD DUP3 LT ISZERO PUSH2 0x1552 JUMPI PUSH1 0x20 SWAP2 PUSH1 0x5 SHL ADD ADD SWAP1 JUMP JUMPDEST PUSH1 0xA SLOAD SWAP1 PUSH1 0xFF DUP1 DUP4 PUSH1 0x8 SHR AND PUSH2 0x1D53 JUMPI PUSH1 0x7 SLOAD SWAP3 DUP4 ISZERO PUSH2 0x1D1E JUMPI PUSH1 0xD SLOAD SWAP1 PUSH2 0x1856 PUSH2 0x1848 DUP4 PUSH2 0x17F2 JUMP JUMPDEST PUSH1 0x40 MLOAD PUSH1 0xC0 MSTORE PUSH1 0xC0 MLOAD PUSH2 0x1607 JUMP JUMPDEST DUP2 PUSH1 0xC0 MLOAD MSTORE PUSH1 0x1F NOT SWAP2 DUP3 PUSH2 0x1869 DUP3 PUSH2 0x17F2 JUMP JUMPDEST ADD PUSH1 0x0 JUMPDEST DUP2 DUP2 LT PUSH2 0x1CF7 JUMPI POP POP PUSH1 0x0 SWAP4 DUP5 JUMPDEST DUP3 DUP2 LT PUSH2 0x1C79 JUMPI POP POP POP DUP3 ISZERO PUSH2 0x1C3B JUMPI POP PUSH1 0x0 SWAP4 SWAP3 SWAP4 SWAP3 JUMPDEST PUSH1 0x0 NOT SWAP5 DUP4 DUP7 ADD DUP5 DUP2 GT PUSH2 0x1505 JUMPI DUP6 LT ISZERO PUSH2 0x1966 JUMPI PUSH1 0x0 JUMPDEST DUP6 DUP6 SUB DUP6 DUP2 GT PUSH2 0x1505 JUMPI DUP8 DUP2 ADD SWAP1 DUP2 GT PUSH2 0x1505 JUMPI DUP2 LT ISZERO PUSH2 0x1958 JUMPI PUSH1 0x20 SWAP1 DUP2 PUSH2 0x18D6 DUP3 PUSH1 0xC0 MLOAD PUSH2 0x180A JUMP JUMPDEST MLOAD ADD MLOAD PUSH1 0x1 DUP3 ADD SWAP1 DUP2 DUP4 GT PUSH2 0x1505 JUMPI PUSH1 0x1 SWAP4 PUSH2 0x18F4 DUP4 PUSH1 0xC0 MLOAD PUSH2 0x180A JUMP JUMPDEST MLOAD ADD MLOAD GT PUSH2 0x1904 JUMPI JUMPDEST POP ADD PUSH2 0x18AB JUMP JUMPDEST PUSH2 0x1951 SWAP1 PUSH2 0x1914 DUP4 PUSH1 0xC0 MLOAD PUSH2 0x180A JUMP JUMPDEST MLOAD PUSH2 0x1921 DUP3 PUSH1 0xC0 MLOAD PUSH2 0x180A JUMP JUMPDEST MLOAD PUSH2 0x192E DUP6 PUSH1 0xC0 MLOAD PUSH2 0x180A JUMP JUMPDEST MSTORE PUSH2 0x193B DUP5 PUSH1 0xC0 MLOAD PUSH2 0x180A JUMP JUMPDEST POP PUSH2 0x1948 DUP3 PUSH1 0xC0 MLOAD PUSH2 0x180A JUMP JUMPDEST MSTORE PUSH1 0xC0 MLOAD PUSH2 0x180A JUMP JUMPDEST POP CODESIZE PUSH2 0x18FD JUMP JUMPDEST POP SWAP5 POP PUSH1 0x1 SWAP1 SWAP4 ADD SWAP3 PUSH2 0x1893 JUMP JUMPDEST SWAP4 POP SWAP1 SWAP4 POP PUSH1 0x32 DUP2 MUL DUP2 DUP2 DIV PUSH1 0x32 SUB PUSH2 0x1505 JUMPI PUSH1 0x64 SWAP1 DIV SWAP1 PUSH1 0x1E DUP2 MUL DUP2 DUP2 DIV PUSH1 0x1E SUB PUSH2 0x1505 JUMPI PUSH1 0x64 SWAP1 DIV SWAP1 PUSH1 0xF DUP2 MUL DUP2 DUP2 DIV PUSH1 0xF SUB PUSH2 0x1505 JUMPI PUSH1 0x64 SWAP1 DIV SWAP1 PUSH1 0x5 DUP2 MUL SWAP1 DUP2 DIV PUSH1 0x5 SUB PUSH2 0x1505 JUMPI PUSH1 0x64 SWAP1 DIV PUSH2 0x19D0 PUSH2 0x19C2 DUP7 PUSH2 0x17F2 JUMP JUMPDEST PUSH1 0x40 MLOAD PUSH1 0x80 MSTORE PUSH1 0x80 MLOAD PUSH2 0x1607 JUMP JUMPDEST DUP5 PUSH1 0x80 MLOAD MSTORE DUP7 PUSH2 0x19DF DUP7 PUSH2 0x17F2 JUMP JUMPDEST ADD CALLDATASIZE PUSH1 0x20 PUSH1 0x80 MLOAD ADD CALLDATACOPY PUSH2 0x19F1 DUP6 PUSH2 0x17F2 JUMP JUMPDEST SWAP7 PUSH2 0x19FF PUSH1 0x40 MLOAD SWAP9 DUP10 PUSH2 0x1607 JUMP JUMPDEST DUP6 DUP9 MSTORE PUSH2 0x1A0B DUP7 PUSH2 0x17F2 JUMP JUMPDEST ADD CALLDATASIZE PUSH1 0x20 DUP10 ADD CALLDATACOPY PUSH1 0x0 SWAP5 PUSH1 0x0 JUMPDEST DUP2 DUP2 LT DUP1 PUSH2 0x1C31 JUMPI JUMPDEST ISZERO PUSH2 0x1B3A JUMPI PUSH1 0x0 DUP2 PUSH2 0x1AB9 JUMPI POP PUSH2 0x1A82 SWAP1 PUSH2 0x1A75 DUP9 DUP12 PUSH2 0x1A6F DUP11 SWAP12 DUP13 SWAP3 JUMPDEST PUSH1 0x1 PUSH1 0x1 PUSH1 0xA0 SHL SUB PUSH1 0xA0 DUP2 SWAP1 MSTORE PUSH1 0xC0 MLOAD PUSH2 0x1A5A SWAP1 DUP10 SWAP1 PUSH2 0x180A JUMP JUMPDEST MLOAD MLOAD AND PUSH2 0x1A69 DUP4 PUSH1 0x80 MLOAD PUSH2 0x180A JUMP JUMPDEST MSTORE PUSH2 0x180A JUMP JUMPDEST MSTORE PUSH2 0x14F6 JUMP JUMPDEST SWAP8 DUP1 PUSH2 0x1A87 JUMPI JUMPDEST POP PUSH2 0x14F6 JUMP JUMPDEST PUSH2 0x1A18 JUMP JUMPDEST PUSH1 0xA0 MLOAD PUSH2 0x1A96 DUP4 PUSH1 0xC0 MLOAD PUSH2 0x180A JUMP JUMPDEST MLOAD MLOAD AND PUSH1 0x0 MSTORE PUSH1 0x3 PUSH1 0x20 MSTORE PUSH2 0x1AB1 PUSH1 0x40 PUSH1 0x0 KECCAK256 SWAP2 DUP3 SLOAD PUSH2 0x1629 JUMP JUMPDEST SWAP1 SSTORE CODESIZE PUSH2 0x1A7C JUMP JUMPDEST PUSH1 0x1 DUP3 SUB PUSH2 0x1AD7 JUMPI POP PUSH2 0x1A82 SWAP1 PUSH2 0x1A75 DUP9 DUP12 PUSH2 0x1A6F DUP10 SWAP12 DUP13 SWAP3 PUSH2 0x1A3F JUMP JUMPDEST PUSH1 0x2 DUP3 SUB PUSH2 0x1AF5 JUMPI POP PUSH2 0x1A82 SWAP1 PUSH2 0x1A75 DUP9 DUP12 PUSH2 0x1A6F DUP9 SWAP12 DUP13 SWAP3 PUSH2 0x1A3F JUMP JUMPDEST DUP3 PUSH1 0x2 NOT DUP2 ADD GT PUSH2 0x16D2 JUMPI PUSH1 0x2 NOT DUP4 ADD ISZERO PUSH2 0x1B26 JUMPI POP PUSH2 0x1A82 SWAP1 PUSH2 0x1A75 DUP9 DUP12 PUSH2 0x1A6F PUSH1 0x2 NOT DUP8 ADD DUP9 DIV SWAP12 DUP13 SWAP3 PUSH2 0x1A3F JUMP JUMPDEST PUSH4 0x4E487B71 PUSH1 0xE0 SHL DUP2 MSTORE PUSH1 0x12 PUSH1 0x4 MSTORE PUSH1 0x24 SWAP1 REVERT JUMPDEST POP POP POP POP POP POP POP SWAP1 PUSH2 0x100 PUSH2 0xFFFF NOT PUSH1 0xA SLOAD AND OR PUSH1 0xA SSTORE PUSH1 0x5 SLOAD SWAP1 PUSH1 0x40 MLOAD SWAP2 PUSH1 0x60 DUP4 ADD SWAP1 DUP4 MSTORE PUSH1 0x60 PUSH1 0x20 DUP5 ADD MSTORE PUSH1 0x80 MLOAD MLOAD DUP1 SWAP2 MSTORE PUSH1 0x80 DUP4 ADD SWAP1 PUSH1 0x20 PUSH1 0x80 MLOAD ADD SWAP1 PUSH1 0x0 JUMPDEST DUP2 DUP2 LT PUSH2 0x1C12 JUMPI POP POP POP DUP3 DUP2 SUB PUSH1 0x40 DUP5 ADD MSTORE PUSH1 0x20 DUP1 DUP4 MLOAD SWAP3 DUP4 DUP2 MSTORE ADD SWAP3 ADD SWAP1 PUSH1 0x0 JUMPDEST DUP2 DUP2 LT PUSH2 0x1BFC JUMPI POP POP POP SWAP1 DUP1 PUSH32 0xEC92DCCF4A03653BC1A3D85019574BF62A659C47575779A889806684783B9E5C SWAP3 SUB SWAP1 LOG1 PUSH32 0x6FEC84C120BD2F6CA3672E03149381CB6BD1BF38D8442F598E8FA9820A53991E PUSH1 0x20 PUSH1 0x40 MLOAD TIMESTAMP DUP2 MSTORE LOG1 JUMP JUMPDEST DUP3 MLOAD DUP5 MSTORE PUSH1 0x20 SWAP4 DUP5 ADD SWAP4 SWAP1 SWAP3 ADD SWAP2 PUSH1 0x1 ADD PUSH2 0x1B9F JUMP JUMPDEST DUP3 MLOAD PUSH1 0x1 PUSH1 0x1 PUSH1 0xA0 SHL SUB AND DUP5 MSTORE PUSH1 0x20 SWAP4 DUP5 ADD SWAP4 SWAP1 SWAP3 ADD SWAP2 PUSH1 0x1 ADD PUSH2 0x1B7D JUMP JUMPDEST POP PUSH1 0xA DUP2 LT PUSH2 0x1A21 JUMP JUMPDEST SWAP2 POP POP PUSH2 0x100 SWAP2 SWAP3 POP PUSH2 0xFFFF NOT AND OR PUSH1 0xA SSTORE PUSH32 0x6FEC84C120BD2F6CA3672E03149381CB6BD1BF38D8442F598E8FA9820A53991E PUSH1 0x20 PUSH1 0x40 MLOAD TIMESTAMP DUP2 MSTORE LOG1 JUMP JUMPDEST PUSH2 0x1C82 DUP2 PUSH2 0x151B JUMP JUMPDEST PUSH1 0x1 DUP1 PUSH1 0xA0 SHL SUB SWAP2 SLOAD SWAP1 PUSH1 0x3 SHL SHR AND DUP1 PUSH1 0x0 MSTORE PUSH1 0x20 PUSH1 0xB DUP2 MSTORE PUSH1 0x40 PUSH1 0x0 KECCAK256 DUP5 PUSH1 0x1 DUP3 ADD SLOAD AND PUSH2 0x1CB7 JUMPI JUMPDEST POP POP POP PUSH1 0x1 ADD PUSH2 0x187B JUMP JUMPDEST SWAP2 PUSH1 0x1 SWAP4 SWAP9 SWAP2 PUSH2 0x1CEE SWAP4 SLOAD SWAP1 PUSH1 0x40 MLOAD SWAP3 PUSH2 0x1CD0 DUP5 PUSH2 0x15EB JUMP JUMPDEST DUP4 MSTORE DUP3 ADD MSTORE PUSH2 0x1CE1 DUP3 PUSH1 0xC0 MLOAD PUSH2 0x180A JUMP JUMPDEST MSTORE PUSH2 0x1A7C DUP2 PUSH1 0xC0 MLOAD PUSH2 0x180A JUMP JUMPDEST SWAP6 SWAP1 CODESIZE DUP1 PUSH2 0x1CAC JUMP JUMPDEST PUSH1 0x20 SWAP1 PUSH1 0x40 MLOAD PUSH2 0x1D06 DUP2 PUSH2 0x15EB JUMP JUMPDEST PUSH1 0x0 DUP2 MSTORE DUP3 PUSH1 0x0 DUP2 DUP4 ADD MSTORE DUP3 PUSH1 0xC0 MLOAD ADD ADD MSTORE ADD PUSH2 0x186D JUMP JUMPDEST PUSH1 0x40 MLOAD PUSH3 0x461BCD PUSH1 0xE5 SHL DUP2 MSTORE PUSH1 0x20 PUSH1 0x4 DUP3 ADD MSTORE PUSH1 0xD PUSH1 0x24 DUP3 ADD MSTORE PUSH13 0x139BC81C1C9A5E99481C1BDBDB PUSH1 0x9A SHL PUSH1 0x44 DUP3 ADD MSTORE PUSH1 0x64 SWAP1 REVERT JUMPDEST PUSH1 0x40 MLOAD PUSH3 0x461BCD PUSH1 0xE5 SHL DUP2 MSTORE PUSH1 0x20 PUSH1 0x4 DUP3 ADD MSTORE PUSH1 0x1A PUSH1 0x24 DUP3 ADD MSTORE PUSH32 0x5072697A657320616C7265616479206469737472696275746564000000000000 PUSH1 0x44 DUP3 ADD MSTORE PUSH1 0x64 SWAP1 REVERT JUMPDEST ISZERO PUSH2 0x1D9F JUMPI JUMP JUMPDEST PUSH1 0x40 MLOAD PUSH3 0x461BCD PUSH1 0xE5 SHL DUP2 MSTORE PUSH1 0x20 PUSH1 0x4 DUP3 ADD MSTORE PUSH1 0x17 PUSH1 0x24 DUP3 ADD MSTORE PUSH32 0x53636F726520616C7265616479207375626D6974746564000000000000000000 PUSH1 0x44 DUP3 ADD MSTORE PUSH1 0x64 SWAP1 REVERT JUMPDEST SWAP1 DUP2 PUSH1 0x20 SWAP2 SUB SLT PUSH2 0x1433 JUMPI MLOAD DUP1 ISZERO ISZERO DUP2 SUB PUSH2 0x1433 JUMPI SWAP1 JUMP JUMPDEST SWAP1 PUSH1 0x40 MLOAD PUSH2 0x1E09 DUP2 PUSH2 0x15B9 JUMP JUMPDEST PUSH1 0x40 PUSH1 0x2 DUP3 SWAP5 DUP1 SLOAD DUP5 MSTORE PUSH1 0xFF PUSH1 0x1 DUP3 ADD SLOAD AND ISZERO ISZERO PUSH1 0x20 DUP6 ADD MSTORE ADD SLOAD SWAP2 ADD MSTORE JUMP JUMPDEST PUSH1 0x1 SLOAD PUSH1 0x1 PUSH1 0x1 PUSH1 0xA0 SHL SUB AND CALLER SUB PUSH2 0x1E3D JUMPI JUMP JUMPDEST PUSH1 0x40 MLOAD PUSH4 0x118CDAA7 PUSH1 0xE0 SHL DUP2 MSTORE CALLER PUSH1 0x4 DUP3 ADD MSTORE PUSH1 0x24 SWAP1 REVERT JUMPDEST PUSH1 0x2 PUSH1 0x0 SLOAD EQ PUSH2 0x1E66 JUMPI PUSH1 0x2 PUSH1 0x0 SSTORE JUMP JUMPDEST PUSH1 0x40 MLOAD PUSH4 0x3EE5AEB5 PUSH1 0xE0 SHL DUP2 MSTORE PUSH1 0x4 SWAP1 REVERT INVALID LOG2 PUSH5 0x6970667358 0x22 SLT KECCAK256 CHAINID PUSH19 0x9A66EA7FE18441C7CD6ADAEE22D06D11AB9886 CALLDATASIZE GAS 0xE0 0x21 0xA6 0xB2 CODECOPY BLOCKHASH PUSH30 0x1C1364736F6C634300081900330000000000000000000000000000000000 "},"methodIdentifiers":{"ENTRY_FEE()":"f6d361cc","PLATFORM_FEE_BPS()":"539aa77f","claimWinnings()":"b401faf1","currentSession()":"d4166763","distributePrizes()":"7ce52eb6","emergencyWithdraw()":"db2e21bc","getPlayerScore(address)":"e085c539","getSessionInfo()":"9463b1cd","getTrialPlayerScore(string)":"d082e23f","hasClaimed(address)":"73b2e80e","joinBattle()":"97794bf4","joinTrialBattle(string)":"264eab0e","owner()":"8da5cb5b","platformFeeRecipient()":"eb13554f","playerWinnings(address)":"252f4d81","renounceOwnership()":"715018a6","startSession(uint256)":"77127612","submitScore(uint256)":"aff0b297","submitTrialScore(string,uint256)":"95607a95","transferOwnership(address)":"f2fde38b","updatePlatformFeeRecipient(address)":"f5fe7f71","usdcToken()":"11eac855"}}}}}