{
  "_format": "hh-sol-artifact-1",
  "contractName": "TriviaBattle",
  "sourceName": "contracts/TriviaBattle.sol",
  "abi": [
    {
      "inputs": [
        {
          "internalType": "address",
          "name": "_usdcToken",
          "type": "address"
        },
        {
          "internalType": "address",
          "name": "_platformFeeRecipient",
          "type": "address"
        }
      ],
      "stateMutability": "nonpayable",
      "type": "constructor"
    },
    {
      "inputs": [
        {
          "internalType": "address",
          "name": "owner",
          "type": "address"
        }
      ],
      "name": "OwnableInvalidOwner",
      "type": "error"
    },
    {
      "inputs": [
        {
          "internalType": "address",
          "name": "account",
          "type": "address"
        }
      ],
      "name": "OwnableUnauthorizedAccount",
      "type": "error"
    },
    {
      "inputs": [],
      "name": "ReentrancyGuardReentrantCall",
      "type": "error"
    },
    {
      "anonymous": false,
      "inputs": [
        {
          "indexed": true,
          "internalType": "address",
          "name": "previousOwner",
          "type": "address"
        },
        {
          "indexed": true,
          "internalType": "address",
          "name": "newOwner",
          "type": "address"
        }
      ],
      "name": "OwnershipTransferred",
      "type": "event"
    },
    {
      "anonymous": false,
      "inputs": [
        {
          "indexed": false,
          "internalType": "uint256",
          "name": "amount",
          "type": "uint256"
        },
        {
          "indexed": true,
          "internalType": "address",
          "name": "recipient",
          "type": "address"
        }
      ],
      "name": "PlatformFeeCollected",
      "type": "event"
    },
    {
      "anonymous": false,
      "inputs": [
        {
          "indexed": true,
          "internalType": "address",
          "name": "oldRecipient",
          "type": "address"
        },
        {
          "indexed": true,
          "internalType": "address",
          "name": "newRecipient",
          "type": "address"
        }
      ],
      "name": "PlatformFeeRecipientUpdated",
      "type": "event"
    },
    {
      "anonymous": false,
      "inputs": [
        {
          "indexed": true,
          "internalType": "address",
          "name": "player",
          "type": "address"
        },
        {
          "indexed": false,
          "internalType": "uint256",
          "name": "entryFee",
          "type": "uint256"
        },
        {
          "indexed": false,
          "internalType": "uint256",
          "name": "platformFee",
          "type": "uint256"
        }
      ],
      "name": "PlayerJoined",
      "type": "event"
    },
    {
      "anonymous": false,
      "inputs": [
        {
          "indexed": false,
          "internalType": "uint256",
          "name": "sessionId",
          "type": "uint256"
        },
        {
          "indexed": false,
          "internalType": "address[]",
          "name": "winners",
          "type": "address[]"
        },
        {
          "indexed": false,
          "internalType": "uint256[]",
          "name": "amounts",
          "type": "uint256[]"
        }
      ],
      "name": "PrizesDistributed",
      "type": "event"
    },
    {
      "anonymous": false,
      "inputs": [
        {
          "indexed": true,
          "internalType": "address",
          "name": "player",
          "type": "address"
        },
        {
          "indexed": false,
          "internalType": "uint256",
          "name": "score",
          "type": "uint256"
        },
        {
          "indexed": false,
          "internalType": "uint256",
          "name": "timestamp",
          "type": "uint256"
        }
      ],
      "name": "ScoreSubmitted",
      "type": "event"
    },
    {
      "anonymous": false,
      "inputs": [
        {
          "indexed": false,
          "internalType": "uint256",
          "name": "endTime",
          "type": "uint256"
        }
      ],
      "name": "SessionEnded",
      "type": "event"
    },
    {
      "anonymous": false,
      "inputs": [
        {
          "indexed": false,
          "internalType": "uint256",
          "name": "startTime",
          "type": "uint256"
        },
        {
          "indexed": false,
          "internalType": "uint256",
          "name": "duration",
          "type": "uint256"
        }
      ],
      "name": "SessionStarted",
      "type": "event"
    },
    {
      "anonymous": false,
      "inputs": [
        {
          "indexed": true,
          "internalType": "string",
          "name": "sessionId",
          "type": "string"
        }
      ],
      "name": "TrialPlayerJoined",
      "type": "event"
    },
    {
      "anonymous": false,
      "inputs": [
        {
          "indexed": true,
          "internalType": "string",
          "name": "sessionId",
          "type": "string"
        },
        {
          "indexed": false,
          "internalType": "uint256",
          "name": "score",
          "type": "uint256"
        },
        {
          "indexed": false,
          "internalType": "uint256",
          "name": "timestamp",
          "type": "uint256"
        }
      ],
      "name": "TrialScoreSubmitted",
      "type": "event"
    },
    {
      "anonymous": false,
      "inputs": [
        {
          "indexed": true,
          "internalType": "address",
          "name": "player",
          "type": "address"
        },
        {
          "indexed": false,
          "internalType": "uint256",
          "name": "amount",
          "type": "uint256"
        }
      ],
      "name": "WinningsClaimed",
      "type": "event"
    },
    {
      "inputs": [],
      "name": "ENTRY_FEE",
      "outputs": [
        {
          "internalType": "uint256",
          "name": "",
          "type": "uint256"
        }
      ],
      "stateMutability": "view",
      "type": "function"
    },
    {
      "inputs": [],
      "name": "PLATFORM_FEE_BPS",
      "outputs": [
        {
          "internalType": "uint256",
          "name": "",
          "type": "uint256"
        }
      ],
      "stateMutability": "view",
      "type": "function"
    },
    {
      "inputs": [],
      "name": "claimWinnings",
      "outputs": [],
      "stateMutability": "nonpayable",
      "type": "function"
    },
    {
      "inputs": [],
      "name": "currentSession",
      "outputs": [
        {
          "internalType": "uint256",
          "name": "startTime",
          "type": "uint256"
        },
        {
          "internalType": "uint256",
          "name": "endTime",
          "type": "uint256"
        },
        {
          "internalType": "uint256",
          "name": "prizePool",
          "type": "uint256"
        },
        {
          "internalType": "uint256",
          "name": "paidPlayerCount",
          "type": "uint256"
        },
        {
          "internalType": "uint256",
          "name": "trialPlayerCount",
          "type": "uint256"
        },
        {
          "internalType": "bool",
          "name": "isActive",
          "type": "bool"
        },
        {
          "internalType": "bool",
          "name": "prizesDistributed",
          "type": "bool"
        }
      ],
      "stateMutability": "view",
      "type": "function"
    },
    {
      "inputs": [],
      "name": "distributePrizes",
      "outputs": [],
      "stateMutability": "nonpayable",
      "type": "function"
    },
    {
      "inputs": [],
      "name": "emergencyWithdraw",
      "outputs": [],
      "stateMutability": "nonpayable",
      "type": "function"
    },
    {
      "inputs": [
        {
          "internalType": "address",
          "name": "player",
          "type": "address"
        }
      ],
      "name": "getPlayerScore",
      "outputs": [
        {
          "internalType": "uint256",
          "name": "score",
          "type": "uint256"
        },
        {
          "internalType": "bool",
          "name": "hasSubmitted",
          "type": "bool"
        },
        {
          "internalType": "uint256",
          "name": "submissionTime",
          "type": "uint256"
        }
      ],
      "stateMutability": "view",
      "type": "function"
    },
    {
      "inputs": [],
      "name": "getSessionInfo",
      "outputs": [
        {
          "internalType": "uint256",
          "name": "startTime",
          "type": "uint256"
        },
        {
          "internalType": "uint256",
          "name": "endTime",
          "type": "uint256"
        },
        {
          "internalType": "uint256",
          "name": "prizePool",
          "type": "uint256"
        },
        {
          "internalType": "uint256",
          "name": "paidPlayerCount",
          "type": "uint256"
        },
        {
          "internalType": "uint256",
          "name": "trialPlayerCount",
          "type": "uint256"
        },
        {
          "internalType": "bool",
          "name": "isActive",
          "type": "bool"
        },
        {
          "internalType": "bool",
          "name": "prizesDistributed",
          "type": "bool"
        }
      ],
      "stateMutability": "view",
      "type": "function"
    },
    {
      "inputs": [
        {
          "internalType": "string",
          "name": "sessionId",
          "type": "string"
        }
      ],
      "name": "getTrialPlayerScore",
      "outputs": [
        {
          "internalType": "uint256",
          "name": "score",
          "type": "uint256"
        },
        {
          "internalType": "bool",
          "name": "hasSubmitted",
          "type": "bool"
        },
        {
          "internalType": "uint256",
          "name": "submissionTime",
          "type": "uint256"
        }
      ],
      "stateMutability": "view",
      "type": "function"
    },
    {
      "inputs": [
        {
          "internalType": "address",
          "name": "",
          "type": "address"
        }
      ],
      "name": "hasClaimed",
      "outputs": [
        {
          "internalType": "bool",
          "name": "",
          "type": "bool"
        }
      ],
      "stateMutability": "view",
      "type": "function"
    },
    {
      "inputs": [],
      "name": "joinBattle",
      "outputs": [],
      "stateMutability": "nonpayable",
      "type": "function"
    },
    {
      "inputs": [
        {
          "internalType": "string",
          "name": "sessionId",
          "type": "string"
        }
      ],
      "name": "joinTrialBattle",
      "outputs": [],
      "stateMutability": "nonpayable",
      "type": "function"
    },
    {
      "inputs": [],
      "name": "owner",
      "outputs": [
        {
          "internalType": "address",
          "name": "",
          "type": "address"
        }
      ],
      "stateMutability": "view",
      "type": "function"
    },
    {
      "inputs": [],
      "name": "platformFeeRecipient",
      "outputs": [
        {
          "internalType": "address",
          "name": "",
          "type": "address"
        }
      ],
      "stateMutability": "view",
      "type": "function"
    },
    {
      "inputs": [
        {
          "internalType": "address",
          "name": "",
          "type": "address"
        }
      ],
      "name": "playerWinnings",
      "outputs": [
        {
          "internalType": "uint256",
          "name": "",
          "type": "uint256"
        }
      ],
      "stateMutability": "view",
      "type": "function"
    },
    {
      "inputs": [],
      "name": "renounceOwnership",
      "outputs": [],
      "stateMutability": "nonpayable",
      "type": "function"
    },
    {
      "inputs": [
        {
          "internalType": "uint256",
          "name": "duration",
          "type": "uint256"
        }
      ],
      "name": "startSession",
      "outputs": [],
      "stateMutability": "nonpayable",
      "type": "function"
    },
    {
      "inputs": [
        {
          "internalType": "uint256",
          "name": "score",
          "type": "uint256"
        }
      ],
      "name": "submitScore",
      "outputs": [],
      "stateMutability": "nonpayable",
      "type": "function"
    },
    {
      "inputs": [
        {
          "internalType": "string",
          "name": "sessionId",
          "type": "string"
        },
        {
          "internalType": "uint256",
          "name": "score",
          "type": "uint256"
        }
      ],
      "name": "submitTrialScore",
      "outputs": [],
      "stateMutability": "nonpayable",
      "type": "function"
    },
    {
      "inputs": [
        {
          "internalType": "address",
          "name": "newOwner",
          "type": "address"
        }
      ],
      "name": "transferOwnership",
      "outputs": [],
      "stateMutability": "nonpayable",
      "type": "function"
    },
    {
      "inputs": [
        {
          "internalType": "address",
          "name": "_newRecipient",
          "type": "address"
        }
      ],
      "name": "updatePlatformFeeRecipient",
      "outputs": [],
      "stateMutability": "nonpayable",
      "type": "function"
    },
    {
      "inputs": [],
      "name": "usdcToken",
      "outputs": [
        {
          "internalType": "contract IERC20",
          "name": "",
          "type": "address"
        }
      ],
      "stateMutability": "view",
      "type": "function"
    }
  ],
  "bytecode": "0x60a0346100ff57601f611fdd38819003918201601f19168301916001600160401b038311848410176101045780849260409485528339810103126100ff57610052602061004b8361011a565b920161011a565b90600160005533156100e65760018054336001600160a01b031980831682179093556040519492936001600160a01b03939284929083167f8be0079c531659141344cd1fd0a4f28419497f9722a3daafe3b4186f6b6457e0600080a31660805216906002541617600255611eae908161012f823960805181818161035901528181610615015281816108b701526113d60152f35b604051631e4fbdf760e01b815260006004820152602490fd5b600080fd5b634e487b7160e01b600052604160045260246000fd5b51906001600160a01b03821682036100ff5756fe60e060408181526004918236101561001657600080fd5b600092833560e01c91826311eac855146113c257508163252f4d8114611388578163264eab0e1461106e578163539aa77f14611052578163715018a614610ff557816373b2e80e14610fb65781637712761214610dbd5781637ce52eb614610d325781638da5cb5b14610d095781639463b1cd146104cc57816395607a9514610b8f57816397794bf41461084b578163aff0b29714610750578163b401faf11461058a578163d082e23f14610538578163d4166763146104cc578163db2e21bc1461031f578163e085c539146102bd578163eb13554f14610294578163f2fde38b14610200578163f5fe7f7114610137575063f6d361cc1461011757600080fd5b3461013357816003193601126101335760209051620f42408152f35b5080fd5b919050346101fc5760203660031901126101fc576001600160a01b038235818116939192908490036101f85761016b611e29565b83156101b5575050600254826bffffffffffffffffffffffff60a01b821617600255167faf04973bb8004e313cfd09017b963bee1e6f6ffb9be88c07a0c5ce5fafe934038380a380f35b906020606492519162461bcd60e51b8352820152601960248201527f496e76616c696420726563697069656e742061646472657373000000000000006044820152fd5b8480fd5b8280fd5b919050346101fc5760203660031901126101fc576001600160a01b038235818116939192908490036101f857610234611e29565b831561027e575050600154826bffffffffffffffffffffffff60a01b821617600155167f8be0079c531659141344cd1fd0a4f28419497f9722a3daafe3b4186f6b6457e08380a380f35b51631e4fbdf760e01b8152908101849052602490fd5b50503461013357816003193601126101335760025490516001600160a01b039091168152602090f35b8391503461013357602036600319011261013357356001600160a01b03811690819003610133578183916102f79352600b60205220611dfc565b8051602080830151928401519351918252911515918101919091526040810191909152606090f35b919050346101fc57826003193601126101fc5761033a611e29565b80516370a0823160e01b81523083820152602091906001600160a01b037f00000000000000000000000000000000000000000000000000000000000000008116908483602481855afa9283156104c257879361048f575b50821561045657600154845163a9059cbb60e01b815291166001600160a01b03168682019081526020810193909352918491839182908990829060400103925af190811561044c57859161041f575b50156103ea578380f35b5162461bcd60e51b815291820152601160248201527015da5d1a191c985dd85b0819985a5b1959607a1b604482015260649150fd5b61043f9150833d8511610445575b6104378183611607565b810190611de4565b386103e0565b503d61042d565b82513d87823e3d90fd5b835162461bcd60e51b815280870186905260136024820152724e6f205553444320746f20776974686472617760681b6044820152606490fd5b9092508481813d83116104bb575b6104a78183611607565b810103126104b757519138610391565b8680fd5b503d61049d565b84513d89823e3d90fd5b8284346105355780600319360112610535575060055460065460075460088054600954600a549651958652602086019490945260408501929092526060840191909152608083019190915260ff808416151560a084015292901c909116151560c082015260e090f35b80fd5b905082346105355760203660031901126105355781359067ffffffffffffffff821161053557506105716102f792602092369101611405565b919082855193849283378101600c815203019020611dfc565b919050346101fc57826003193601126101fc576105a5611e55565b3383526020906003825280842054156107185733845282825260ff81852054166106e5573380855260038352818520805490869055848452828620805460ff19166001179055825163a9059cbb60e01b8152808601928352602083018290529094918490829081906040010381897f00000000000000000000000000000000000000000000000000000000000000006001600160a01b03165af19081156106db5786916106be575b50156106855750907f1a31e733a172afcf46074b3106c17f0c298e226442682a03c1e99ce256139ec291519283523392a26001815580f35b82606492519162461bcd60e51b8352820152601560248201527410db185a5b481d1c985b9cd9995c8819985a5b1959605a1b6044820152fd5b6106d59150843d8611610445576104378183611607565b3861064d565b83513d88823e3d90fd5b5162461bcd60e51b815291820152600f60248201526e105b1c9958591e4818db185a5b5959608a1b604482015260649150fd5b5162461bcd60e51b81529182015260146024820152734e6f2077696e6e696e677320746f20636c61696d60601b604482015260649150fd5b919050346101fc576020806003193601126108475782359261077660ff600a5416611438565b610784600554421015611478565b6107926006544211156114ba565b338552600b825282852054156108125750907fb7f20d0949b6a8bc59d005af4a52f7ff5d0cfcde9056fa556adb0e4b24dcb6d291338552600b81526107e060ff600184882001541615611d98565b338552600b815281852084815560018101600160ff19825416179055600242910155815193845242908401523392a280f35b915162461bcd60e51b8152918201526011602482015270141b185e595c881b9bdd081a9bda5b9959607a1b6044820152606490fd5b8380fd5b919050346101fc57826003193601126101fc57610866611e55565b3383526020600b815281842054610b5d5760ff600a541615610b50575b61089160ff600a5416611438565b61089f600554421015611478565b6108ad6006544211156114ba565b60018060a01b03807f000000000000000000000000000000000000000000000000000000000000000016938351946323b872dd60e01b865233828701526024903082880152620f42409687604482015285816064818c865af1908115610af0578991610b33575b5015610afa57836002541680610a26575b5050600754620ee0988101809111610a14576007556109456008546114f6565b600855600d5491600160401b831015610a03575050916161a8916109918460017fc9b3932fab18f6ac6d50cac9682ed0c164ce31d2505f3571323a0cf5902dd68c979601600d5561151b565b819291549060031b9133831b921b19161790556109f183516109b2816115b9565b87815287838201528785820152338852600b835284882090604060029180518455600184016020820151151560ff801983541691161790550151910155565b82519485528401523392a26001815580f35b634e487b7160e01b88526041905286fd5b50634e487b7160e01b87526011825286fd5b86519063a9059cbb60e01b82528482015285816044818c6161a89687898401525af1908115610af0578991610ad3575b5015610a91577fcf1bd34e586f4e12ef1c4c84c337b05dd3f7fc5409e16c5fea9063524eb77022858560025416928851908152a23880610925565b855162461bcd60e51b8152808401869052601c818401527f506c6174666f726d20666565207472616e73666572206661696c6564000000006044820152606490fd5b610aea9150863d8811610445576104378183611607565b38610a56565b87513d8b823e3d90fd5b855162461bcd60e51b8152808401869052601481840152731554d110c81d1c985b9cd9995c8819985a5b195960621b6044820152606490fd5b610b4a9150863d8811610445576104378183611607565b38610914565b610b58611636565b610883565b905162461bcd60e51b815291820152600e60248201526d105b1c9958591e481a9bda5b995960921b6044820152606490fd5b83915034610133578260031936011261013357803567ffffffffffffffff81116101fc57610bc09036908301611405565b60249491943590610bd560ff600a5416611438565b610be3600554421015611478565b610bf16006544211156114ba565b8251938187863784828101600c81526020968791030190205415610cc657507fbd6ca4b35a8166766cbd9f87f743edb98a23e3033ee5995dbe8f750279db9aae939495610c5760ff60018651858582378981878101600c81520301902001541615611d98565b828451838382378781858101600c8152030190205560018451838382378781858101600c81520301902001600160ff19825416179055835182828237600283820191600c835288814294030190200155818451928392833781018781520390209382519182524290820152a280f35b835162461bcd60e51b8152908101859052601760248201527f547269616c20706c61796572206e6f74206a6f696e65640000000000000000006044820152606490fd5b50503461013357816003193601126101335760015490516001600160a01b039091168152602090f35b919050346101fc57826003193601126101fc57610d4d611e29565b60ff600a5416158015610db2575b15610d785782610d69611e55565b610d7161181e565b6001815580f35b906020606492519162461bcd60e51b8352820152601460248201527353657373696f6e207374696c6c2061637469766560601b6044820152fd5b506006544211610d5b565b8383346101335760209260206003193601126101fc57803590610dde611e29565b60ff600a5416610f7a578115610f4457506005836005558360065583600755836008558360095583600a55600d5484600d5580610f02575b50600e549084600e5581610e77575b847fce6cbe3431d9ec9ac1a82a77a80bb9120b0250307afb3ed08873ea84c52b70c0858542600555610e578142611629565b600655600161ffff19600a541617600a558151904282526020820152a180f35b600e85527fbb7b4a454dc3493923482f07822329ed19e8244eff582cc204f8554c3620c3fd918201915b828110610eae5750610e25565b8086610ebc60019354611568565b80610eca575b505001610ea1565b601f8082118514610ee157505081555b8689610ec2565b610ef9908484528b84209201861c82018583016115a2565b81835555610eda565b600d85527fd7b6990105719101dabeb77144f2a3385c8033acd3af97e9423a695e81ad1eb5908101905b818110610f395750610e16565b858155600101610f2c565b606490602084519162461bcd60e51b8352820152601060248201526f24b73b30b634b210323ab930ba34b7b760811b6044820152fd5b606490602084519162461bcd60e51b8352820152601660248201527553657373696f6e20616c72656164792061637469766560501b6044820152fd5b9050346101fc5760203660031901126101fc5780356001600160a01b03811690819003610847578360ff92849260209652855220541690519015158152f35b833461053557806003193601126105355761100e611e29565b600180546001600160a01b0319811690915581906001600160a01b03167f8be0079c531659141344cd1fd0a4f28419497f9722a3daafe3b4186f6b6457e08280a380f35b5050346101335781600319360112610133576020905160fa8152f35b83833461013357602090816003193601126101fc5767ffffffffffffffff9084358281116101f8576110a39036908701611405565b9390928415611350578251858582378281878101600c8152030190205461130d5760ff600a541615611300575b6110de60ff600a5416611438565b6110ec600554421015611478565b6110fa6006544211156114ba565b6111056009546114f6565b600955600e54600160401b8110156112da576001906001810180600e558110156112ed57600e88527fbb7b4a454dc3493923482f07822329ed19e8244eff582cc204f8554c3620c3fd019186116112da5790859392916111658254611568565b601f81116112a1575b508790601f8611600114611233575090846111f393928991611228575b508560011b906000198760031b1c19161790555b8251906111ab826115b9565b878252878183015287848301528351908587833781868101600c81520301902090604060029180518455600184016020820151151560ff801983541691161790550151910155565b51928392833781018381520390207f93a1dfbf47c62f8886f8594f34973102da8b27ce9a0206226a3957bd9ee777d78280a280f35b90508601358961118b565b828952838920601f198716969594939290918a905b888210611287575050856111f39596971061126d575b5050600185811b01905561119f565b870135600019600388901b60f8161c19169055888061125e565b8983013584558a9750928301929185019190850190611248565b6112ca90838a52848a20601f880160051c8101918689106112d0575b601f0160051c01906115a2565b8861116e565b90915081906112bd565b634e487b7160e01b875260418852602487fd5b634e487b7160e01b885260328952602488fd5b611308611636565b6110d0565b825162461bcd60e51b8152808801839052601760248201527f53657373696f6e20494420616c726561647920757365640000000000000000006044820152606490fd5b825162461bcd60e51b81528088018390526012602482015271125b9d985b1a59081cd95cdcda5bdb88125160721b6044820152606490fd5b9050346101fc5760203660031901126101fc57356001600160a01b038116908190036101fc57828291602094526003845220549051908152f35b8490346101335781600319360112610133577f00000000000000000000000000000000000000000000000000000000000000006001600160a01b03168152602090f35b9181601f840112156114335782359167ffffffffffffffff8311611433576020838186019501011161143357565b600080fd5b1561143f57565b60405162461bcd60e51b815260206004820152601160248201527027379030b1ba34bb329039b2b9b9b4b7b760791b6044820152606490fd5b1561147f57565b60405162461bcd60e51b815260206004820152601360248201527214d95cdcda5bdb881b9bdd081cdd185c9d1959606a1b6044820152606490fd5b156114c157565b60405162461bcd60e51b815260206004820152600d60248201526c14d95cdcda5bdb88195b991959609a1b6044820152606490fd5b60001981146115055760010190565b634e487b7160e01b600052601160045260246000fd5b600d5481101561155257600d6000527fd7b6990105719101dabeb77144f2a3385c8033acd3af97e9423a695e81ad1eb50190600090565b634e487b7160e01b600052603260045260246000fd5b90600182811c92168015611598575b602083101461158257565b634e487b7160e01b600052602260045260246000fd5b91607f1691611577565b8181106115ad575050565b600081556001016115a2565b6060810190811067ffffffffffffffff8211176115d557604052565b634e487b7160e01b600052604160045260246000fd5b6040810190811067ffffffffffffffff8211176115d557604052565b90601f8019910116810190811067ffffffffffffffff8211176115d557604052565b9190820180921161150557565b60ff600a54166117b45760006005816005558160065581600755816008558160095581600a55600d5482600d5580611772575b50600e549082600e55816116e6575b50504260055561012c90814201908142116116d257507fce6cbe3431d9ec9ac1a82a77a80bb9120b0250307afb3ed08873ea84c52b70c091604091600655600161ffff19600a541617600a558151904282526020820152a1565b634e487b7160e01b81526011600452602490fd5b600e83527fbb7b4a454dc3493923482f07822329ed19e8244eff582cc204f8554c3620c3fd918201915b82811061171d5750611678565b808461172b60019354611568565b80611739575b505001611710565b601f808211851461175057505081555b8438611731565b61176990848452602084209201861c82018583016115a2565b81835555611749565b600d83527fd7b6990105719101dabeb77144f2a3385c8033acd3af97e9423a695e81ad1eb5908101905b8181106117a95750611669565b83815560010161179c565b60405162461bcd60e51b815260206004820152601660248201527553657373696f6e20616c72656164792061637469766560501b6044820152606490fd5b67ffffffffffffffff81116115d55760051b60200190565b80518210156115525760209160051b010190565b600a549060ff808360081c16611d5357600754928315611d1e57600d5490611856611848836117f2565b60405160c05260c051611607565b8160c05152601f199182611869826117f2565b0160005b818110611cf7575050600093845b828110611c79575050508215611c3b57506000939293925b60001994838601848111611505578510156119665760005b858503858111611505578781019081116115055781101561195857602090816118d68260c05161180a565b5101516001820190818311611505576001936118f48360c05161180a565b51015111611904575b50016118ab565b611951906119148360c05161180a565b516119218260c05161180a565b5161192e8560c05161180a565b5261193b8460c05161180a565b506119488260c05161180a565b5260c05161180a565b50386118fd565b509450600190930192611893565b935090935060328102818104603203611505576064900490601e8102818104601e03611505576064900490600f8102818104600f036115055760649004906005810290810460050361150557606490046119d06119c2866117f2565b604051608052608051611607565b8460805152866119df866117f2565b0136602060805101376119f1856117f2565b966119ff6040519889611607565b858852611a0b866117f2565b0136602089013760009460005b81811080611c31575b15611b3a57600081611ab95750611a8290611a75888b611a6f8a9b8c925b6001600160a01b0360a081905260c051611a5a90899061180a565b515116611a698360805161180a565b5261180a565b526114f6565b9780611a87575b506114f6565b611a18565b60a051611a968360c05161180a565b5151166000526003602052611ab16040600020918254611629565b905538611a7c565b60018203611ad75750611a8290611a75888b611a6f899b8c92611a3f565b60028203611af55750611a8290611a75888b611a6f889b8c92611a3f565b826002198101116116d257600219830115611b265750611a8290611a75888b611a6f600219870188049b8c92611a3f565b634e487b7160e01b81526012600452602490fd5b505050505050509061010061ffff19600a541617600a55600554906040519160608301908352606060208401526080515180915260808301906020608051019060005b818110611c125750505082810360408401526020808351928381520192019060005b818110611bfc5750505090807fec92dccf4a03653bc1a3d85019574bf62a659c47575779a889806684783b9e5c920390a17f6fec84c120bd2f6ca3672e03149381cb6bd1bf38d8442f598e8fa9820a53991e6020604051428152a1565b8251845260209384019390920191600101611b9f565b82516001600160a01b0316845260209384019390920191600101611b7d565b50600a8110611a21565b91505061010091925061ffff191617600a557f6fec84c120bd2f6ca3672e03149381cb6bd1bf38d8442f598e8fa9820a53991e6020604051428152a1565b611c828161151b565b60018060a01b0391549060031b1c16806000526020600b8152604060002084600182015416611cb7575b50505060010161187b565b916001939891611cee93549060405192611cd0846115eb565b8352820152611ce18260c05161180a565b52611a7c8160c05161180a565b95903880611cac565b602090604051611d06816115eb565b60008152826000818301528260c0510101520161186d565b60405162461bcd60e51b815260206004820152600d60248201526c139bc81c1c9a5e99481c1bdbdb609a1b6044820152606490fd5b60405162461bcd60e51b815260206004820152601a60248201527f5072697a657320616c72656164792064697374726962757465640000000000006044820152606490fd5b15611d9f57565b60405162461bcd60e51b815260206004820152601760248201527f53636f726520616c7265616479207375626d69747465640000000000000000006044820152606490fd5b90816020910312611433575180151581036114335790565b90604051611e09816115b9565b6040600282948054845260ff600182015416151560208501520154910152565b6001546001600160a01b03163303611e3d57565b60405163118cdaa760e01b8152336004820152602490fd5b600260005414611e66576002600055565b604051633ee5aeb560e01b8152600490fdfea264697066735822122046729a66ea7fe18441c7cd6adaee22d06d11ab9886365ae021a6b239407d1c1364736f6c63430008190033",
  "linkReferences": {},
  "deployedLinkReferences": {}
}