{
  "_format": "hh-sol-artifact-1",
  "contractName": "TriviaBattle",
  "sourceName": "contracts/TriviaBattle.sol",
  "abi": [
    {
      "inputs": [
        {
          "internalType": "address",
          "name": "_usdcToken",
          "type": "address"
        }
      ],
      "stateMutability": "nonpayable",
      "type": "constructor"
    },
    {
      "inputs": [
        {
          "internalType": "address",
          "name": "owner",
          "type": "address"
        }
      ],
      "name": "OwnableInvalidOwner",
      "type": "error"
    },
    {
      "inputs": [
        {
          "internalType": "address",
          "name": "account",
          "type": "address"
        }
      ],
      "name": "OwnableUnauthorizedAccount",
      "type": "error"
    },
    {
      "inputs": [],
      "name": "ReentrancyGuardReentrantCall",
      "type": "error"
    },
    {
      "anonymous": false,
      "inputs": [
        {
          "indexed": true,
          "internalType": "address",
          "name": "previousOwner",
          "type": "address"
        },
        {
          "indexed": true,
          "internalType": "address",
          "name": "newOwner",
          "type": "address"
        }
      ],
      "name": "OwnershipTransferred",
      "type": "event"
    },
    {
      "anonymous": false,
      "inputs": [
        {
          "indexed": true,
          "internalType": "address",
          "name": "player",
          "type": "address"
        },
        {
          "indexed": false,
          "internalType": "uint256",
          "name": "entryFee",
          "type": "uint256"
        }
      ],
      "name": "PlayerJoined",
      "type": "event"
    },
    {
      "anonymous": false,
      "inputs": [
        {
          "indexed": false,
          "internalType": "uint256",
          "name": "sessionId",
          "type": "uint256"
        },
        {
          "indexed": false,
          "internalType": "address[]",
          "name": "winners",
          "type": "address[]"
        },
        {
          "indexed": false,
          "internalType": "uint256[]",
          "name": "amounts",
          "type": "uint256[]"
        }
      ],
      "name": "PrizesDistributed",
      "type": "event"
    },
    {
      "anonymous": false,
      "inputs": [
        {
          "indexed": true,
          "internalType": "address",
          "name": "player",
          "type": "address"
        },
        {
          "indexed": false,
          "internalType": "uint256",
          "name": "score",
          "type": "uint256"
        },
        {
          "indexed": false,
          "internalType": "uint256",
          "name": "timestamp",
          "type": "uint256"
        }
      ],
      "name": "ScoreSubmitted",
      "type": "event"
    },
    {
      "anonymous": false,
      "inputs": [
        {
          "indexed": false,
          "internalType": "uint256",
          "name": "endTime",
          "type": "uint256"
        }
      ],
      "name": "SessionEnded",
      "type": "event"
    },
    {
      "anonymous": false,
      "inputs": [
        {
          "indexed": false,
          "internalType": "uint256",
          "name": "startTime",
          "type": "uint256"
        },
        {
          "indexed": false,
          "internalType": "uint256",
          "name": "duration",
          "type": "uint256"
        }
      ],
      "name": "SessionStarted",
      "type": "event"
    },
    {
      "anonymous": false,
      "inputs": [
        {
          "indexed": true,
          "internalType": "string",
          "name": "sessionId",
          "type": "string"
        }
      ],
      "name": "TrialPlayerJoined",
      "type": "event"
    },
    {
      "anonymous": false,
      "inputs": [
        {
          "indexed": true,
          "internalType": "string",
          "name": "sessionId",
          "type": "string"
        },
        {
          "indexed": false,
          "internalType": "uint256",
          "name": "score",
          "type": "uint256"
        },
        {
          "indexed": false,
          "internalType": "uint256",
          "name": "timestamp",
          "type": "uint256"
        }
      ],
      "name": "TrialScoreSubmitted",
      "type": "event"
    },
    {
      "inputs": [],
      "name": "ENTRY_FEE",
      "outputs": [
        {
          "internalType": "uint256",
          "name": "",
          "type": "uint256"
        }
      ],
      "stateMutability": "view",
      "type": "function"
    },
    {
      "inputs": [],
      "name": "currentSession",
      "outputs": [
        {
          "internalType": "uint256",
          "name": "startTime",
          "type": "uint256"
        },
        {
          "internalType": "uint256",
          "name": "endTime",
          "type": "uint256"
        },
        {
          "internalType": "uint256",
          "name": "prizePool",
          "type": "uint256"
        },
        {
          "internalType": "uint256",
          "name": "paidPlayerCount",
          "type": "uint256"
        },
        {
          "internalType": "uint256",
          "name": "trialPlayerCount",
          "type": "uint256"
        },
        {
          "internalType": "bool",
          "name": "isActive",
          "type": "bool"
        },
        {
          "internalType": "bool",
          "name": "prizesDistributed",
          "type": "bool"
        }
      ],
      "stateMutability": "view",
      "type": "function"
    },
    {
      "inputs": [],
      "name": "distributePrizes",
      "outputs": [],
      "stateMutability": "nonpayable",
      "type": "function"
    },
    {
      "inputs": [],
      "name": "emergencyWithdraw",
      "outputs": [],
      "stateMutability": "nonpayable",
      "type": "function"
    },
    {
      "inputs": [
        {
          "internalType": "address",
          "name": "player",
          "type": "address"
        }
      ],
      "name": "getPlayerScore",
      "outputs": [
        {
          "internalType": "uint256",
          "name": "score",
          "type": "uint256"
        },
        {
          "internalType": "bool",
          "name": "hasSubmitted",
          "type": "bool"
        },
        {
          "internalType": "uint256",
          "name": "submissionTime",
          "type": "uint256"
        }
      ],
      "stateMutability": "view",
      "type": "function"
    },
    {
      "inputs": [],
      "name": "getSessionInfo",
      "outputs": [
        {
          "internalType": "uint256",
          "name": "startTime",
          "type": "uint256"
        },
        {
          "internalType": "uint256",
          "name": "endTime",
          "type": "uint256"
        },
        {
          "internalType": "uint256",
          "name": "prizePool",
          "type": "uint256"
        },
        {
          "internalType": "uint256",
          "name": "paidPlayerCount",
          "type": "uint256"
        },
        {
          "internalType": "uint256",
          "name": "trialPlayerCount",
          "type": "uint256"
        },
        {
          "internalType": "bool",
          "name": "isActive",
          "type": "bool"
        },
        {
          "internalType": "bool",
          "name": "prizesDistributed",
          "type": "bool"
        }
      ],
      "stateMutability": "view",
      "type": "function"
    },
    {
      "inputs": [
        {
          "internalType": "string",
          "name": "sessionId",
          "type": "string"
        }
      ],
      "name": "getTrialPlayerScore",
      "outputs": [
        {
          "internalType": "uint256",
          "name": "score",
          "type": "uint256"
        },
        {
          "internalType": "bool",
          "name": "hasSubmitted",
          "type": "bool"
        },
        {
          "internalType": "uint256",
          "name": "submissionTime",
          "type": "uint256"
        }
      ],
      "stateMutability": "view",
      "type": "function"
    },
    {
      "inputs": [],
      "name": "joinBattle",
      "outputs": [],
      "stateMutability": "nonpayable",
      "type": "function"
    },
    {
      "inputs": [
        {
          "internalType": "string",
          "name": "sessionId",
          "type": "string"
        }
      ],
      "name": "joinTrialBattle",
      "outputs": [],
      "stateMutability": "nonpayable",
      "type": "function"
    },
    {
      "inputs": [],
      "name": "owner",
      "outputs": [
        {
          "internalType": "address",
          "name": "",
          "type": "address"
        }
      ],
      "stateMutability": "view",
      "type": "function"
    },
    {
      "inputs": [],
      "name": "renounceOwnership",
      "outputs": [],
      "stateMutability": "nonpayable",
      "type": "function"
    },
    {
      "inputs": [
        {
          "internalType": "uint256",
          "name": "duration",
          "type": "uint256"
        }
      ],
      "name": "startSession",
      "outputs": [],
      "stateMutability": "nonpayable",
      "type": "function"
    },
    {
      "inputs": [
        {
          "internalType": "uint256",
          "name": "score",
          "type": "uint256"
        }
      ],
      "name": "submitScore",
      "outputs": [],
      "stateMutability": "nonpayable",
      "type": "function"
    },
    {
      "inputs": [
        {
          "internalType": "string",
          "name": "sessionId",
          "type": "string"
        },
        {
          "internalType": "uint256",
          "name": "score",
          "type": "uint256"
        }
      ],
      "name": "submitTrialScore",
      "outputs": [],
      "stateMutability": "nonpayable",
      "type": "function"
    },
    {
      "inputs": [
        {
          "internalType": "address",
          "name": "newOwner",
          "type": "address"
        }
      ],
      "name": "transferOwnership",
      "outputs": [],
      "stateMutability": "nonpayable",
      "type": "function"
    },
    {
      "inputs": [],
      "name": "usdcToken",
      "outputs": [
        {
          "internalType": "contract IERC20",
          "name": "",
          "type": "address"
        }
      ],
      "stateMutability": "view",
      "type": "function"
    }
  ],
  "bytecode": "0x60a0346100e357601f611a4a38819003918201601f19168301916001600160401b038311848410176100e8578084926020946040528339810103126100e357516001600160a01b0390818116908190036100e357600160005533156100ca5760018054336001600160a01b03198216811790925560405193167f8be0079c531659141344cd1fd0a4f28419497f9722a3daafe3b4186f6b6457e0600080a360805261194b90816100ff823960805181818161022d015281816105e201528181610f4b01526114850152f35b604051631e4fbdf760e01b815260006004820152602490fd5b600080fd5b634e487b7160e01b600052604160045260246000fdfe608060408181526004918236101561001657600080fd5b600092833560e01c91826311eac85514610f3757508163264eab0e14610c36578163715018a614610bd957816377127612146109ce5781637ce52eb6146109435781638da5cb5b1461091a5781639463b1cd146103a057816395607a95146107a057816397794bf414610558578163aff0b2971461045d578163d082e23f1461040b578163d4166763146103a0578163db2e21bc146101f3578163e085c53914610191578163f2fde38b146100f5575063f6d361cc146100d557600080fd5b346100f157816003193601126100f15760209051620f42408152f35b5080fd5b9190503461018d57602036600319011261018d576001600160a01b03823581811693919290849003610189576101296118c6565b8315610173575050600154826bffffffffffffffffffffffff60a01b821617600155167f8be0079c531659141344cd1fd0a4f28419497f9722a3daafe3b4186f6b6457e08380a380f35b51631e4fbdf760e01b8152908101849052602490fd5b8480fd5b8280fd5b839150346100f15760203660031901126100f157356001600160a01b038116908190036100f1578183916101cb9352600860205220611899565b8051602080830151928401519351918252911515918101919091526040810191909152606090f35b9190503461018d578260031936011261018d5761020e6118c6565b80516370a0823160e01b81523083820152602091906001600160a01b037f00000000000000000000000000000000000000000000000000000000000000008116908483602481855afa928315610396578793610363575b50821561032a57600154845163a9059cbb60e01b815291166001600160a01b03168682019081526020810193909352918491839182908990829060400103925af19081156103205785916102f3575b50156102be578380f35b5162461bcd60e51b815291820152601160248201527015da5d1a191c985dd85b0819985a5b1959607a1b604482015260649150fd5b6103139150833d8511610319575b61030b818361117c565b8101906111ca565b386102b4565b503d610301565b82513d87823e3d90fd5b835162461bcd60e51b815280870186905260136024820152724e6f205553444320746f20776974686472617760681b6044820152606490fd5b9092508481813d831161038f575b61037b818361117c565b8101031261038b57519138610265565b8680fd5b503d610371565b84513d89823e3d90fd5b905082346104085780600319360112610408575060025460035491546005546006546007549551938452602084019490945260408301919091526060820152608081019190915260ff808316151560a083015260089290921c909116151560c082015260e090f35b80fd5b905082346104085760203660031901126104085781359067ffffffffffffffff821161040857506104446101cb92602092369101610f7a565b9190828551938492833781016009815203019020611899565b9190503461018d576020806003193601126105545782359261048360ff60075416610fad565b610491600254421015610fed565b61049f60035442111561102f565b33855260088252828520541561051f5750907fb7f20d0949b6a8bc59d005af4a52f7ff5d0cfcde9056fa556adb0e4b24dcb6d291338552600881526104ed60ff60018488200154161561184d565b3385526008815281852084815560018101600160ff19825416179055600242910155815193845242908401523392a280f35b915162461bcd60e51b8152918201526011602482015270141b185e595c881b9bdd081a9bda5b9959607a1b6044820152606490fd5b8380fd5b8383346100f157816003193601126100f1576105726118f2565b61058060ff60075416610fad565b61058e600254421015610fed565b61059c60035442111561102f565b3382526020600881528183205461076d5781516323b872dd60e01b81523385820152306024820152620f42406044820181905292906001600160a01b03908381606481897f000000000000000000000000000000000000000000000000000000000000000087165af1908115610763578691610746575b501561070c5785548481018091116106f957865561063260055461106b565b600555600a54600160401b8110156106e657906106788260017f3330a6773675f31f62070870f40379f8c6d42e3761410011a4dfc42b18043d2f96959401600a55611090565b819291549060031b9133831b921b19161790556106d881516106998161112e565b868152868482015286838201523387526008845282872090604060029180518455600184016020820151151560ff801983541691161790550151910155565b519283523392a26001815580f35b634e487b7160e01b865260418752602486fd5b634e487b7160e01b865260118752602486fd5b815162461bcd60e51b815280870184905260146024820152731554d110c81d1c985b9cd9995c8819985a5b195960621b6044820152606490fd5b61075d9150843d86116103195761030b818361117c565b87610613565b83513d88823e3d90fd5b8390606492519162461bcd60e51b8352820152600e60248201526d105b1c9958591e481a9bda5b995960921b6044820152fd5b839150346100f157826003193601126100f157803567ffffffffffffffff811161018d576107d19036908301610f7a565b602494919435906107e660ff60075416610fad565b6107f4600254421015610fed565b61080260035442111561102f565b82519381878637848281016009815260209687910301902054156108d757507fbd6ca4b35a8166766cbd9f87f743edb98a23e3033ee5995dbe8f750279db9aae93949561086860ff6001865185858237898187810160098152030190200154161561184d565b82845183838237878185810160098152030190205560018451838382378781858101600981520301902001600160ff198254161790558351828282376002838201916009835288814294030190200155818451928392833781018781520390209382519182524290820152a280f35b835162461bcd60e51b8152908101859052601760248201527f547269616c20706c61796572206e6f74206a6f696e65640000000000000000006044820152606490fd5b5050346100f157816003193601126100f15760015490516001600160a01b039091168152602090f35b9190503461018d578260031936011261018d5761095e6118c6565b60ff600754161580156109c3575b15610989578261097a6118f2565b6109826111e2565b6001815580f35b906020606492519162461bcd60e51b8352820152601460248201527353657373696f6e207374696c6c2061637469766560601b6044820152fd5b50600354421161096c565b8383346100f15760208060031936011261018d578335906109ed6118c6565b60ff60075416610b9d578115610b675783600255836003558385556005846005558460065584600755600a5485600a5580610b25575b50600b549185600b5582610a9a575b50505042600255804201804211610a87577fce6cbe3431d9ec9ac1a82a77a80bb9120b0250307afb3ed08873ea84c52b70c0939450600355600161ffff1960075416176007558151904282526020820152a180f35b634e487b7160e01b845260118552602484fd5b600b86527f0175b7a638427703f0dbe7bb9bbf987a2551717b34e79f33b5b1008d1fa01db9928301925b838110610ad15750610a32565b8087610adf600193546110dd565b80610aed575b505001610ac4565b601f8082118514610b0457505081555b878a610ae5565b610b1c908484528684209201871c8201858301611117565b81835555610afd565b600a86527fc65a7bb8d6351c1cf70c95a316cc6a92839c986682d98bc35f958f4883f9d2a8908101905b818110610b5c5750610a23565b868155600101610b4f565b825162461bcd60e51b8152602081870152601060248201526f24b73b30b634b210323ab930ba34b7b760811b6044820152606490fd5b825162461bcd60e51b8152602081870152601660248201527553657373696f6e20616c72656164792061637469766560501b6044820152606490fd5b8334610408578060031936011261040857610bf26118c6565b600180546001600160a01b0319811690915581906001600160a01b03167f8be0079c531659141344cd1fd0a4f28419497f9722a3daafe3b4186f6b6457e08280a380f35b8383346100f1576020908160031936011261018d5767ffffffffffffffff90843582811161018957610c6b9036908701610f7a565b939092610c7c60ff60075416610fad565b610c8a600254421015610fed565b610c9860035442111561102f565b8415610eff578251858582378281878101600981520301902054610ebc57610cc160065461106b565b600655600b54600160401b811015610e96576001906001810180600b55811015610ea957600b88527f0175b7a638427703f0dbe7bb9bbf987a2551717b34e79f33b5b1008d1fa01db901918611610e96579085939291610d2182546110dd565b601f8111610e5d575b508790601f8611600114610def57509084610daf93928991610de4575b508560011b906000198760031b1c19161790555b825190610d678261112e565b878252878183015287848301528351908587833781868101600981520301902090604060029180518455600184016020820151151560ff801983541691161790550151910155565b51928392833781018381520390207f93a1dfbf47c62f8886f8594f34973102da8b27ce9a0206226a3957bd9ee777d78280a280f35b905086013589610d47565b828952838920601f198716969594939290918a905b888210610e4357505085610daf95969710610e29575b5050600185811b019055610d5b565b870135600019600388901b60f8161c191690558880610e1a565b8983013584558a9750928301929185019190850190610e04565b610e8690838a52848a20601f880160051c810191868910610e8c575b601f0160051c0190611117565b88610d2a565b9091508190610e79565b634e487b7160e01b875260418852602487fd5b634e487b7160e01b885260328952602488fd5b825162461bcd60e51b8152808801839052601760248201527f53657373696f6e20494420616c726561647920757365640000000000000000006044820152606490fd5b825162461bcd60e51b81528088018390526012602482015271125b9d985b1a59081cd95cdcda5bdb88125160721b6044820152606490fd5b8490346100f157816003193601126100f1577f00000000000000000000000000000000000000000000000000000000000000006001600160a01b03168152602090f35b9181601f84011215610fa85782359167ffffffffffffffff8311610fa85760208381860195010111610fa857565b600080fd5b15610fb457565b60405162461bcd60e51b815260206004820152601160248201527027379030b1ba34bb329039b2b9b9b4b7b760791b6044820152606490fd5b15610ff457565b60405162461bcd60e51b815260206004820152601360248201527214d95cdcda5bdb881b9bdd081cdd185c9d1959606a1b6044820152606490fd5b1561103657565b60405162461bcd60e51b815260206004820152600d60248201526c14d95cdcda5bdb88195b991959609a1b6044820152606490fd5b600019811461107a5760010190565b634e487b7160e01b600052601160045260246000fd5b600a548110156110c757600a6000527fc65a7bb8d6351c1cf70c95a316cc6a92839c986682d98bc35f958f4883f9d2a80190600090565b634e487b7160e01b600052603260045260246000fd5b90600182811c9216801561110d575b60208310146110f757565b634e487b7160e01b600052602260045260246000fd5b91607f16916110ec565b818110611122575050565b60008155600101611117565b6060810190811067ffffffffffffffff82111761114a57604052565b634e487b7160e01b600052604160045260246000fd5b6040810190811067ffffffffffffffff82111761114a57604052565b90601f8019910116810190811067ffffffffffffffff82111761114a57604052565b67ffffffffffffffff811161114a5760051b60200190565b80518210156110c75760209160051b010190565b90816020910312610fa857518015158103610fa85790565b6007549060089060ff83831c81166118085760045480156117d357600a549461120a8661119e565b95611218604051978861117c565b808752601f1995866112298361119e565b0160005b8181106117ae575050600094855b83811061172c575050505082156116ed57506000939293925b6000199483860184811161107a578510156113185760005b85850385811161107a5787810190811161107a5781101561130a5760209081611295828b6111b6565b510151600182019081831161107a576001936112b1838d6111b6565b510151116112c1575b500161126c565b611303906112cf838c6111b6565b518b6112e6856112df85846111b6565b51926111b6565b526112f1848d6111b6565b506112fc828d6111b6565b528a6111b6565b50386112ba565b509450600190930192611254565b945092509390603285029480860460320361107a57606495601e8202828104601e0361107a57600f8302838104600f0361107a576005840293840460050361107a5761136885999897969561119e565b93611376604051958661117c565b898552866113838b61119e565b013660208701376113938a61119e565b966113a1604051988961117c565b8a88526113ad8b61119e565b0136602089013760009960005b818110806116e3575b156115ed576000816115315750868c808a8c9d9e9f60648b9e9d9e049c6114179561140b8f95611411955b6001600160a01b0390611402908c906111b6565b515116926111b6565b526111b6565b5261106b565b9780611433575b506114289061106b565b9a999897969a6113ba565b61147f906020906001600160a01b0361144c858e6111b6565b515160405163a9059cbb60e01b815291166001600160a01b03166004820152602481019190915291829081906044820190565b038160007f00000000000000000000000000000000000000000000000000000000000000006001600160a01b03165af190811561152557600091611506575b50156114ca573861141e565b60405162461bcd60e51b8152602060048201526015602482015274141c9a5e99481d1c985b9cd9995c8819985a5b1959605a1b60448201528c90fd5b61151f915060203d6020116103195761030b818361117c565b386114be565b6040513d6000823e3d90fd5b6001820361155c5750868c808a8c9d9e9f60648a9e9d9e049c6114179561140b8f95611411956113ee565b600282036115875750868c808a8c9d9e9f6064899e9d9e049c6114179561140b8f95611411956113ee565b826002198101116115d9576002198301156115c55750868c808a8c9d9e9f60029d9c9d19870160648904049c6114179561140b8f95611411956113ee565b634e487b7160e01b81526012600452602490fd5b634e487b7160e01b81526011600452602490fd5b50505050505093505090925061010061ffff19600754161760075560025491604051926060840190845260606020850152815180915260206080850192019060005b8181106116c45750505082810360408401526020808351928381520192019060005b8181106116ae5750505090807fec92dccf4a03653bc1a3d85019574bf62a659c47575779a889806684783b9e5c920390a17f6fec84c120bd2f6ca3672e03149381cb6bd1bf38d8442f598e8fa9820a53991e6020604051428152a1565b8251845260209384019390920191600101611651565b82516001600160a01b031684526020938401939092019160010161162f565b50600a81106113c3565b9294505050610100915061ffff1916176007557f6fec84c120bd2f6ca3672e03149381cb6bd1bf38d8442f598e8fa9820a53991e6020604051428152a1565b61173581611090565b60018060a01b0391549060031b1c16806000528a602085815260406000208560018201541661176b575b5050505060010161123b565b8a6001959b936117a495936117939354906040519561178987611160565b86528501526111b6565b5261179e818d6111b6565b5061106b565b96908a388061175f565b6020906040516117bd81611160565b6000815282600081830152828d0101520161122d565b60405162461bcd60e51b815260206004820152600d60248201526c139bc81c1c9a5e99481c1bdbdb609a1b6044820152606490fd5b60405162461bcd60e51b815260206004820152601a60248201527f5072697a657320616c72656164792064697374726962757465640000000000006044820152606490fd5b1561185457565b60405162461bcd60e51b815260206004820152601760248201527f53636f726520616c7265616479207375626d69747465640000000000000000006044820152606490fd5b906040516118a68161112e565b6040600282948054845260ff600182015416151560208501520154910152565b6001546001600160a01b031633036118da57565b60405163118cdaa760e01b8152336004820152602490fd5b600260005414611903576002600055565b604051633ee5aeb560e01b8152600490fdfea264697066735822122098edd6255de554f42820470a7c680d934c42f86ae85432ad0470a06534874c1264736f6c63430008190033",
  "linkReferences": {},
  "deployedLinkReferences": {}
}