{
  "_format": "hh-sol-artifact-1",
  "contractName": "TriviaBattle",
  "sourceName": "contracts/TriviaBattle.sol",
  "abi": [
    {
      "inputs": [
        {
          "internalType": "address",
          "name": "_usdcToken",
          "type": "address"
        },
        {
          "internalType": "address",
          "name": "_platformFeeRecipient",
          "type": "address"
        }
      ],
      "stateMutability": "nonpayable",
      "type": "constructor"
    },
    {
      "inputs": [
        {
          "internalType": "address",
          "name": "owner",
          "type": "address"
        }
      ],
      "name": "OwnableInvalidOwner",
      "type": "error"
    },
    {
      "inputs": [
        {
          "internalType": "address",
          "name": "account",
          "type": "address"
        }
      ],
      "name": "OwnableUnauthorizedAccount",
      "type": "error"
    },
    {
      "inputs": [],
      "name": "ReentrancyGuardReentrantCall",
      "type": "error"
    },
    {
      "anonymous": false,
      "inputs": [
        {
          "indexed": true,
          "internalType": "address",
          "name": "previousOwner",
          "type": "address"
        },
        {
          "indexed": true,
          "internalType": "address",
          "name": "newOwner",
          "type": "address"
        }
      ],
      "name": "OwnershipTransferred",
      "type": "event"
    },
    {
      "anonymous": false,
      "inputs": [
        {
          "indexed": false,
          "internalType": "uint256",
          "name": "amount",
          "type": "uint256"
        },
        {
          "indexed": true,
          "internalType": "address",
          "name": "recipient",
          "type": "address"
        }
      ],
      "name": "PlatformFeeCollected",
      "type": "event"
    },
    {
      "anonymous": false,
      "inputs": [
        {
          "indexed": true,
          "internalType": "address",
          "name": "oldRecipient",
          "type": "address"
        },
        {
          "indexed": true,
          "internalType": "address",
          "name": "newRecipient",
          "type": "address"
        }
      ],
      "name": "PlatformFeeRecipientUpdated",
      "type": "event"
    },
    {
      "anonymous": false,
      "inputs": [
        {
          "indexed": true,
          "internalType": "address",
          "name": "player",
          "type": "address"
        },
        {
          "indexed": false,
          "internalType": "uint256",
          "name": "entryFee",
          "type": "uint256"
        },
        {
          "indexed": false,
          "internalType": "uint256",
          "name": "platformFee",
          "type": "uint256"
        }
      ],
      "name": "PlayerJoined",
      "type": "event"
    },
    {
      "anonymous": false,
      "inputs": [
        {
          "indexed": false,
          "internalType": "uint256",
          "name": "sessionId",
          "type": "uint256"
        },
        {
          "indexed": false,
          "internalType": "address[]",
          "name": "winners",
          "type": "address[]"
        },
        {
          "indexed": false,
          "internalType": "uint256[]",
          "name": "amounts",
          "type": "uint256[]"
        }
      ],
      "name": "PrizesDistributed",
      "type": "event"
    },
    {
      "anonymous": false,
      "inputs": [
        {
          "indexed": true,
          "internalType": "address",
          "name": "player",
          "type": "address"
        },
        {
          "indexed": false,
          "internalType": "uint256",
          "name": "score",
          "type": "uint256"
        },
        {
          "indexed": false,
          "internalType": "uint256",
          "name": "timestamp",
          "type": "uint256"
        }
      ],
      "name": "ScoreSubmitted",
      "type": "event"
    },
    {
      "anonymous": false,
      "inputs": [
        {
          "indexed": false,
          "internalType": "uint256",
          "name": "endTime",
          "type": "uint256"
        }
      ],
      "name": "SessionEnded",
      "type": "event"
    },
    {
      "anonymous": false,
      "inputs": [
        {
          "indexed": false,
          "internalType": "uint256",
          "name": "startTime",
          "type": "uint256"
        },
        {
          "indexed": false,
          "internalType": "uint256",
          "name": "duration",
          "type": "uint256"
        }
      ],
      "name": "SessionStarted",
      "type": "event"
    },
    {
      "anonymous": false,
      "inputs": [
        {
          "indexed": true,
          "internalType": "string",
          "name": "sessionId",
          "type": "string"
        }
      ],
      "name": "TrialPlayerJoined",
      "type": "event"
    },
    {
      "anonymous": false,
      "inputs": [
        {
          "indexed": true,
          "internalType": "string",
          "name": "sessionId",
          "type": "string"
        },
        {
          "indexed": false,
          "internalType": "uint256",
          "name": "score",
          "type": "uint256"
        },
        {
          "indexed": false,
          "internalType": "uint256",
          "name": "timestamp",
          "type": "uint256"
        }
      ],
      "name": "TrialScoreSubmitted",
      "type": "event"
    },
    {
      "inputs": [],
      "name": "ENTRY_FEE",
      "outputs": [
        {
          "internalType": "uint256",
          "name": "",
          "type": "uint256"
        }
      ],
      "stateMutability": "view",
      "type": "function"
    },
    {
      "inputs": [],
      "name": "PLATFORM_FEE_BPS",
      "outputs": [
        {
          "internalType": "uint256",
          "name": "",
          "type": "uint256"
        }
      ],
      "stateMutability": "view",
      "type": "function"
    },
    {
      "inputs": [],
      "name": "currentSession",
      "outputs": [
        {
          "internalType": "uint256",
          "name": "startTime",
          "type": "uint256"
        },
        {
          "internalType": "uint256",
          "name": "endTime",
          "type": "uint256"
        },
        {
          "internalType": "uint256",
          "name": "prizePool",
          "type": "uint256"
        },
        {
          "internalType": "uint256",
          "name": "paidPlayerCount",
          "type": "uint256"
        },
        {
          "internalType": "uint256",
          "name": "trialPlayerCount",
          "type": "uint256"
        },
        {
          "internalType": "bool",
          "name": "isActive",
          "type": "bool"
        },
        {
          "internalType": "bool",
          "name": "prizesDistributed",
          "type": "bool"
        }
      ],
      "stateMutability": "view",
      "type": "function"
    },
    {
      "inputs": [],
      "name": "distributePrizes",
      "outputs": [],
      "stateMutability": "nonpayable",
      "type": "function"
    },
    {
      "inputs": [],
      "name": "emergencyWithdraw",
      "outputs": [],
      "stateMutability": "nonpayable",
      "type": "function"
    },
    {
      "inputs": [
        {
          "internalType": "address",
          "name": "player",
          "type": "address"
        }
      ],
      "name": "getPlayerScore",
      "outputs": [
        {
          "internalType": "uint256",
          "name": "score",
          "type": "uint256"
        },
        {
          "internalType": "bool",
          "name": "hasSubmitted",
          "type": "bool"
        },
        {
          "internalType": "uint256",
          "name": "submissionTime",
          "type": "uint256"
        }
      ],
      "stateMutability": "view",
      "type": "function"
    },
    {
      "inputs": [],
      "name": "getSessionInfo",
      "outputs": [
        {
          "internalType": "uint256",
          "name": "startTime",
          "type": "uint256"
        },
        {
          "internalType": "uint256",
          "name": "endTime",
          "type": "uint256"
        },
        {
          "internalType": "uint256",
          "name": "prizePool",
          "type": "uint256"
        },
        {
          "internalType": "uint256",
          "name": "paidPlayerCount",
          "type": "uint256"
        },
        {
          "internalType": "uint256",
          "name": "trialPlayerCount",
          "type": "uint256"
        },
        {
          "internalType": "bool",
          "name": "isActive",
          "type": "bool"
        },
        {
          "internalType": "bool",
          "name": "prizesDistributed",
          "type": "bool"
        }
      ],
      "stateMutability": "view",
      "type": "function"
    },
    {
      "inputs": [
        {
          "internalType": "string",
          "name": "sessionId",
          "type": "string"
        }
      ],
      "name": "getTrialPlayerScore",
      "outputs": [
        {
          "internalType": "uint256",
          "name": "score",
          "type": "uint256"
        },
        {
          "internalType": "bool",
          "name": "hasSubmitted",
          "type": "bool"
        },
        {
          "internalType": "uint256",
          "name": "submissionTime",
          "type": "uint256"
        }
      ],
      "stateMutability": "view",
      "type": "function"
    },
    {
      "inputs": [],
      "name": "joinBattle",
      "outputs": [],
      "stateMutability": "nonpayable",
      "type": "function"
    },
    {
      "inputs": [
        {
          "internalType": "string",
          "name": "sessionId",
          "type": "string"
        }
      ],
      "name": "joinTrialBattle",
      "outputs": [],
      "stateMutability": "nonpayable",
      "type": "function"
    },
    {
      "inputs": [],
      "name": "owner",
      "outputs": [
        {
          "internalType": "address",
          "name": "",
          "type": "address"
        }
      ],
      "stateMutability": "view",
      "type": "function"
    },
    {
      "inputs": [],
      "name": "platformFeeRecipient",
      "outputs": [
        {
          "internalType": "address",
          "name": "",
          "type": "address"
        }
      ],
      "stateMutability": "view",
      "type": "function"
    },
    {
      "inputs": [],
      "name": "renounceOwnership",
      "outputs": [],
      "stateMutability": "nonpayable",
      "type": "function"
    },
    {
      "inputs": [
        {
          "internalType": "uint256",
          "name": "duration",
          "type": "uint256"
        }
      ],
      "name": "startSession",
      "outputs": [],
      "stateMutability": "nonpayable",
      "type": "function"
    },
    {
      "inputs": [
        {
          "internalType": "uint256",
          "name": "score",
          "type": "uint256"
        }
      ],
      "name": "submitScore",
      "outputs": [],
      "stateMutability": "nonpayable",
      "type": "function"
    },
    {
      "inputs": [
        {
          "internalType": "string",
          "name": "sessionId",
          "type": "string"
        },
        {
          "internalType": "uint256",
          "name": "score",
          "type": "uint256"
        }
      ],
      "name": "submitTrialScore",
      "outputs": [],
      "stateMutability": "nonpayable",
      "type": "function"
    },
    {
      "inputs": [
        {
          "internalType": "address",
          "name": "newOwner",
          "type": "address"
        }
      ],
      "name": "transferOwnership",
      "outputs": [],
      "stateMutability": "nonpayable",
      "type": "function"
    },
    {
      "inputs": [
        {
          "internalType": "address",
          "name": "_newRecipient",
          "type": "address"
        }
      ],
      "name": "updatePlatformFeeRecipient",
      "outputs": [],
      "stateMutability": "nonpayable",
      "type": "function"
    },
    {
      "inputs": [],
      "name": "usdcToken",
      "outputs": [
        {
          "internalType": "contract IERC20",
          "name": "",
          "type": "address"
        }
      ],
      "stateMutability": "view",
      "type": "function"
    }
  ],
  "bytecode": "0x60a0346100ff57601f611c6b38819003918201601f19168301916001600160401b038311848410176101045780849260409485528339810103126100ff57610052602061004b8361011a565b920161011a565b90600160005533156100e65760018054336001600160a01b031980831682179093556040519492936001600160a01b03939284929083167f8be0079c531659141344cd1fd0a4f28419497f9722a3daafe3b4186f6b6457e0600080a31660805216906002541617600255611b3c908161012f8239608051818181610338015281816106b901528181611145015261168e0152f35b604051631e4fbdf760e01b815260006004820152602490fd5b600080fd5b634e487b7160e01b600052604160045260246000fd5b51906001600160a01b03821682036100ff5756fe608060408181526004918236101561001657600080fd5b600092833560e01c91826311eac8551461113157508163264eab0e14610e31578163539aa77f14610e15578163715018a614610db85781637712761214610bb05781637ce52eb614610b265781638da5cb5b14610afd5781639463b1cd146104ab57816395607a951461098457816397794bf41461065a578163aff0b29714610560578163d082e23f1461050e578163d4166763146104ab578163db2e21bc146102fe578163e085c5391461029c578163eb13554f14610273578163f2fde38b146101df578163f5fe7f7114610116575063f6d361cc146100f657600080fd5b3461011257816003193601126101125760209051620f42408152f35b5080fd5b919050346101db5760203660031901126101db576001600160a01b038235818116939192908490036101d75761014a611ab7565b8315610194575050600254826bffffffffffffffffffffffff60a01b821617600255167faf04973bb8004e313cfd09017b963bee1e6f6ffb9be88c07a0c5ce5fafe934038380a380f35b906020606492519162461bcd60e51b8352820152601960248201527f496e76616c696420726563697069656e742061646472657373000000000000006044820152fd5b8480fd5b8280fd5b919050346101db5760203660031901126101db576001600160a01b038235818116939192908490036101d757610213611ab7565b831561025d575050600154826bffffffffffffffffffffffff60a01b821617600155167f8be0079c531659141344cd1fd0a4f28419497f9722a3daafe3b4186f6b6457e08380a380f35b51631e4fbdf760e01b8152908101849052602490fd5b50503461011257816003193601126101125760025490516001600160a01b039091168152602090f35b8391503461011257602036600319011261011257356001600160a01b03811690819003610112578183916102d69352600960205220611a8a565b8051602080830151928401519351918252911515918101919091526040810191909152606090f35b919050346101db57826003193601126101db57610319611ab7565b80516370a0823160e01b81523083820152602091906001600160a01b037f00000000000000000000000000000000000000000000000000000000000000008116908483602481855afa9283156104a157879361046e575b50821561043557600154845163a9059cbb60e01b815291166001600160a01b03168682019081526020810193909352918491839182908990829060400103925af190811561042b5785916103fe575b50156103c9578380f35b5162461bcd60e51b815291820152601160248201527015da5d1a191c985dd85b0819985a5b1959607a1b604482015260649150fd5b61041e9150833d8511610424575b6104168183611376565b8101906113c4565b386103bf565b503d61040c565b82513d87823e3d90fd5b835162461bcd60e51b815280870186905260136024820152724e6f205553444320746f20776974686472617760681b6044820152606490fd5b9092508481813d831161049a575b6104868183611376565b8101031261049657519138610370565b8680fd5b503d61047c565b84513d89823e3d90fd5b82843461050b578060031936011261050b57506003549154600554600654600754600880549551968752602087019490945260408601929092526060850152608084015260ff808316151560a085015291901c16151560c082015260e090f35b80fd5b9050823461050b57602036600319011261050b5781359067ffffffffffffffff821161050b57506105476102d692602092369101611174565b919082855193849283378101600a815203019020611a8a565b919050346101db576020806003193601126106565782359261058660ff600854166111a7565b6105946003544210156111e7565b6105a18154421115611229565b3385526009825282852054156106215750907fb7f20d0949b6a8bc59d005af4a52f7ff5d0cfcde9056fa556adb0e4b24dcb6d291338552600981526105ef60ff600184882001541615611a3e565b3385526009815281852084815560018101600160ff19825416179055600242910155815193845242908401523392a280f35b915162461bcd60e51b8152918201526011602482015270141b185e595c881b9bdd081a9bda5b9959607a1b6044820152606490fd5b8380fd5b919050346101db57826003193601126101db57610675611ae3565b61068360ff600854166111a7565b6106916003544210156111e7565b61069e8254421115611229565b338352602060098152818420546109525760018060a01b03807f000000000000000000000000000000000000000000000000000000000000000016938351946323b872dd60e01b865233828701526024903082880152620f42409687604482015285816064818c865af19081156108f2578991610935575b50156108fc57836002541680610828575b5050600554620ee098810180911161081657600555610747600654611265565b600655600b5491600160401b831015610805575050916161a8916107938460017fc9b3932fab18f6ac6d50cac9682ed0c164ce31d2505f3571323a0cf5902dd68c979601600b5561128a565b819291549060031b9133831b921b19161790556107f383516107b481611328565b878152878382015287858201523388526009835284882090604060029180518455600184016020820151151560ff801983541691161790550151910155565b82519485528401523392a26001815580f35b634e487b7160e01b88526041905286fd5b50634e487b7160e01b87526011825286fd5b86519063a9059cbb60e01b82528482015285816044818c6161a89687898401525af19081156108f25789916108d5575b5015610893577fcf1bd34e586f4e12ef1c4c84c337b05dd3f7fc5409e16c5fea9063524eb77022858560025416928851908152a23880610727565b855162461bcd60e51b8152808401869052601c818401527f506c6174666f726d20666565207472616e73666572206661696c6564000000006044820152606490fd5b6108ec9150863d8811610424576104168183611376565b38610858565b87513d8b823e3d90fd5b855162461bcd60e51b8152808401869052601481840152731554d110c81d1c985b9cd9995c8819985a5b195960621b6044820152606490fd5b61094c9150863d8811610424576104168183611376565b38610716565b905162461bcd60e51b815291820152600e60248201526d105b1c9958591e481a9bda5b995960921b6044820152606490fd5b83915034610112578260031936011261011257803567ffffffffffffffff81116101db576109b59036908301611174565b602494919435906109ca60ff600854166111a7565b6109d86003544210156111e7565b6109e58454421115611229565b8251938187863784828101600a81526020968791030190205415610aba57507fbd6ca4b35a8166766cbd9f87f743edb98a23e3033ee5995dbe8f750279db9aae939495610a4b60ff60018651858582378981878101600a81520301902001541615611a3e565b828451838382378781858101600a8152030190205560018451838382378781858101600a81520301902001600160ff19825416179055835182828237600283820191600a835288814294030190200155818451928392833781018781520390209382519182524290820152a280f35b835162461bcd60e51b8152908101859052601760248201527f547269616c20706c61796572206e6f74206a6f696e65640000000000000000006044820152606490fd5b50503461011257816003193601126101125760015490516001600160a01b039091168152602090f35b919050346101db57826003193601126101db57610b41611ab7565b60ff60085416158015610ba6575b15610b6c5782610b5d611ae3565b610b656113dc565b6001815580f35b906020606492519162461bcd60e51b8352820152601460248201527353657373696f6e207374696c6c2061637469766560601b6044820152fd5b5081544211610b4f565b838334610112576020806003193601126101db57833590610bcf611ab7565b60ff60085416610d7c578115610d465783600355838555600584600555846006558460075584600855600b5485600b5580610d04575b50600c549185600c5582610c79575b50505042600355804201804211610c66577fce6cbe3431d9ec9ac1a82a77a80bb9120b0250307afb3ed08873ea84c52b70c0939455600161ffff1960085416176008558151904282526020820152a180f35b634e487b7160e01b845260118552602484fd5b600c86527fdf6966c971051c3d54ec59162606531493a51404a002842f56009d7e5cf4a8c7928301925b838110610cb05750610c14565b8087610cbe600193546112d7565b80610ccc575b505001610ca3565b601f8082118514610ce357505081555b878a610cc4565b610cfb908484528684209201871c8201858301611311565b81835555610cdc565b600b86527f0175b7a638427703f0dbe7bb9bbf987a2551717b34e79f33b5b1008d1fa01db9908101905b818110610d3b5750610c05565b868155600101610d2e565b825162461bcd60e51b8152602081870152601060248201526f24b73b30b634b210323ab930ba34b7b760811b6044820152606490fd5b825162461bcd60e51b8152602081870152601660248201527553657373696f6e20616c72656164792061637469766560501b6044820152606490fd5b833461050b578060031936011261050b57610dd1611ab7565b600180546001600160a01b0319811690915581906001600160a01b03167f8be0079c531659141344cd1fd0a4f28419497f9722a3daafe3b4186f6b6457e08280a380f35b5050346101125781600319360112610112576020905160fa8152f35b83833461011257602090816003193601126101db5767ffffffffffffffff9084358281116101d757610e669036908701611174565b939092610e7760ff600854166111a7565b610e856003544210156111e7565b610e928754421115611229565b84156110f9578251858582378281878101600a815203019020546110b657610ebb600754611265565b600755600c54600160401b811015611090576001906001810180600c558110156110a357600c88527fdf6966c971051c3d54ec59162606531493a51404a002842f56009d7e5cf4a8c701918611611090579085939291610f1b82546112d7565b601f8111611057575b508790601f8611600114610fe957509084610fa993928991610fde575b508560011b906000198760031b1c19161790555b825190610f6182611328565b878252878183015287848301528351908587833781868101600a81520301902090604060029180518455600184016020820151151560ff801983541691161790550151910155565b51928392833781018381520390207f93a1dfbf47c62f8886f8594f34973102da8b27ce9a0206226a3957bd9ee777d78280a280f35b905086013589610f41565b828952838920601f198716969594939290918a905b88821061103d57505085610fa995969710611023575b5050600185811b019055610f55565b870135600019600388901b60f8161c191690558880611014565b8983013584558a9750928301929185019190850190610ffe565b61108090838a52848a20601f880160051c810191868910611086575b601f0160051c0190611311565b88610f24565b9091508190611073565b634e487b7160e01b875260418852602487fd5b634e487b7160e01b885260328952602488fd5b825162461bcd60e51b8152808801839052601760248201527f53657373696f6e20494420616c726561647920757365640000000000000000006044820152606490fd5b825162461bcd60e51b81528088018390526012602482015271125b9d985b1a59081cd95cdcda5bdb88125160721b6044820152606490fd5b8490346101125781600319360112610112577f00000000000000000000000000000000000000000000000000000000000000006001600160a01b03168152602090f35b9181601f840112156111a25782359167ffffffffffffffff83116111a257602083818601950101116111a257565b600080fd5b156111ae57565b60405162461bcd60e51b815260206004820152601160248201527027379030b1ba34bb329039b2b9b9b4b7b760791b6044820152606490fd5b156111ee57565b60405162461bcd60e51b815260206004820152601360248201527214d95cdcda5bdb881b9bdd081cdd185c9d1959606a1b6044820152606490fd5b1561123057565b60405162461bcd60e51b815260206004820152600d60248201526c14d95cdcda5bdb88195b991959609a1b6044820152606490fd5b60001981146112745760010190565b634e487b7160e01b600052601160045260246000fd5b600b548110156112c157600b6000527f0175b7a638427703f0dbe7bb9bbf987a2551717b34e79f33b5b1008d1fa01db90190600090565b634e487b7160e01b600052603260045260246000fd5b90600182811c92168015611307575b60208310146112f157565b634e487b7160e01b600052602260045260246000fd5b91607f16916112e6565b81811061131c575050565b60008155600101611311565b6060810190811067ffffffffffffffff82111761134457604052565b634e487b7160e01b600052604160045260246000fd5b6040810190811067ffffffffffffffff82111761134457604052565b90601f8019910116810190811067ffffffffffffffff82111761134457604052565b67ffffffffffffffff81116113445760051b60200190565b80518210156112c15760209160051b010190565b908160209103126111a2575180151581036111a25790565b6008549060ff808360081c166119f9576005549081156119c457600b549161140383611398565b946114116040519687611376565b838652601f19938461142282611398565b0160005b81811061199f575050600093845b82811061191f5750505082156118e057506000939293925b60001994838601848111611274578510156115105760005b8585038581116112745787810190811161127457811015611502576020908161148d828b6113b0565b5101516001820190818311611274576001936114a9838d6113b0565b510151116114b9575b5001611464565b6114fb906114c7838c6113b0565b518b6114de856114d785846113b0565b51926113b0565b526114e9848d6113b0565b506114f4828d6113b0565b528a6113b0565b50386114b2565b50945060019093019261144c565b9350909350939093603284029484860460320361127457606495601e8602868104601e0361127457600f8702878104600f036112745760649004966005810290810460050361127457606490989796959498049561156d84611398565b9361157b6040519586611376565b80855261158781611398565b9787602087019901368a3761159b82611398565b976115a9604051998a611376565b8289526115b583611398565b013660208a013760009a60005b838110806118d6575b156117e5576000816117325750878d8a8c9d9e9f8060649d9e9d8c049d611620958f9461161a94611614915b6001600160a01b039061160b908c906113b0565b515116926113b0565b526113b0565b52611265565b988061163c575b5061163190611265565b9b9a9998979b6115c2565b61168860206001600160a01b03611653858f6113b0565b515116926040518093819263a9059cbb60e01b835260049687840160209093929193604081019460018060a01b031681520152565b038160007f00000000000000000000000000000000000000000000000000000000000000006001600160a01b03165af190811561172657600091611707575b50611627578d9060206040519162461bcd60e51b83528201526015602482015274141c9a5e99481d1c985b9cd9995c8819985a5b1959605a1b6044820152fd5b611720915060203d602011610424576104168183611376565b386116c7565b6040513d6000823e3d90fd5b6001820361175e5750878d8a8c9d9e9f8060649d9e9d8b049d611620958f9461161a94611614916115f7565b600282036117875750878d8a8c9d9e9f80899e9d9e9d611620958f9461161a94611614916115f7565b6002198501908582116117d15781156117bd57508d8a8c9d9e9f808c949d9e9d88049d611620958f9461161a94611614916115f7565b634e487b7160e01b81526012600452602490fd5b634e487b7160e01b81526011600452602490fd5b509a5050505050509350509061010061ffff1960085416176008556003546040519360608501918552606060208601525180915260808401919060005b8181106118b75750505082810360408401526020808351928381520192019060005b8181106118a15750505090807fec92dccf4a03653bc1a3d85019574bf62a659c47575779a889806684783b9e5c920390a17f6fec84c120bd2f6ca3672e03149381cb6bd1bf38d8442f598e8fa9820a53991e6020604051428152a1565b8251845260209384019390920191600101611844565b82516001600160a01b0316845260209384019390920191600101611822565b50600a81106115cb565b9250505061010091925061ffff1916176008557f6fec84c120bd2f6ca3672e03149381cb6bd1bf38d8442f598e8fa9820a53991e6020604051428152a1565b6119288161128a565b60018060a01b0391549060031b1c168060005260206009815260406000208460018201541661195d575b505050600101611434565b916001939891611996935490604051926119768461135a565b8352820152611985828d6113b0565b52611990818c6113b0565b50611265565b95903880611952565b6020906040516119ae8161135a565b6000815282600081830152828c01015201611426565b60405162461bcd60e51b815260206004820152600d60248201526c139bc81c1c9a5e99481c1bdbdb609a1b6044820152606490fd5b60405162461bcd60e51b815260206004820152601a60248201527f5072697a657320616c72656164792064697374726962757465640000000000006044820152606490fd5b15611a4557565b60405162461bcd60e51b815260206004820152601760248201527f53636f726520616c7265616479207375626d69747465640000000000000000006044820152606490fd5b90604051611a9781611328565b6040600282948054845260ff600182015416151560208501520154910152565b6001546001600160a01b03163303611acb57565b60405163118cdaa760e01b8152336004820152602490fd5b600260005414611af4576002600055565b604051633ee5aeb560e01b8152600490fdfea264697066735822122052d4642f1d929cbfc1d372c0d7a193be20798b002e54959a88e267ff0e81b3d564736f6c63430008190033",
  "linkReferences": {},
  "deployedLinkReferences": {}
}